{
	"contracts/ViewPure.sol": {
		"View": {
			"abi": [
				{
					"inputs": [],
					"name": "getResult",
					"outputs": [
						{
							"internalType": "uint256",
							"name": "",
							"type": "uint256"
						},
						{
							"internalType": "uint256",
							"name": "",
							"type": "uint256"
						}
					],
					"stateMutability": "view",
					"type": "function"
				},
				{
					"inputs": [],
					"name": "getResults",
					"outputs": [
						{
							"internalType": "uint256",
							"name": "product",
							"type": "uint256"
						},
						{
							"internalType": "uint256",
							"name": "total",
							"type": "uint256"
						}
					],
					"stateMutability": "view",
					"type": "function"
				}
			],
			"devdoc": {
				"kind": "dev",
				"methods": {},
				"version": 1
			},
			"evm": {
				"assembly": "    /* \"contracts/ViewPure.sol\":61:543  contract View {... */\n  mstore(0x40, 0x80)\n    /* \"contracts/ViewPure.sol\":205:206  2 */\n  0x02\n    /* \"contracts/ViewPure.sol\":190:206  uint256 num1 = 2 */\n  0x00\n  sstore\n    /* \"contracts/ViewPure.sol\":228:229  7 */\n  0x07\n    /* \"contracts/ViewPure.sol\":213:229  uint256 num2 = 7 */\n  0x01\n  sstore\n    /* \"contracts/ViewPure.sol\":61:543  contract View {... */\n  callvalue\n  dup1\n  iszero\n  tag_1\n  jumpi\n  0x00\n  dup1\n  revert\ntag_1:\n  pop\n  dataSize(sub_0)\n  dup1\n  dataOffset(sub_0)\n  0x00\n  codecopy\n  0x00\n  return\nstop\n\nsub_0: assembly {\n        /* \"contracts/ViewPure.sol\":61:543  contract View {... */\n      mstore(0x40, 0x80)\n      callvalue\n      dup1\n      iszero\n      tag_1\n      jumpi\n      0x00\n      dup1\n      revert\n    tag_1:\n      pop\n      jumpi(tag_2, lt(calldatasize, 0x04))\n      shr(0xe0, calldataload(0x00))\n      dup1\n      0x4717f97c\n      eq\n      tag_3\n      jumpi\n      dup1\n      0xde292789\n      eq\n      tag_4\n      jumpi\n    tag_2:\n      0x00\n      dup1\n      revert\n        /* \"contracts/ViewPure.sol\":342:540  function getResults() public view returns(uint product, uint total) {... */\n    tag_3:\n      tag_5\n      tag_6\n      jump\t// in\n    tag_5:\n      mload(0x40)\n      tag_7\n      swap3\n      swap2\n      swap1\n      tag_8\n      jump\t// in\n    tag_7:\n      mload(0x40)\n      dup1\n      swap2\n      sub\n      swap1\n      return\n        /* \"contracts/ViewPure.sol\":238:334  function getResult() public view returns(uint256, uint256) {... */\n    tag_4:\n      tag_9\n      tag_10\n      jump\t// in\n    tag_9:\n      mload(0x40)\n      tag_11\n      swap3\n      swap2\n      swap1\n      tag_8\n      jump\t// in\n    tag_11:\n      mload(0x40)\n      dup1\n      swap2\n      sub\n      swap1\n      return\n        /* \"contracts/ViewPure.sol\":342:540  function getResults() public view returns(uint product, uint total) {... */\n    tag_6:\n        /* \"contracts/ViewPure.sol\":384:396  uint product */\n      0x00\n        /* \"contracts/ViewPure.sol\":398:408  uint total */\n      dup1\n        /* \"contracts/ViewPure.sol\":496:500  num2 */\n      sload(0x01)\n        /* \"contracts/ViewPure.sol\":489:493  num1 */\n      sload(0x00)\n        /* \"contracts/ViewPure.sol\":489:500  num1 * num2 */\n      tag_13\n      swap2\n      swap1\n      tag_14\n      jump\t// in\n    tag_13:\n        /* \"contracts/ViewPure.sol\":479:500  product = num1 * num2 */\n      swap2\n      pop\n        /* \"contracts/ViewPure.sol\":526:530  num2 */\n      sload(0x01)\n        /* \"contracts/ViewPure.sol\":519:523  num1 */\n      sload(0x00)\n        /* \"contracts/ViewPure.sol\":519:530  num1 + num2 */\n      tag_15\n      swap2\n      swap1\n      tag_16\n      jump\t// in\n    tag_15:\n        /* \"contracts/ViewPure.sol\":511:530  total = num1 + num2 */\n      swap1\n      pop\n        /* \"contracts/ViewPure.sol\":342:540  function getResults() public view returns(uint product, uint total) {... */\n      swap1\n      swap2\n      jump\t// out\n        /* \"contracts/ViewPure.sol\":238:334  function getResult() public view returns(uint256, uint256) {... */\n    tag_10:\n        /* \"contracts/ViewPure.sol\":279:286  uint256 */\n      0x00\n        /* \"contracts/ViewPure.sol\":288:295  uint256 */\n      dup1\n        /* \"contracts/ViewPure.sol\":315:319  num1 */\n      sload(0x00)\n        /* \"contracts/ViewPure.sol\":321:325  num2 */\n      sload(0x01)\n        /* \"contracts/ViewPure.sol\":308:326  return(num1, num2) */\n      swap2\n      pop\n      swap2\n      pop\n        /* \"contracts/ViewPure.sol\":238:334  function getResult() public view returns(uint256, uint256) {... */\n      swap1\n      swap2\n      jump\t// out\n        /* \"#utility.yul\":7:84   */\n    tag_18:\n        /* \"#utility.yul\":44:51   */\n      0x00\n        /* \"#utility.yul\":73:78   */\n      dup2\n        /* \"#utility.yul\":62:78   */\n      swap1\n      pop\n        /* \"#utility.yul\":7:84   */\n      swap2\n      swap1\n      pop\n      jump\t// out\n        /* \"#utility.yul\":90:208   */\n    tag_19:\n        /* \"#utility.yul\":177:201   */\n      tag_24\n        /* \"#utility.yul\":195:200   */\n      dup2\n        /* \"#utility.yul\":177:201   */\n      tag_18\n      jump\t// in\n    tag_24:\n        /* \"#utility.yul\":172:175   */\n      dup3\n        /* \"#utility.yul\":165:202   */\n      mstore\n        /* \"#utility.yul\":90:208   */\n      pop\n      pop\n      jump\t// out\n        /* \"#utility.yul\":214:546   */\n    tag_8:\n        /* \"#utility.yul\":335:339   */\n      0x00\n        /* \"#utility.yul\":373:375   */\n      0x40\n        /* \"#utility.yul\":362:371   */\n      dup3\n        /* \"#utility.yul\":358:376   */\n      add\n        /* \"#utility.yul\":350:376   */\n      swap1\n      pop\n        /* \"#utility.yul\":386:457   */\n      tag_26\n        /* \"#utility.yul\":454:455   */\n      0x00\n        /* \"#utility.yul\":443:452   */\n      dup4\n        /* \"#utility.yul\":439:456   */\n      add\n        /* \"#utility.yul\":430:436   */\n      dup6\n        /* \"#utility.yul\":386:457   */\n      tag_19\n      jump\t// in\n    tag_26:\n        /* \"#utility.yul\":467:539   */\n      tag_27\n        /* \"#utility.yul\":535:537   */\n      0x20\n        /* \"#utility.yul\":524:533   */\n      dup4\n        /* \"#utility.yul\":520:538   */\n      add\n        /* \"#utility.yul\":511:517   */\n      dup5\n        /* \"#utility.yul\":467:539   */\n      tag_19\n      jump\t// in\n    tag_27:\n        /* \"#utility.yul\":214:546   */\n      swap4\n      swap3\n      pop\n      pop\n      pop\n      jump\t// out\n        /* \"#utility.yul\":552:732   */\n    tag_20:\n        /* \"#utility.yul\":600:677   */\n      0x4e487b7100000000000000000000000000000000000000000000000000000000\n        /* \"#utility.yul\":597:598   */\n      0x00\n        /* \"#utility.yul\":590:678   */\n      mstore\n        /* \"#utility.yul\":697:701   */\n      0x11\n        /* \"#utility.yul\":694:695   */\n      0x04\n        /* \"#utility.yul\":687:702   */\n      mstore\n        /* \"#utility.yul\":721:725   */\n      0x24\n        /* \"#utility.yul\":718:719   */\n      0x00\n        /* \"#utility.yul\":711:726   */\n      revert\n        /* \"#utility.yul\":738:1148   */\n    tag_14:\n        /* \"#utility.yul\":778:785   */\n      0x00\n        /* \"#utility.yul\":801:821   */\n      tag_30\n        /* \"#utility.yul\":819:820   */\n      dup3\n        /* \"#utility.yul\":801:821   */\n      tag_18\n      jump\t// in\n    tag_30:\n        /* \"#utility.yul\":796:821   */\n      swap2\n      pop\n        /* \"#utility.yul\":835:855   */\n      tag_31\n        /* \"#utility.yul\":853:854   */\n      dup4\n        /* \"#utility.yul\":835:855   */\n      tag_18\n      jump\t// in\n    tag_31:\n        /* \"#utility.yul\":830:855   */\n      swap3\n      pop\n        /* \"#utility.yul\":890:891   */\n      dup3\n        /* \"#utility.yul\":887:888   */\n      dup3\n        /* \"#utility.yul\":883:892   */\n      mul\n        /* \"#utility.yul\":912:942   */\n      tag_32\n        /* \"#utility.yul\":930:941   */\n      dup2\n        /* \"#utility.yul\":912:942   */\n      tag_18\n      jump\t// in\n    tag_32:\n        /* \"#utility.yul\":901:942   */\n      swap2\n      pop\n        /* \"#utility.yul\":1091:1092   */\n      dup3\n        /* \"#utility.yul\":1082:1089   */\n      dup3\n        /* \"#utility.yul\":1078:1093   */\n      div\n        /* \"#utility.yul\":1075:1076   */\n      dup5\n        /* \"#utility.yul\":1072:1094   */\n      eq\n        /* \"#utility.yul\":1052:1053   */\n      dup4\n        /* \"#utility.yul\":1045:1054   */\n      iszero\n        /* \"#utility.yul\":1025:1108   */\n      or\n        /* \"#utility.yul\":1002:1141   */\n      tag_33\n      jumpi\n        /* \"#utility.yul\":1121:1139   */\n      tag_34\n      tag_20\n      jump\t// in\n    tag_34:\n        /* \"#utility.yul\":1002:1141   */\n    tag_33:\n        /* \"#utility.yul\":786:1148   */\n      pop\n        /* \"#utility.yul\":738:1148   */\n      swap3\n      swap2\n      pop\n      pop\n      jump\t// out\n        /* \"#utility.yul\":1154:1345   */\n    tag_16:\n        /* \"#utility.yul\":1194:1197   */\n      0x00\n        /* \"#utility.yul\":1213:1233   */\n      tag_36\n        /* \"#utility.yul\":1231:1232   */\n      dup3\n        /* \"#utility.yul\":1213:1233   */\n      tag_18\n      jump\t// in\n    tag_36:\n        /* \"#utility.yul\":1208:1233   */\n      swap2\n      pop\n        /* \"#utility.yul\":1247:1267   */\n      tag_37\n        /* \"#utility.yul\":1265:1266   */\n      dup4\n        /* \"#utility.yul\":1247:1267   */\n      tag_18\n      jump\t// in\n    tag_37:\n        /* \"#utility.yul\":1242:1267   */\n      swap3\n      pop\n        /* \"#utility.yul\":1290:1291   */\n      dup3\n        /* \"#utility.yul\":1287:1288   */\n      dup3\n        /* \"#utility.yul\":1283:1292   */\n      add\n        /* \"#utility.yul\":1276:1292   */\n      swap1\n      pop\n        /* \"#utility.yul\":1311:1314   */\n      dup1\n        /* \"#utility.yul\":1308:1309   */\n      dup3\n        /* \"#utility.yul\":1305:1315   */\n      gt\n        /* \"#utility.yul\":1302:1338   */\n      iszero\n      tag_38\n      jumpi\n        /* \"#utility.yul\":1318:1336   */\n      tag_39\n      tag_20\n      jump\t// in\n    tag_39:\n        /* \"#utility.yul\":1302:1338   */\n    tag_38:\n        /* \"#utility.yul\":1154:1345   */\n      swap3\n      swap2\n      pop\n      pop\n      jump\t// out\n\n    auxdata: 0xa26469706673582212209a33e6a992bc9c89bbc17db2f3fe0009bac4f3fcb1b68cd63647f4315d9b101264736f6c63430008120033\n}\n",
				"bytecode": {
					"linkReferences": {},
					"object": "60806040526002600055600760015534801561001a57600080fd5b506101d28061002a6000396000f3fe608060405234801561001057600080fd5b50600436106100365760003560e01c80634717f97c1461003b578063de2927891461005a575b600080fd5b610043610079565b6040516100519291906100ce565b60405180910390f35b6100626100a4565b6040516100709291906100ce565b60405180910390f35b60008060015460005461008c9190610126565b915060015460005461009e9190610168565b90509091565b600080600054600154915091509091565b6000819050919050565b6100c8816100b5565b82525050565b60006040820190506100e360008301856100bf565b6100f060208301846100bf565b9392505050565b7f4e487b7100000000000000000000000000000000000000000000000000000000600052601160045260246000fd5b6000610131826100b5565b915061013c836100b5565b925082820261014a816100b5565b91508282048414831517610161576101606100f7565b5b5092915050565b6000610173826100b5565b915061017e836100b5565b9250828201905080821115610196576101956100f7565b5b9291505056fea26469706673582212209a33e6a992bc9c89bbc17db2f3fe0009bac4f3fcb1b68cd63647f4315d9b101264736f6c63430008120033",
					"opcodes": "PUSH1 0x80 PUSH1 0x40 MSTORE PUSH1 0x2 PUSH1 0x0 SSTORE PUSH1 0x7 PUSH1 0x1 SSTORE CALLVALUE DUP1 ISZERO PUSH2 0x1A JUMPI PUSH1 0x0 DUP1 REVERT JUMPDEST POP PUSH2 0x1D2 DUP1 PUSH2 0x2A PUSH1 0x0 CODECOPY PUSH1 0x0 RETURN INVALID PUSH1 0x80 PUSH1 0x40 MSTORE CALLVALUE DUP1 ISZERO PUSH2 0x10 JUMPI PUSH1 0x0 DUP1 REVERT JUMPDEST POP PUSH1 0x4 CALLDATASIZE LT PUSH2 0x36 JUMPI PUSH1 0x0 CALLDATALOAD PUSH1 0xE0 SHR DUP1 PUSH4 0x4717F97C EQ PUSH2 0x3B JUMPI DUP1 PUSH4 0xDE292789 EQ PUSH2 0x5A JUMPI JUMPDEST PUSH1 0x0 DUP1 REVERT JUMPDEST PUSH2 0x43 PUSH2 0x79 JUMP JUMPDEST PUSH1 0x40 MLOAD PUSH2 0x51 SWAP3 SWAP2 SWAP1 PUSH2 0xCE JUMP JUMPDEST PUSH1 0x40 MLOAD DUP1 SWAP2 SUB SWAP1 RETURN JUMPDEST PUSH2 0x62 PUSH2 0xA4 JUMP JUMPDEST PUSH1 0x40 MLOAD PUSH2 0x70 SWAP3 SWAP2 SWAP1 PUSH2 0xCE JUMP JUMPDEST PUSH1 0x40 MLOAD DUP1 SWAP2 SUB SWAP1 RETURN JUMPDEST PUSH1 0x0 DUP1 PUSH1 0x1 SLOAD PUSH1 0x0 SLOAD PUSH2 0x8C SWAP2 SWAP1 PUSH2 0x126 JUMP JUMPDEST SWAP2 POP PUSH1 0x1 SLOAD PUSH1 0x0 SLOAD PUSH2 0x9E SWAP2 SWAP1 PUSH2 0x168 JUMP JUMPDEST SWAP1 POP SWAP1 SWAP2 JUMP JUMPDEST PUSH1 0x0 DUP1 PUSH1 0x0 SLOAD PUSH1 0x1 SLOAD SWAP2 POP SWAP2 POP SWAP1 SWAP2 JUMP JUMPDEST PUSH1 0x0 DUP2 SWAP1 POP SWAP2 SWAP1 POP JUMP JUMPDEST PUSH2 0xC8 DUP2 PUSH2 0xB5 JUMP JUMPDEST DUP3 MSTORE POP POP JUMP JUMPDEST PUSH1 0x0 PUSH1 0x40 DUP3 ADD SWAP1 POP PUSH2 0xE3 PUSH1 0x0 DUP4 ADD DUP6 PUSH2 0xBF JUMP JUMPDEST PUSH2 0xF0 PUSH1 0x20 DUP4 ADD DUP5 PUSH2 0xBF JUMP JUMPDEST SWAP4 SWAP3 POP POP POP JUMP JUMPDEST PUSH32 0x4E487B7100000000000000000000000000000000000000000000000000000000 PUSH1 0x0 MSTORE PUSH1 0x11 PUSH1 0x4 MSTORE PUSH1 0x24 PUSH1 0x0 REVERT JUMPDEST PUSH1 0x0 PUSH2 0x131 DUP3 PUSH2 0xB5 JUMP JUMPDEST SWAP2 POP PUSH2 0x13C DUP4 PUSH2 0xB5 JUMP JUMPDEST SWAP3 POP DUP3 DUP3 MUL PUSH2 0x14A DUP2 PUSH2 0xB5 JUMP JUMPDEST SWAP2 POP DUP3 DUP3 DIV DUP5 EQ DUP4 ISZERO OR PUSH2 0x161 JUMPI PUSH2 0x160 PUSH2 0xF7 JUMP JUMPDEST JUMPDEST POP SWAP3 SWAP2 POP POP JUMP JUMPDEST PUSH1 0x0 PUSH2 0x173 DUP3 PUSH2 0xB5 JUMP JUMPDEST SWAP2 POP PUSH2 0x17E DUP4 PUSH2 0xB5 JUMP JUMPDEST SWAP3 POP DUP3 DUP3 ADD SWAP1 POP DUP1 DUP3 GT ISZERO PUSH2 0x196 JUMPI PUSH2 0x195 PUSH2 0xF7 JUMP JUMPDEST JUMPDEST SWAP3 SWAP2 POP POP JUMP INVALID LOG2 PUSH5 0x6970667358 0x22 SLT KECCAK256 SWAP11 CALLER 0xE6 0xA9 SWAP3 0xBC SWAP13 DUP10 0xBB 0xC1 PUSH30 0xB2F3FE0009BAC4F3FCB1B68CD63647F4315D9B101264736F6C6343000812 STOP CALLER "
				},
				"gasEstimates": {
					"creation": {
						"codeDepositCost": "93200",
						"executionCost": "44353",
						"totalCost": "137553"
					},
					"external": {
						"getResult()": "infinite",
						"getResults()": "infinite"
					}
				},
				"methodIdentifiers": {
					"getResult()": "de292789",
					"getResults()": "4717f97c"
				}
			},
			"storageLayout": {
				"storage": [
					{
						"astId": 4,
						"contract": "contracts/ViewPure.sol:View",
						"label": "num1",
						"offset": 0,
						"slot": "0",
						"type": "t_uint256"
					},
					{
						"astId": 7,
						"contract": "contracts/ViewPure.sol:View",
						"label": "num2",
						"offset": 0,
						"slot": "1",
						"type": "t_uint256"
					}
				],
				"types": {
					"t_uint256": {
						"encoding": "inplace",
						"label": "uint256",
						"numberOfBytes": "32"
					}
				}
			},
			"userdoc": {
				"kind": "user",
				"methods": {},
				"version": 1
			}
		}
	}
}