{
	"contracts/3_Ballot.sol": {
		"Lottery": {
			"abi": [
				{
					"inputs": [],
					"stateMutability": "nonpayable",
					"type": "constructor"
				},
				{
					"inputs": [],
					"name": "getBalance",
					"outputs": [
						{
							"internalType": "uint256",
							"name": "",
							"type": "uint256"
						}
					],
					"stateMutability": "view",
					"type": "function"
				},
				{
					"inputs": [],
					"name": "getRandomAddress",
					"outputs": [
						{
							"internalType": "uint256",
							"name": "",
							"type": "uint256"
						}
					],
					"stateMutability": "view",
					"type": "function"
				},
				{
					"inputs": [],
					"name": "manager",
					"outputs": [
						{
							"internalType": "address",
							"name": "",
							"type": "address"
						}
					],
					"stateMutability": "view",
					"type": "function"
				},
				{
					"inputs": [
						{
							"internalType": "uint256",
							"name": "",
							"type": "uint256"
						}
					],
					"name": "participants",
					"outputs": [
						{
							"internalType": "address payable",
							"name": "",
							"type": "address"
						}
					],
					"stateMutability": "view",
					"type": "function"
				},
				{
					"inputs": [],
					"name": "selectWinner",
					"outputs": [
						{
							"internalType": "address",
							"name": "",
							"type": "address"
						}
					],
					"stateMutability": "view",
					"type": "function"
				},
				{
					"stateMutability": "payable",
					"type": "receive"
				}
			],
			"devdoc": {
				"details": "Implements voting process along with vote delegation",
				"kind": "dev",
				"methods": {},
				"title": "Ballot",
				"version": 1
			},
			"evm": {
				"assembly": "    /* \"contracts/3_Ballot.sol\":157:1135  contract Lottery {... */\n  mstore(0x40, 0x80)\n    /* \"contracts/3_Ballot.sol\":258:333  constructor() ... */\n  callvalue\n  dup1\n  iszero\n  tag_1\n  jumpi\n  0x00\n  dup1\n  revert\ntag_1:\n  pop\n    /* \"contracts/3_Ballot.sol\":297:307  msg.sender */\n  caller\n    /* \"contracts/3_Ballot.sol\":287:294  manager */\n  0x00\n  dup1\n    /* \"contracts/3_Ballot.sol\":287:307  manager = msg.sender */\n  0x0100\n  exp\n  dup2\n  sload\n  dup2\n  0xffffffffffffffffffffffffffffffffffffffff\n  mul\n  not\n  and\n  swap1\n  dup4\n  0xffffffffffffffffffffffffffffffffffffffff\n  and\n  mul\n  or\n  swap1\n  sstore\n  pop\n    /* \"contracts/3_Ballot.sol\":157:1135  contract Lottery {... */\n  dataSize(sub_0)\n  dup1\n  dataOffset(sub_0)\n  0x00\n  codecopy\n  0x00\n  return\nstop\n\nsub_0: assembly {\n        /* \"contracts/3_Ballot.sol\":157:1135  contract Lottery {... */\n      mstore(0x40, 0x80)\n      jumpi(tag_1, lt(calldatasize, 0x04))\n      shr(0xe0, calldataload(0x00))\n      dup1\n      0x12065fe0\n      eq\n      tag_3\n      jumpi\n      dup1\n      0x33a99e04\n      eq\n      tag_4\n      jumpi\n      dup1\n      0x35c1d349\n      eq\n      tag_5\n      jumpi\n      dup1\n      0x481c6a75\n      eq\n      tag_6\n      jumpi\n      dup1\n      0xedd0eb06\n      eq\n      tag_7\n      jumpi\n      jump(tag_2)\n    tag_1:\n      jumpi(tag_2, calldatasize)\n        /* \"contracts/3_Ballot.sol\":403:410  2 ether */\n      0x1bc16d674ec80000\n        /* \"contracts/3_Ballot.sol\":390:399  msg.value */\n      callvalue\n        /* \"contracts/3_Ballot.sol\":390:410  msg.value == 2 ether */\n      eq\n        /* \"contracts/3_Ballot.sol\":382:450  require(msg.value == 2 ether, \"Minimum amount is less than 2 ether\") */\n      tag_10\n      jumpi\n      mload(0x40)\n      0x08c379a000000000000000000000000000000000000000000000000000000000\n      dup2\n      mstore\n      0x04\n      add\n      tag_11\n      swap1\n      tag_12\n      jump\t// in\n    tag_11:\n      mload(0x40)\n      dup1\n      swap2\n      sub\n      swap1\n      revert\n    tag_10:\n        /* \"contracts/3_Ballot.sol\":460:472  participants */\n      0x01\n        /* \"contracts/3_Ballot.sol\":487:497  msg.sender */\n      caller\n        /* \"contracts/3_Ballot.sol\":460:499  participants.push(payable (msg.sender)) */\n      swap1\n      dup1\n      0x01\n      dup2\n      sload\n      add\n      dup1\n      dup3\n      sstore\n      dup1\n      swap2\n      pop\n      pop\n      0x01\n      swap1\n      sub\n      swap1\n      0x00\n      mstore\n      keccak256(0x00, 0x20)\n      add\n      0x00\n      swap1\n      swap2\n      swap1\n      swap2\n      swap1\n      swap2\n      0x0100\n      exp\n      dup2\n      sload\n      dup2\n      0xffffffffffffffffffffffffffffffffffffffff\n      mul\n      not\n      and\n      swap1\n      dup4\n      0xffffffffffffffffffffffffffffffffffffffff\n      and\n      mul\n      or\n      swap1\n      sstore\n      stop\n        /* \"contracts/3_Ballot.sol\":157:1135  contract Lottery {... */\n    tag_2:\n      0x00\n      dup1\n      revert\n        /* \"contracts/3_Ballot.sol\":512:677  function getBalance() public view returns(uint) ... */\n    tag_3:\n      callvalue\n      dup1\n      iszero\n      tag_14\n      jumpi\n      0x00\n      dup1\n      revert\n    tag_14:\n      pop\n      tag_15\n      tag_16\n      jump\t// in\n    tag_15:\n      mload(0x40)\n      tag_17\n      swap2\n      swap1\n      tag_18\n      jump\t// in\n    tag_17:\n      mload(0x40)\n      dup1\n      swap2\n      sub\n      swap1\n      return\n        /* \"contracts/3_Ballot.sol\":861:1133  function selectWinner() public view returns(address) ... */\n    tag_4:\n      callvalue\n      dup1\n      iszero\n      tag_19\n      jumpi\n      0x00\n      dup1\n      revert\n    tag_19:\n      pop\n      tag_20\n      tag_21\n      jump\t// in\n    tag_20:\n      mload(0x40)\n      tag_22\n      swap2\n      swap1\n      tag_23\n      jump\t// in\n    tag_22:\n      mload(0x40)\n      dup1\n      swap2\n      sub\n      swap1\n      return\n        /* \"contracts/3_Ballot.sol\":209:247  address payable [] public participants */\n    tag_5:\n      callvalue\n      dup1\n      iszero\n      tag_24\n      jumpi\n      0x00\n      dup1\n      revert\n    tag_24:\n      pop\n      tag_25\n      0x04\n      dup1\n      calldatasize\n      sub\n      dup2\n      add\n      swap1\n      tag_26\n      swap2\n      swap1\n      tag_27\n      jump\t// in\n    tag_26:\n      tag_28\n      jump\t// in\n    tag_25:\n      mload(0x40)\n      tag_29\n      swap2\n      swap1\n      tag_30\n      jump\t// in\n    tag_29:\n      mload(0x40)\n      dup1\n      swap2\n      sub\n      swap1\n      return\n        /* \"contracts/3_Ballot.sol\":181:203  address public manager */\n    tag_6:\n      callvalue\n      dup1\n      iszero\n      tag_31\n      jumpi\n      0x00\n      dup1\n      revert\n    tag_31:\n      pop\n      tag_32\n      tag_33\n      jump\t// in\n    tag_32:\n      mload(0x40)\n      tag_34\n      swap2\n      swap1\n      tag_23\n      jump\t// in\n    tag_34:\n      mload(0x40)\n      dup1\n      swap2\n      sub\n      swap1\n      return\n        /* \"contracts/3_Ballot.sol\":683:855  function getRandomAddress() public view returns(uint) ... */\n    tag_7:\n      callvalue\n      dup1\n      iszero\n      tag_35\n      jumpi\n      0x00\n      dup1\n      revert\n    tag_35:\n      pop\n      tag_36\n      tag_37\n      jump\t// in\n    tag_36:\n      mload(0x40)\n      tag_38\n      swap2\n      swap1\n      tag_18\n      jump\t// in\n    tag_38:\n      mload(0x40)\n      dup1\n      swap2\n      sub\n      swap1\n      return\n        /* \"contracts/3_Ballot.sol\":512:677  function getBalance() public view returns(uint) ... */\n    tag_16:\n        /* \"contracts/3_Ballot.sol\":554:558  uint */\n      0x00\n        /* \"contracts/3_Ballot.sol\":597:604  manager */\n      dup1\n      0x00\n      swap1\n      sload\n      swap1\n      0x0100\n      exp\n      swap1\n      div\n      0xffffffffffffffffffffffffffffffffffffffff\n      and\n        /* \"contracts/3_Ballot.sol\":583:604  msg.sender == manager */\n      0xffffffffffffffffffffffffffffffffffffffff\n      and\n        /* \"contracts/3_Ballot.sol\":583:593  msg.sender */\n      caller\n        /* \"contracts/3_Ballot.sol\":583:604  msg.sender == manager */\n      0xffffffffffffffffffffffffffffffffffffffff\n      and\n      eq\n        /* \"contracts/3_Ballot.sol\":575:632  require(msg.sender == manager, \"You are not the manager\") */\n      tag_40\n      jumpi\n      mload(0x40)\n      0x08c379a000000000000000000000000000000000000000000000000000000000\n      dup2\n      mstore\n      0x04\n      add\n      tag_41\n      swap1\n      tag_42\n      jump\t// in\n    tag_41:\n      mload(0x40)\n      dup1\n      swap2\n      sub\n      swap1\n      revert\n    tag_40:\n        /* \"contracts/3_Ballot.sol\":649:670  address(this).balance */\n      selfbalance\n        /* \"contracts/3_Ballot.sol\":642:670  return address(this).balance */\n      swap1\n      pop\n        /* \"contracts/3_Ballot.sol\":512:677  function getBalance() public view returns(uint) ... */\n      swap1\n      jump\t// out\n        /* \"contracts/3_Ballot.sol\":861:1133  function selectWinner() public view returns(address) ... */\n    tag_21:\n        /* \"contracts/3_Ballot.sol\":905:912  address */\n      0x00\n        /* \"contracts/3_Ballot.sol\":951:958  manager */\n      dup1\n      0x00\n      swap1\n      sload\n      swap1\n      0x0100\n      exp\n      swap1\n      div\n      0xffffffffffffffffffffffffffffffffffffffff\n      and\n        /* \"contracts/3_Ballot.sol\":937:958  msg.sender == manager */\n      0xffffffffffffffffffffffffffffffffffffffff\n      and\n        /* \"contracts/3_Ballot.sol\":937:947  msg.sender */\n      caller\n        /* \"contracts/3_Ballot.sol\":937:958  msg.sender == manager */\n      0xffffffffffffffffffffffffffffffffffffffff\n      and\n      eq\n        /* \"contracts/3_Ballot.sol\":929:1000  require(msg.sender == manager, \"Only manager can select random winner\") */\n      tag_44\n      jumpi\n      mload(0x40)\n      0x08c379a000000000000000000000000000000000000000000000000000000000\n      dup2\n      mstore\n      0x04\n      add\n      tag_45\n      swap1\n      tag_46\n      jump\t// in\n    tag_45:\n      mload(0x40)\n      dup1\n      swap2\n      sub\n      swap1\n      revert\n    tag_44:\n        /* \"contracts/3_Ballot.sol\":1041:1042  3 */\n      0x03\n        /* \"contracts/3_Ballot.sol\":1018:1030  participants */\n      0x01\n        /* \"contracts/3_Ballot.sol\":1018:1037  participants.length */\n      dup1\n      sload\n      swap1\n      pop\n        /* \"contracts/3_Ballot.sol\":1018:1042  participants.length >= 3 */\n      lt\n      iszero\n        /* \"contracts/3_Ballot.sol\":1010:1043  require(participants.length >= 3) */\n      tag_47\n      jumpi\n      0x00\n      dup1\n      revert\n    tag_47:\n        /* \"contracts/3_Ballot.sol\":1053:1059  uint r */\n      0x00\n        /* \"contracts/3_Ballot.sol\":1062:1080  getRandomAddress() */\n      tag_48\n        /* \"contracts/3_Ballot.sol\":1062:1078  getRandomAddress */\n      tag_37\n        /* \"contracts/3_Ballot.sol\":1062:1080  getRandomAddress() */\n      jump\t// in\n    tag_48:\n        /* \"contracts/3_Ballot.sol\":1053:1080  uint r = getRandomAddress() */\n      swap1\n      pop\n        /* \"contracts/3_Ballot.sol\":1090:1100  uint index */\n      0x00\n        /* \"contracts/3_Ballot.sol\":1107:1119  participants */\n      0x01\n        /* \"contracts/3_Ballot.sol\":1107:1126  participants.length */\n      dup1\n      sload\n      swap1\n      pop\n        /* \"contracts/3_Ballot.sol\":1103:1104  r */\n      dup3\n        /* \"contracts/3_Ballot.sol\":1103:1126  r % participants.length */\n      tag_49\n      swap2\n      swap1\n      tag_50\n      jump\t// in\n    tag_49:\n        /* \"contracts/3_Ballot.sol\":1090:1126  uint index = r % participants.length */\n      swap1\n      pop\n        /* \"contracts/3_Ballot.sol\":919:1133  {... */\n      pop\n      pop\n        /* \"contracts/3_Ballot.sol\":861:1133  function selectWinner() public view returns(address) ... */\n      swap1\n      jump\t// out\n        /* \"contracts/3_Ballot.sol\":209:247  address payable [] public participants */\n    tag_28:\n      0x01\n      dup2\n      dup2\n      sload\n      dup2\n      lt\n      tag_51\n      jumpi\n      0x00\n      dup1\n      revert\n    tag_51:\n      swap1\n      0x00\n      mstore\n      keccak256(0x00, 0x20)\n      add\n      0x00\n      swap2\n      pop\n      sload\n      swap1\n      0x0100\n      exp\n      swap1\n      div\n      0xffffffffffffffffffffffffffffffffffffffff\n      and\n      dup2\n      jump\t// out\n        /* \"contracts/3_Ballot.sol\":181:203  address public manager */\n    tag_33:\n      0x00\n      dup1\n      sload\n      swap1\n      0x0100\n      exp\n      swap1\n      div\n      0xffffffffffffffffffffffffffffffffffffffff\n      and\n      dup2\n      jump\t// out\n        /* \"contracts/3_Ballot.sol\":683:855  function getRandomAddress() public view returns(uint) ... */\n    tag_37:\n        /* \"contracts/3_Ballot.sol\":731:735  uint */\n      0x00\n        /* \"contracts/3_Ballot.sol\":791:807  block.difficulty */\n      prevrandao\n        /* \"contracts/3_Ballot.sol\":809:824  block.timestamp */\n      timestamp\n        /* \"contracts/3_Ballot.sol\":826:838  participants */\n      0x01\n        /* \"contracts/3_Ballot.sol\":826:845  participants.length */\n      dup1\n      sload\n      swap1\n      pop\n        /* \"contracts/3_Ballot.sol\":774:846  abi.encodePacked(block.difficulty, block.timestamp, participants.length) */\n      add(0x20, mload(0x40))\n      tag_54\n      swap4\n      swap3\n      swap2\n      swap1\n      tag_55\n      jump\t// in\n    tag_54:\n      mload(0x40)\n      0x20\n      dup2\n      dup4\n      sub\n      sub\n      dup2\n      mstore\n      swap1\n      0x40\n      mstore\n        /* \"contracts/3_Ballot.sol\":764:847  keccak256(abi.encodePacked(block.difficulty, block.timestamp, participants.length)) */\n      dup1\n      mload\n      swap1\n      0x20\n      add\n      keccak256\n        /* \"contracts/3_Ballot.sol\":759:848  uint(keccak256(abi.encodePacked(block.difficulty, block.timestamp, participants.length))) */\n      0x00\n      shr\n        /* \"contracts/3_Ballot.sol\":752:848  return uint(keccak256(abi.encodePacked(block.difficulty, block.timestamp, participants.length))) */\n      swap1\n      pop\n        /* \"contracts/3_Ballot.sol\":683:855  function getRandomAddress() public view returns(uint) ... */\n      swap1\n      jump\t// out\n        /* \"#utility.yul\":7:176   */\n    tag_56:\n        /* \"#utility.yul\":91:102   */\n      0x00\n        /* \"#utility.yul\":125:131   */\n      dup3\n        /* \"#utility.yul\":120:123   */\n      dup3\n        /* \"#utility.yul\":113:132   */\n      mstore\n        /* \"#utility.yul\":165:169   */\n      0x20\n        /* \"#utility.yul\":160:163   */\n      dup3\n        /* \"#utility.yul\":156:170   */\n      add\n        /* \"#utility.yul\":141:170   */\n      swap1\n      pop\n        /* \"#utility.yul\":7:176   */\n      swap3\n      swap2\n      pop\n      pop\n      jump\t// out\n        /* \"#utility.yul\":182:404   */\n    tag_57:\n        /* \"#utility.yul\":322:356   */\n      0x4d696e696d756d20616d6f756e74206973206c657373207468616e2032206574\n        /* \"#utility.yul\":318:319   */\n      0x00\n        /* \"#utility.yul\":310:316   */\n      dup3\n        /* \"#utility.yul\":306:320   */\n      add\n        /* \"#utility.yul\":299:357   */\n      mstore\n        /* \"#utility.yul\":391:396   */\n      0x6865720000000000000000000000000000000000000000000000000000000000\n        /* \"#utility.yul\":386:388   */\n      0x20\n        /* \"#utility.yul\":378:384   */\n      dup3\n        /* \"#utility.yul\":374:389   */\n      add\n        /* \"#utility.yul\":367:397   */\n      mstore\n        /* \"#utility.yul\":182:404   */\n      pop\n      jump\t// out\n        /* \"#utility.yul\":410:776   */\n    tag_58:\n        /* \"#utility.yul\":552:555   */\n      0x00\n        /* \"#utility.yul\":573:640   */\n      tag_82\n        /* \"#utility.yul\":637:639   */\n      0x23\n        /* \"#utility.yul\":632:635   */\n      dup4\n        /* \"#utility.yul\":573:640   */\n      tag_56\n      jump\t// in\n    tag_82:\n        /* \"#utility.yul\":566:640   */\n      swap2\n      pop\n        /* \"#utility.yul\":649:742   */\n      tag_83\n        /* \"#utility.yul\":738:741   */\n      dup3\n        /* \"#utility.yul\":649:742   */\n      tag_57\n      jump\t// in\n    tag_83:\n        /* \"#utility.yul\":767:769   */\n      0x40\n        /* \"#utility.yul\":762:765   */\n      dup3\n        /* \"#utility.yul\":758:770   */\n      add\n        /* \"#utility.yul\":751:770   */\n      swap1\n      pop\n        /* \"#utility.yul\":410:776   */\n      swap2\n      swap1\n      pop\n      jump\t// out\n        /* \"#utility.yul\":782:1201   */\n    tag_12:\n        /* \"#utility.yul\":948:952   */\n      0x00\n        /* \"#utility.yul\":986:988   */\n      0x20\n        /* \"#utility.yul\":975:984   */\n      dup3\n        /* \"#utility.yul\":971:989   */\n      add\n        /* \"#utility.yul\":963:989   */\n      swap1\n      pop\n        /* \"#utility.yul\":1035:1044   */\n      dup2\n        /* \"#utility.yul\":1029:1033   */\n      dup2\n        /* \"#utility.yul\":1025:1045   */\n      sub\n        /* \"#utility.yul\":1021:1022   */\n      0x00\n        /* \"#utility.yul\":1010:1019   */\n      dup4\n        /* \"#utility.yul\":1006:1023   */\n      add\n        /* \"#utility.yul\":999:1046   */\n      mstore\n        /* \"#utility.yul\":1063:1194   */\n      tag_85\n        /* \"#utility.yul\":1189:1193   */\n      dup2\n        /* \"#utility.yul\":1063:1194   */\n      tag_58\n      jump\t// in\n    tag_85:\n        /* \"#utility.yul\":1055:1194   */\n      swap1\n      pop\n        /* \"#utility.yul\":782:1201   */\n      swap2\n      swap1\n      pop\n      jump\t// out\n        /* \"#utility.yul\":1207:1284   */\n    tag_59:\n        /* \"#utility.yul\":1244:1251   */\n      0x00\n        /* \"#utility.yul\":1273:1278   */\n      dup2\n        /* \"#utility.yul\":1262:1278   */\n      swap1\n      pop\n        /* \"#utility.yul\":1207:1284   */\n      swap2\n      swap1\n      pop\n      jump\t// out\n        /* \"#utility.yul\":1290:1408   */\n    tag_60:\n        /* \"#utility.yul\":1377:1401   */\n      tag_88\n        /* \"#utility.yul\":1395:1400   */\n      dup2\n        /* \"#utility.yul\":1377:1401   */\n      tag_59\n      jump\t// in\n    tag_88:\n        /* \"#utility.yul\":1372:1375   */\n      dup3\n        /* \"#utility.yul\":1365:1402   */\n      mstore\n        /* \"#utility.yul\":1290:1408   */\n      pop\n      pop\n      jump\t// out\n        /* \"#utility.yul\":1414:1636   */\n    tag_18:\n        /* \"#utility.yul\":1507:1511   */\n      0x00\n        /* \"#utility.yul\":1545:1547   */\n      0x20\n        /* \"#utility.yul\":1534:1543   */\n      dup3\n        /* \"#utility.yul\":1530:1548   */\n      add\n        /* \"#utility.yul\":1522:1548   */\n      swap1\n      pop\n        /* \"#utility.yul\":1558:1629   */\n      tag_90\n        /* \"#utility.yul\":1626:1627   */\n      0x00\n        /* \"#utility.yul\":1615:1624   */\n      dup4\n        /* \"#utility.yul\":1611:1628   */\n      add\n        /* \"#utility.yul\":1602:1608   */\n      dup5\n        /* \"#utility.yul\":1558:1629   */\n      tag_60\n      jump\t// in\n    tag_90:\n        /* \"#utility.yul\":1414:1636   */\n      swap3\n      swap2\n      pop\n      pop\n      jump\t// out\n        /* \"#utility.yul\":1642:1768   */\n    tag_61:\n        /* \"#utility.yul\":1679:1686   */\n      0x00\n        /* \"#utility.yul\":1719:1761   */\n      0xffffffffffffffffffffffffffffffffffffffff\n        /* \"#utility.yul\":1712:1717   */\n      dup3\n        /* \"#utility.yul\":1708:1762   */\n      and\n        /* \"#utility.yul\":1697:1762   */\n      swap1\n      pop\n        /* \"#utility.yul\":1642:1768   */\n      swap2\n      swap1\n      pop\n      jump\t// out\n        /* \"#utility.yul\":1774:1870   */\n    tag_62:\n        /* \"#utility.yul\":1811:1818   */\n      0x00\n        /* \"#utility.yul\":1840:1864   */\n      tag_93\n        /* \"#utility.yul\":1858:1863   */\n      dup3\n        /* \"#utility.yul\":1840:1864   */\n      tag_61\n      jump\t// in\n    tag_93:\n        /* \"#utility.yul\":1829:1864   */\n      swap1\n      pop\n        /* \"#utility.yul\":1774:1870   */\n      swap2\n      swap1\n      pop\n      jump\t// out\n        /* \"#utility.yul\":1876:1994   */\n    tag_63:\n        /* \"#utility.yul\":1963:1987   */\n      tag_95\n        /* \"#utility.yul\":1981:1986   */\n      dup2\n        /* \"#utility.yul\":1963:1987   */\n      tag_62\n      jump\t// in\n    tag_95:\n        /* \"#utility.yul\":1958:1961   */\n      dup3\n        /* \"#utility.yul\":1951:1988   */\n      mstore\n        /* \"#utility.yul\":1876:1994   */\n      pop\n      pop\n      jump\t// out\n        /* \"#utility.yul\":2000:2222   */\n    tag_23:\n        /* \"#utility.yul\":2093:2097   */\n      0x00\n        /* \"#utility.yul\":2131:2133   */\n      0x20\n        /* \"#utility.yul\":2120:2129   */\n      dup3\n        /* \"#utility.yul\":2116:2134   */\n      add\n        /* \"#utility.yul\":2108:2134   */\n      swap1\n      pop\n        /* \"#utility.yul\":2144:2215   */\n      tag_97\n        /* \"#utility.yul\":2212:2213   */\n      0x00\n        /* \"#utility.yul\":2201:2210   */\n      dup4\n        /* \"#utility.yul\":2197:2214   */\n      add\n        /* \"#utility.yul\":2188:2194   */\n      dup5\n        /* \"#utility.yul\":2144:2215   */\n      tag_63\n      jump\t// in\n    tag_97:\n        /* \"#utility.yul\":2000:2222   */\n      swap3\n      swap2\n      pop\n      pop\n      jump\t// out\n        /* \"#utility.yul\":2309:2426   */\n    tag_65:\n        /* \"#utility.yul\":2418:2419   */\n      0x00\n        /* \"#utility.yul\":2415:2416   */\n      dup1\n        /* \"#utility.yul\":2408:2420   */\n      revert\n        /* \"#utility.yul\":2555:2677   */\n    tag_67:\n        /* \"#utility.yul\":2628:2652   */\n      tag_102\n        /* \"#utility.yul\":2646:2651   */\n      dup2\n        /* \"#utility.yul\":2628:2652   */\n      tag_59\n      jump\t// in\n    tag_102:\n        /* \"#utility.yul\":2621:2626   */\n      dup2\n        /* \"#utility.yul\":2618:2653   */\n      eq\n        /* \"#utility.yul\":2608:2671   */\n      tag_103\n      jumpi\n        /* \"#utility.yul\":2667:2668   */\n      0x00\n        /* \"#utility.yul\":2664:2665   */\n      dup1\n        /* \"#utility.yul\":2657:2669   */\n      revert\n        /* \"#utility.yul\":2608:2671   */\n    tag_103:\n        /* \"#utility.yul\":2555:2677   */\n      pop\n      jump\t// out\n        /* \"#utility.yul\":2683:2822   */\n    tag_68:\n        /* \"#utility.yul\":2729:2734   */\n      0x00\n        /* \"#utility.yul\":2767:2773   */\n      dup2\n        /* \"#utility.yul\":2754:2774   */\n      calldataload\n        /* \"#utility.yul\":2745:2774   */\n      swap1\n      pop\n        /* \"#utility.yul\":2783:2816   */\n      tag_105\n        /* \"#utility.yul\":2810:2815   */\n      dup2\n        /* \"#utility.yul\":2783:2816   */\n      tag_67\n      jump\t// in\n    tag_105:\n        /* \"#utility.yul\":2683:2822   */\n      swap3\n      swap2\n      pop\n      pop\n      jump\t// out\n        /* \"#utility.yul\":2828:3157   */\n    tag_27:\n        /* \"#utility.yul\":2887:2893   */\n      0x00\n        /* \"#utility.yul\":2936:2938   */\n      0x20\n        /* \"#utility.yul\":2924:2933   */\n      dup3\n        /* \"#utility.yul\":2915:2922   */\n      dup5\n        /* \"#utility.yul\":2911:2934   */\n      sub\n        /* \"#utility.yul\":2907:2939   */\n      slt\n        /* \"#utility.yul\":2904:3023   */\n      iszero\n      tag_107\n      jumpi\n        /* \"#utility.yul\":2942:3021   */\n      tag_108\n      tag_65\n      jump\t// in\n    tag_108:\n        /* \"#utility.yul\":2904:3023   */\n    tag_107:\n        /* \"#utility.yul\":3062:3063   */\n      0x00\n        /* \"#utility.yul\":3087:3140   */\n      tag_109\n        /* \"#utility.yul\":3132:3139   */\n      dup5\n        /* \"#utility.yul\":3123:3129   */\n      dup3\n        /* \"#utility.yul\":3112:3121   */\n      dup6\n        /* \"#utility.yul\":3108:3130   */\n      add\n        /* \"#utility.yul\":3087:3140   */\n      tag_68\n      jump\t// in\n    tag_109:\n        /* \"#utility.yul\":3077:3140   */\n      swap2\n      pop\n        /* \"#utility.yul\":3033:3150   */\n      pop\n        /* \"#utility.yul\":2828:3157   */\n      swap3\n      swap2\n      pop\n      pop\n      jump\t// out\n        /* \"#utility.yul\":3163:3267   */\n    tag_69:\n        /* \"#utility.yul\":3208:3215   */\n      0x00\n        /* \"#utility.yul\":3237:3261   */\n      tag_111\n        /* \"#utility.yul\":3255:3260   */\n      dup3\n        /* \"#utility.yul\":3237:3261   */\n      tag_61\n      jump\t// in\n    tag_111:\n        /* \"#utility.yul\":3226:3261   */\n      swap1\n      pop\n        /* \"#utility.yul\":3163:3267   */\n      swap2\n      swap1\n      pop\n      jump\t// out\n        /* \"#utility.yul\":3273:3415   */\n    tag_70:\n        /* \"#utility.yul\":3376:3408   */\n      tag_113\n        /* \"#utility.yul\":3402:3407   */\n      dup2\n        /* \"#utility.yul\":3376:3408   */\n      tag_69\n      jump\t// in\n    tag_113:\n        /* \"#utility.yul\":3371:3374   */\n      dup3\n        /* \"#utility.yul\":3364:3409   */\n      mstore\n        /* \"#utility.yul\":3273:3415   */\n      pop\n      pop\n      jump\t// out\n        /* \"#utility.yul\":3421:3675   */\n    tag_30:\n        /* \"#utility.yul\":3530:3534   */\n      0x00\n        /* \"#utility.yul\":3568:3570   */\n      0x20\n        /* \"#utility.yul\":3557:3566   */\n      dup3\n        /* \"#utility.yul\":3553:3571   */\n      add\n        /* \"#utility.yul\":3545:3571   */\n      swap1\n      pop\n        /* \"#utility.yul\":3581:3668   */\n      tag_115\n        /* \"#utility.yul\":3665:3666   */\n      0x00\n        /* \"#utility.yul\":3654:3663   */\n      dup4\n        /* \"#utility.yul\":3650:3667   */\n      add\n        /* \"#utility.yul\":3641:3647   */\n      dup5\n        /* \"#utility.yul\":3581:3668   */\n      tag_70\n      jump\t// in\n    tag_115:\n        /* \"#utility.yul\":3421:3675   */\n      swap3\n      swap2\n      pop\n      pop\n      jump\t// out\n        /* \"#utility.yul\":3681:3854   */\n    tag_71:\n        /* \"#utility.yul\":3821:3846   */\n      0x596f7520617265206e6f7420746865206d616e61676572000000000000000000\n        /* \"#utility.yul\":3817:3818   */\n      0x00\n        /* \"#utility.yul\":3809:3815   */\n      dup3\n        /* \"#utility.yul\":3805:3819   */\n      add\n        /* \"#utility.yul\":3798:3847   */\n      mstore\n        /* \"#utility.yul\":3681:3854   */\n      pop\n      jump\t// out\n        /* \"#utility.yul\":3860:4226   */\n    tag_72:\n        /* \"#utility.yul\":4002:4005   */\n      0x00\n        /* \"#utility.yul\":4023:4090   */\n      tag_118\n        /* \"#utility.yul\":4087:4089   */\n      0x17\n        /* \"#utility.yul\":4082:4085   */\n      dup4\n        /* \"#utility.yul\":4023:4090   */\n      tag_56\n      jump\t// in\n    tag_118:\n        /* \"#utility.yul\":4016:4090   */\n      swap2\n      pop\n        /* \"#utility.yul\":4099:4192   */\n      tag_119\n        /* \"#utility.yul\":4188:4191   */\n      dup3\n        /* \"#utility.yul\":4099:4192   */\n      tag_71\n      jump\t// in\n    tag_119:\n        /* \"#utility.yul\":4217:4219   */\n      0x20\n        /* \"#utility.yul\":4212:4215   */\n      dup3\n        /* \"#utility.yul\":4208:4220   */\n      add\n        /* \"#utility.yul\":4201:4220   */\n      swap1\n      pop\n        /* \"#utility.yul\":3860:4226   */\n      swap2\n      swap1\n      pop\n      jump\t// out\n        /* \"#utility.yul\":4232:4651   */\n    tag_42:\n        /* \"#utility.yul\":4398:4402   */\n      0x00\n        /* \"#utility.yul\":4436:4438   */\n      0x20\n        /* \"#utility.yul\":4425:4434   */\n      dup3\n        /* \"#utility.yul\":4421:4439   */\n      add\n        /* \"#utility.yul\":4413:4439   */\n      swap1\n      pop\n        /* \"#utility.yul\":4485:4494   */\n      dup2\n        /* \"#utility.yul\":4479:4483   */\n      dup2\n        /* \"#utility.yul\":4475:4495   */\n      sub\n        /* \"#utility.yul\":4471:4472   */\n      0x00\n        /* \"#utility.yul\":4460:4469   */\n      dup4\n        /* \"#utility.yul\":4456:4473   */\n      add\n        /* \"#utility.yul\":4449:4496   */\n      mstore\n        /* \"#utility.yul\":4513:4644   */\n      tag_121\n        /* \"#utility.yul\":4639:4643   */\n      dup2\n        /* \"#utility.yul\":4513:4644   */\n      tag_72\n      jump\t// in\n    tag_121:\n        /* \"#utility.yul\":4505:4644   */\n      swap1\n      pop\n        /* \"#utility.yul\":4232:4651   */\n      swap2\n      swap1\n      pop\n      jump\t// out\n        /* \"#utility.yul\":4657:4881   */\n    tag_73:\n        /* \"#utility.yul\":4797:4831   */\n      0x4f6e6c79206d616e616765722063616e2073656c6563742072616e646f6d2077\n        /* \"#utility.yul\":4793:4794   */\n      0x00\n        /* \"#utility.yul\":4785:4791   */\n      dup3\n        /* \"#utility.yul\":4781:4795   */\n      add\n        /* \"#utility.yul\":4774:4832   */\n      mstore\n        /* \"#utility.yul\":4866:4873   */\n      0x696e6e6572000000000000000000000000000000000000000000000000000000\n        /* \"#utility.yul\":4861:4863   */\n      0x20\n        /* \"#utility.yul\":4853:4859   */\n      dup3\n        /* \"#utility.yul\":4849:4864   */\n      add\n        /* \"#utility.yul\":4842:4874   */\n      mstore\n        /* \"#utility.yul\":4657:4881   */\n      pop\n      jump\t// out\n        /* \"#utility.yul\":4887:5253   */\n    tag_74:\n        /* \"#utility.yul\":5029:5032   */\n      0x00\n        /* \"#utility.yul\":5050:5117   */\n      tag_124\n        /* \"#utility.yul\":5114:5116   */\n      0x25\n        /* \"#utility.yul\":5109:5112   */\n      dup4\n        /* \"#utility.yul\":5050:5117   */\n      tag_56\n      jump\t// in\n    tag_124:\n        /* \"#utility.yul\":5043:5117   */\n      swap2\n      pop\n        /* \"#utility.yul\":5126:5219   */\n      tag_125\n        /* \"#utility.yul\":5215:5218   */\n      dup3\n        /* \"#utility.yul\":5126:5219   */\n      tag_73\n      jump\t// in\n    tag_125:\n        /* \"#utility.yul\":5244:5246   */\n      0x40\n        /* \"#utility.yul\":5239:5242   */\n      dup3\n        /* \"#utility.yul\":5235:5247   */\n      add\n        /* \"#utility.yul\":5228:5247   */\n      swap1\n      pop\n        /* \"#utility.yul\":4887:5253   */\n      swap2\n      swap1\n      pop\n      jump\t// out\n        /* \"#utility.yul\":5259:5678   */\n    tag_46:\n        /* \"#utility.yul\":5425:5429   */\n      0x00\n        /* \"#utility.yul\":5463:5465   */\n      0x20\n        /* \"#utility.yul\":5452:5461   */\n      dup3\n        /* \"#utility.yul\":5448:5466   */\n      add\n        /* \"#utility.yul\":5440:5466   */\n      swap1\n      pop\n        /* \"#utility.yul\":5512:5521   */\n      dup2\n        /* \"#utility.yul\":5506:5510   */\n      dup2\n        /* \"#utility.yul\":5502:5522   */\n      sub\n        /* \"#utility.yul\":5498:5499   */\n      0x00\n        /* \"#utility.yul\":5487:5496   */\n      dup4\n        /* \"#utility.yul\":5483:5500   */\n      add\n        /* \"#utility.yul\":5476:5523   */\n      mstore\n        /* \"#utility.yul\":5540:5671   */\n      tag_127\n        /* \"#utility.yul\":5666:5670   */\n      dup2\n        /* \"#utility.yul\":5540:5671   */\n      tag_74\n      jump\t// in\n    tag_127:\n        /* \"#utility.yul\":5532:5671   */\n      swap1\n      pop\n        /* \"#utility.yul\":5259:5678   */\n      swap2\n      swap1\n      pop\n      jump\t// out\n        /* \"#utility.yul\":5684:5864   */\n    tag_75:\n        /* \"#utility.yul\":5732:5809   */\n      0x4e487b7100000000000000000000000000000000000000000000000000000000\n        /* \"#utility.yul\":5729:5730   */\n      0x00\n        /* \"#utility.yul\":5722:5810   */\n      mstore\n        /* \"#utility.yul\":5829:5833   */\n      0x12\n        /* \"#utility.yul\":5826:5827   */\n      0x04\n        /* \"#utility.yul\":5819:5834   */\n      mstore\n        /* \"#utility.yul\":5853:5857   */\n      0x24\n        /* \"#utility.yul\":5850:5851   */\n      0x00\n        /* \"#utility.yul\":5843:5858   */\n      revert\n        /* \"#utility.yul\":5870:6046   */\n    tag_50:\n        /* \"#utility.yul\":5902:5903   */\n      0x00\n        /* \"#utility.yul\":5919:5939   */\n      tag_130\n        /* \"#utility.yul\":5937:5938   */\n      dup3\n        /* \"#utility.yul\":5919:5939   */\n      tag_59\n      jump\t// in\n    tag_130:\n        /* \"#utility.yul\":5914:5939   */\n      swap2\n      pop\n        /* \"#utility.yul\":5953:5973   */\n      tag_131\n        /* \"#utility.yul\":5971:5972   */\n      dup4\n        /* \"#utility.yul\":5953:5973   */\n      tag_59\n      jump\t// in\n    tag_131:\n        /* \"#utility.yul\":5948:5973   */\n      swap3\n      pop\n        /* \"#utility.yul\":5992:5993   */\n      dup3\n        /* \"#utility.yul\":5982:6017   */\n      tag_132\n      jumpi\n        /* \"#utility.yul\":5997:6015   */\n      tag_133\n      tag_75\n      jump\t// in\n    tag_133:\n        /* \"#utility.yul\":5982:6017   */\n    tag_132:\n        /* \"#utility.yul\":6038:6039   */\n      dup3\n        /* \"#utility.yul\":6035:6036   */\n      dup3\n        /* \"#utility.yul\":6031:6040   */\n      mod\n        /* \"#utility.yul\":6026:6040   */\n      swap1\n      pop\n        /* \"#utility.yul\":5870:6046   */\n      swap3\n      swap2\n      pop\n      pop\n      jump\t// out\n        /* \"#utility.yul\":6052:6131   */\n    tag_76:\n        /* \"#utility.yul\":6091:6098   */\n      0x00\n        /* \"#utility.yul\":6120:6125   */\n      dup2\n        /* \"#utility.yul\":6109:6125   */\n      swap1\n      pop\n        /* \"#utility.yul\":6052:6131   */\n      swap2\n      swap1\n      pop\n      jump\t// out\n        /* \"#utility.yul\":6137:6294   */\n    tag_77:\n        /* \"#utility.yul\":6242:6287   */\n      tag_136\n        /* \"#utility.yul\":6262:6286   */\n      tag_137\n        /* \"#utility.yul\":6280:6285   */\n      dup3\n        /* \"#utility.yul\":6262:6286   */\n      tag_59\n      jump\t// in\n    tag_137:\n        /* \"#utility.yul\":6242:6287   */\n      tag_76\n      jump\t// in\n    tag_136:\n        /* \"#utility.yul\":6237:6240   */\n      dup3\n        /* \"#utility.yul\":6230:6288   */\n      mstore\n        /* \"#utility.yul\":6137:6294   */\n      pop\n      pop\n      jump\t// out\n        /* \"#utility.yul\":6300:6838   */\n    tag_55:\n        /* \"#utility.yul\":6468:6471   */\n      0x00\n        /* \"#utility.yul\":6483:6558   */\n      tag_139\n        /* \"#utility.yul\":6554:6557   */\n      dup3\n        /* \"#utility.yul\":6545:6551   */\n      dup7\n        /* \"#utility.yul\":6483:6558   */\n      tag_77\n      jump\t// in\n    tag_139:\n        /* \"#utility.yul\":6583:6585   */\n      0x20\n        /* \"#utility.yul\":6578:6581   */\n      dup3\n        /* \"#utility.yul\":6574:6586   */\n      add\n        /* \"#utility.yul\":6567:6586   */\n      swap2\n      pop\n        /* \"#utility.yul\":6596:6671   */\n      tag_140\n        /* \"#utility.yul\":6667:6670   */\n      dup3\n        /* \"#utility.yul\":6658:6664   */\n      dup6\n        /* \"#utility.yul\":6596:6671   */\n      tag_77\n      jump\t// in\n    tag_140:\n        /* \"#utility.yul\":6696:6698   */\n      0x20\n        /* \"#utility.yul\":6691:6694   */\n      dup3\n        /* \"#utility.yul\":6687:6699   */\n      add\n        /* \"#utility.yul\":6680:6699   */\n      swap2\n      pop\n        /* \"#utility.yul\":6709:6784   */\n      tag_141\n        /* \"#utility.yul\":6780:6783   */\n      dup3\n        /* \"#utility.yul\":6771:6777   */\n      dup5\n        /* \"#utility.yul\":6709:6784   */\n      tag_77\n      jump\t// in\n    tag_141:\n        /* \"#utility.yul\":6809:6811   */\n      0x20\n        /* \"#utility.yul\":6804:6807   */\n      dup3\n        /* \"#utility.yul\":6800:6812   */\n      add\n        /* \"#utility.yul\":6793:6812   */\n      swap2\n      pop\n        /* \"#utility.yul\":6829:6832   */\n      dup2\n        /* \"#utility.yul\":6822:6832   */\n      swap1\n      pop\n        /* \"#utility.yul\":6300:6838   */\n      swap5\n      swap4\n      pop\n      pop\n      pop\n      pop\n      jump\t// out\n\n    auxdata: 0xa2646970667358221220af5f4d75dfa0281b180bfb7a4dd294468246dbafe14f47f744093912d7967e6564736f6c63430008120033\n}\n",
				"bytecode": {
					"linkReferences": {},
					"object": "608060405234801561001057600080fd5b50336000806101000a81548173ffffffffffffffffffffffffffffffffffffffff021916908373ffffffffffffffffffffffffffffffffffffffff1602179055506107ac806100606000396000f3fe60806040526004361061004e5760003560e01c806312065fe01461010657806333a99e041461013157806335c1d3491461015c578063481c6a7514610199578063edd0eb06146101c457610101565b3661010157671bc16d674ec80000341461009d576040517f08c379a000000000000000000000000000000000000000000000000000000000815260040161009490610470565b60405180910390fd5b6001339080600181540180825580915050600190039060005260206000200160009091909190916101000a81548173ffffffffffffffffffffffffffffffffffffffff021916908373ffffffffffffffffffffffffffffffffffffffff1602179055005b600080fd5b34801561011257600080fd5b5061011b6101ef565b60405161012891906104a9565b60405180910390f35b34801561013d57600080fd5b50610146610286565b6040516101539190610505565b60405180910390f35b34801561016857600080fd5b50610183600480360381019061017e9190610551565b610350565b604051610190919061059f565b60405180910390f35b3480156101a557600080fd5b506101ae61038f565b6040516101bb9190610505565b60405180910390f35b3480156101d057600080fd5b506101d96103b3565b6040516101e691906104a9565b60405180910390f35b60008060009054906101000a900473ffffffffffffffffffffffffffffffffffffffff1673ffffffffffffffffffffffffffffffffffffffff163373ffffffffffffffffffffffffffffffffffffffff1614610280576040517f08c379a000000000000000000000000000000000000000000000000000000000815260040161027790610606565b60405180910390fd5b47905090565b60008060009054906101000a900473ffffffffffffffffffffffffffffffffffffffff1673ffffffffffffffffffffffffffffffffffffffff163373ffffffffffffffffffffffffffffffffffffffff1614610317576040517f08c379a000000000000000000000000000000000000000000000000000000000815260040161030e90610698565b60405180910390fd5b6003600180549050101561032a57600080fd5b60006103346103b3565b905060006001805490508261034991906106e7565b9050505090565b6001818154811061036057600080fd5b906000526020600020016000915054906101000a900473ffffffffffffffffffffffffffffffffffffffff1681565b60008054906101000a900473ffffffffffffffffffffffffffffffffffffffff1681565b600044426001805490506040516020016103cf93929190610739565b6040516020818303038152906040528051906020012060001c905090565b600082825260208201905092915050565b7f4d696e696d756d20616d6f756e74206973206c657373207468616e203220657460008201527f6865720000000000000000000000000000000000000000000000000000000000602082015250565b600061045a6023836103ed565b9150610465826103fe565b604082019050919050565b600060208201905081810360008301526104898161044d565b9050919050565b6000819050919050565b6104a381610490565b82525050565b60006020820190506104be600083018461049a565b92915050565b600073ffffffffffffffffffffffffffffffffffffffff82169050919050565b60006104ef826104c4565b9050919050565b6104ff816104e4565b82525050565b600060208201905061051a60008301846104f6565b92915050565b600080fd5b61052e81610490565b811461053957600080fd5b50565b60008135905061054b81610525565b92915050565b60006020828403121561056757610566610520565b5b60006105758482850161053c565b91505092915050565b6000610589826104c4565b9050919050565b6105998161057e565b82525050565b60006020820190506105b46000830184610590565b92915050565b7f596f7520617265206e6f7420746865206d616e61676572000000000000000000600082015250565b60006105f06017836103ed565b91506105fb826105ba565b602082019050919050565b6000602082019050818103600083015261061f816105e3565b9050919050565b7f4f6e6c79206d616e616765722063616e2073656c6563742072616e646f6d207760008201527f696e6e6572000000000000000000000000000000000000000000000000000000602082015250565b60006106826025836103ed565b915061068d82610626565b604082019050919050565b600060208201905081810360008301526106b181610675565b9050919050565b7f4e487b7100000000000000000000000000000000000000000000000000000000600052601260045260246000fd5b60006106f282610490565b91506106fd83610490565b92508261070d5761070c6106b8565b5b828206905092915050565b6000819050919050565b61073361072e82610490565b610718565b82525050565b60006107458286610722565b6020820191506107558285610722565b6020820191506107658284610722565b60208201915081905094935050505056fea2646970667358221220af5f4d75dfa0281b180bfb7a4dd294468246dbafe14f47f744093912d7967e6564736f6c63430008120033",
					"opcodes": "PUSH1 0x80 PUSH1 0x40 MSTORE CALLVALUE DUP1 ISZERO PUSH2 0x10 JUMPI PUSH1 0x0 DUP1 REVERT JUMPDEST POP CALLER PUSH1 0x0 DUP1 PUSH2 0x100 EXP DUP2 SLOAD DUP2 PUSH20 0xFFFFFFFFFFFFFFFFFFFFFFFFFFFFFFFFFFFFFFFF MUL NOT AND SWAP1 DUP4 PUSH20 0xFFFFFFFFFFFFFFFFFFFFFFFFFFFFFFFFFFFFFFFF AND MUL OR SWAP1 SSTORE POP PUSH2 0x7AC DUP1 PUSH2 0x60 PUSH1 0x0 CODECOPY PUSH1 0x0 RETURN INVALID PUSH1 0x80 PUSH1 0x40 MSTORE PUSH1 0x4 CALLDATASIZE LT PUSH2 0x4E JUMPI PUSH1 0x0 CALLDATALOAD PUSH1 0xE0 SHR DUP1 PUSH4 0x12065FE0 EQ PUSH2 0x106 JUMPI DUP1 PUSH4 0x33A99E04 EQ PUSH2 0x131 JUMPI DUP1 PUSH4 0x35C1D349 EQ PUSH2 0x15C JUMPI DUP1 PUSH4 0x481C6A75 EQ PUSH2 0x199 JUMPI DUP1 PUSH4 0xEDD0EB06 EQ PUSH2 0x1C4 JUMPI PUSH2 0x101 JUMP JUMPDEST CALLDATASIZE PUSH2 0x101 JUMPI PUSH8 0x1BC16D674EC80000 CALLVALUE EQ PUSH2 0x9D JUMPI PUSH1 0x40 MLOAD PUSH32 0x8C379A000000000000000000000000000000000000000000000000000000000 DUP2 MSTORE PUSH1 0x4 ADD PUSH2 0x94 SWAP1 PUSH2 0x470 JUMP JUMPDEST PUSH1 0x40 MLOAD DUP1 SWAP2 SUB SWAP1 REVERT JUMPDEST PUSH1 0x1 CALLER SWAP1 DUP1 PUSH1 0x1 DUP2 SLOAD ADD DUP1 DUP3 SSTORE DUP1 SWAP2 POP POP PUSH1 0x1 SWAP1 SUB SWAP1 PUSH1 0x0 MSTORE PUSH1 0x20 PUSH1 0x0 KECCAK256 ADD PUSH1 0x0 SWAP1 SWAP2 SWAP1 SWAP2 SWAP1 SWAP2 PUSH2 0x100 EXP DUP2 SLOAD DUP2 PUSH20 0xFFFFFFFFFFFFFFFFFFFFFFFFFFFFFFFFFFFFFFFF MUL NOT AND SWAP1 DUP4 PUSH20 0xFFFFFFFFFFFFFFFFFFFFFFFFFFFFFFFFFFFFFFFF AND MUL OR SWAP1 SSTORE STOP JUMPDEST PUSH1 0x0 DUP1 REVERT JUMPDEST CALLVALUE DUP1 ISZERO PUSH2 0x112 JUMPI PUSH1 0x0 DUP1 REVERT JUMPDEST POP PUSH2 0x11B PUSH2 0x1EF JUMP JUMPDEST PUSH1 0x40 MLOAD PUSH2 0x128 SWAP2 SWAP1 PUSH2 0x4A9 JUMP JUMPDEST PUSH1 0x40 MLOAD DUP1 SWAP2 SUB SWAP1 RETURN JUMPDEST CALLVALUE DUP1 ISZERO PUSH2 0x13D JUMPI PUSH1 0x0 DUP1 REVERT JUMPDEST POP PUSH2 0x146 PUSH2 0x286 JUMP JUMPDEST PUSH1 0x40 MLOAD PUSH2 0x153 SWAP2 SWAP1 PUSH2 0x505 JUMP JUMPDEST PUSH1 0x40 MLOAD DUP1 SWAP2 SUB SWAP1 RETURN JUMPDEST CALLVALUE DUP1 ISZERO PUSH2 0x168 JUMPI PUSH1 0x0 DUP1 REVERT JUMPDEST POP PUSH2 0x183 PUSH1 0x4 DUP1 CALLDATASIZE SUB DUP2 ADD SWAP1 PUSH2 0x17E SWAP2 SWAP1 PUSH2 0x551 JUMP JUMPDEST PUSH2 0x350 JUMP JUMPDEST PUSH1 0x40 MLOAD PUSH2 0x190 SWAP2 SWAP1 PUSH2 0x59F JUMP JUMPDEST PUSH1 0x40 MLOAD DUP1 SWAP2 SUB SWAP1 RETURN JUMPDEST CALLVALUE DUP1 ISZERO PUSH2 0x1A5 JUMPI PUSH1 0x0 DUP1 REVERT JUMPDEST POP PUSH2 0x1AE PUSH2 0x38F JUMP JUMPDEST PUSH1 0x40 MLOAD PUSH2 0x1BB SWAP2 SWAP1 PUSH2 0x505 JUMP JUMPDEST PUSH1 0x40 MLOAD DUP1 SWAP2 SUB SWAP1 RETURN JUMPDEST CALLVALUE DUP1 ISZERO PUSH2 0x1D0 JUMPI PUSH1 0x0 DUP1 REVERT JUMPDEST POP PUSH2 0x1D9 PUSH2 0x3B3 JUMP JUMPDEST PUSH1 0x40 MLOAD PUSH2 0x1E6 SWAP2 SWAP1 PUSH2 0x4A9 JUMP JUMPDEST PUSH1 0x40 MLOAD DUP1 SWAP2 SUB SWAP1 RETURN JUMPDEST PUSH1 0x0 DUP1 PUSH1 0x0 SWAP1 SLOAD SWAP1 PUSH2 0x100 EXP SWAP1 DIV PUSH20 0xFFFFFFFFFFFFFFFFFFFFFFFFFFFFFFFFFFFFFFFF AND PUSH20 0xFFFFFFFFFFFFFFFFFFFFFFFFFFFFFFFFFFFFFFFF AND CALLER PUSH20 0xFFFFFFFFFFFFFFFFFFFFFFFFFFFFFFFFFFFFFFFF AND EQ PUSH2 0x280 JUMPI PUSH1 0x40 MLOAD PUSH32 0x8C379A000000000000000000000000000000000000000000000000000000000 DUP2 MSTORE PUSH1 0x4 ADD PUSH2 0x277 SWAP1 PUSH2 0x606 JUMP JUMPDEST PUSH1 0x40 MLOAD DUP1 SWAP2 SUB SWAP1 REVERT JUMPDEST SELFBALANCE SWAP1 POP SWAP1 JUMP JUMPDEST PUSH1 0x0 DUP1 PUSH1 0x0 SWAP1 SLOAD SWAP1 PUSH2 0x100 EXP SWAP1 DIV PUSH20 0xFFFFFFFFFFFFFFFFFFFFFFFFFFFFFFFFFFFFFFFF AND PUSH20 0xFFFFFFFFFFFFFFFFFFFFFFFFFFFFFFFFFFFFFFFF AND CALLER PUSH20 0xFFFFFFFFFFFFFFFFFFFFFFFFFFFFFFFFFFFFFFFF AND EQ PUSH2 0x317 JUMPI PUSH1 0x40 MLOAD PUSH32 0x8C379A000000000000000000000000000000000000000000000000000000000 DUP2 MSTORE PUSH1 0x4 ADD PUSH2 0x30E SWAP1 PUSH2 0x698 JUMP JUMPDEST PUSH1 0x40 MLOAD DUP1 SWAP2 SUB SWAP1 REVERT JUMPDEST PUSH1 0x3 PUSH1 0x1 DUP1 SLOAD SWAP1 POP LT ISZERO PUSH2 0x32A JUMPI PUSH1 0x0 DUP1 REVERT JUMPDEST PUSH1 0x0 PUSH2 0x334 PUSH2 0x3B3 JUMP JUMPDEST SWAP1 POP PUSH1 0x0 PUSH1 0x1 DUP1 SLOAD SWAP1 POP DUP3 PUSH2 0x349 SWAP2 SWAP1 PUSH2 0x6E7 JUMP JUMPDEST SWAP1 POP POP POP SWAP1 JUMP JUMPDEST PUSH1 0x1 DUP2 DUP2 SLOAD DUP2 LT PUSH2 0x360 JUMPI PUSH1 0x0 DUP1 REVERT JUMPDEST SWAP1 PUSH1 0x0 MSTORE PUSH1 0x20 PUSH1 0x0 KECCAK256 ADD PUSH1 0x0 SWAP2 POP SLOAD SWAP1 PUSH2 0x100 EXP SWAP1 DIV PUSH20 0xFFFFFFFFFFFFFFFFFFFFFFFFFFFFFFFFFFFFFFFF AND DUP2 JUMP JUMPDEST PUSH1 0x0 DUP1 SLOAD SWAP1 PUSH2 0x100 EXP SWAP1 DIV PUSH20 0xFFFFFFFFFFFFFFFFFFFFFFFFFFFFFFFFFFFFFFFF AND DUP2 JUMP JUMPDEST PUSH1 0x0 PREVRANDAO TIMESTAMP PUSH1 0x1 DUP1 SLOAD SWAP1 POP PUSH1 0x40 MLOAD PUSH1 0x20 ADD PUSH2 0x3CF SWAP4 SWAP3 SWAP2 SWAP1 PUSH2 0x739 JUMP JUMPDEST PUSH1 0x40 MLOAD PUSH1 0x20 DUP2 DUP4 SUB SUB DUP2 MSTORE SWAP1 PUSH1 0x40 MSTORE DUP1 MLOAD SWAP1 PUSH1 0x20 ADD KECCAK256 PUSH1 0x0 SHR SWAP1 POP SWAP1 JUMP JUMPDEST PUSH1 0x0 DUP3 DUP3 MSTORE PUSH1 0x20 DUP3 ADD SWAP1 POP SWAP3 SWAP2 POP POP JUMP JUMPDEST PUSH32 0x4D696E696D756D20616D6F756E74206973206C657373207468616E2032206574 PUSH1 0x0 DUP3 ADD MSTORE PUSH32 0x6865720000000000000000000000000000000000000000000000000000000000 PUSH1 0x20 DUP3 ADD MSTORE POP JUMP JUMPDEST PUSH1 0x0 PUSH2 0x45A PUSH1 0x23 DUP4 PUSH2 0x3ED JUMP JUMPDEST SWAP2 POP PUSH2 0x465 DUP3 PUSH2 0x3FE JUMP JUMPDEST PUSH1 0x40 DUP3 ADD SWAP1 POP SWAP2 SWAP1 POP JUMP JUMPDEST PUSH1 0x0 PUSH1 0x20 DUP3 ADD SWAP1 POP DUP2 DUP2 SUB PUSH1 0x0 DUP4 ADD MSTORE PUSH2 0x489 DUP2 PUSH2 0x44D JUMP JUMPDEST SWAP1 POP SWAP2 SWAP1 POP JUMP JUMPDEST PUSH1 0x0 DUP2 SWAP1 POP SWAP2 SWAP1 POP JUMP JUMPDEST PUSH2 0x4A3 DUP2 PUSH2 0x490 JUMP JUMPDEST DUP3 MSTORE POP POP JUMP JUMPDEST PUSH1 0x0 PUSH1 0x20 DUP3 ADD SWAP1 POP PUSH2 0x4BE PUSH1 0x0 DUP4 ADD DUP5 PUSH2 0x49A JUMP JUMPDEST SWAP3 SWAP2 POP POP JUMP JUMPDEST PUSH1 0x0 PUSH20 0xFFFFFFFFFFFFFFFFFFFFFFFFFFFFFFFFFFFFFFFF DUP3 AND SWAP1 POP SWAP2 SWAP1 POP JUMP JUMPDEST PUSH1 0x0 PUSH2 0x4EF DUP3 PUSH2 0x4C4 JUMP JUMPDEST SWAP1 POP SWAP2 SWAP1 POP JUMP JUMPDEST PUSH2 0x4FF DUP2 PUSH2 0x4E4 JUMP JUMPDEST DUP3 MSTORE POP POP JUMP JUMPDEST PUSH1 0x0 PUSH1 0x20 DUP3 ADD SWAP1 POP PUSH2 0x51A PUSH1 0x0 DUP4 ADD DUP5 PUSH2 0x4F6 JUMP JUMPDEST SWAP3 SWAP2 POP POP JUMP JUMPDEST PUSH1 0x0 DUP1 REVERT JUMPDEST PUSH2 0x52E DUP2 PUSH2 0x490 JUMP JUMPDEST DUP2 EQ PUSH2 0x539 JUMPI PUSH1 0x0 DUP1 REVERT JUMPDEST POP JUMP JUMPDEST PUSH1 0x0 DUP2 CALLDATALOAD SWAP1 POP PUSH2 0x54B DUP2 PUSH2 0x525 JUMP JUMPDEST SWAP3 SWAP2 POP POP JUMP JUMPDEST PUSH1 0x0 PUSH1 0x20 DUP3 DUP5 SUB SLT ISZERO PUSH2 0x567 JUMPI PUSH2 0x566 PUSH2 0x520 JUMP JUMPDEST JUMPDEST PUSH1 0x0 PUSH2 0x575 DUP5 DUP3 DUP6 ADD PUSH2 0x53C JUMP JUMPDEST SWAP2 POP POP SWAP3 SWAP2 POP POP JUMP JUMPDEST PUSH1 0x0 PUSH2 0x589 DUP3 PUSH2 0x4C4 JUMP JUMPDEST SWAP1 POP SWAP2 SWAP1 POP JUMP JUMPDEST PUSH2 0x599 DUP2 PUSH2 0x57E JUMP JUMPDEST DUP3 MSTORE POP POP JUMP JUMPDEST PUSH1 0x0 PUSH1 0x20 DUP3 ADD SWAP1 POP PUSH2 0x5B4 PUSH1 0x0 DUP4 ADD DUP5 PUSH2 0x590 JUMP JUMPDEST SWAP3 SWAP2 POP POP JUMP JUMPDEST PUSH32 0x596F7520617265206E6F7420746865206D616E61676572000000000000000000 PUSH1 0x0 DUP3 ADD MSTORE POP JUMP JUMPDEST PUSH1 0x0 PUSH2 0x5F0 PUSH1 0x17 DUP4 PUSH2 0x3ED JUMP JUMPDEST SWAP2 POP PUSH2 0x5FB DUP3 PUSH2 0x5BA JUMP JUMPDEST PUSH1 0x20 DUP3 ADD SWAP1 POP SWAP2 SWAP1 POP JUMP JUMPDEST PUSH1 0x0 PUSH1 0x20 DUP3 ADD SWAP1 POP DUP2 DUP2 SUB PUSH1 0x0 DUP4 ADD MSTORE PUSH2 0x61F DUP2 PUSH2 0x5E3 JUMP JUMPDEST SWAP1 POP SWAP2 SWAP1 POP JUMP JUMPDEST PUSH32 0x4F6E6C79206D616E616765722063616E2073656C6563742072616E646F6D2077 PUSH1 0x0 DUP3 ADD MSTORE PUSH32 0x696E6E6572000000000000000000000000000000000000000000000000000000 PUSH1 0x20 DUP3 ADD MSTORE POP JUMP JUMPDEST PUSH1 0x0 PUSH2 0x682 PUSH1 0x25 DUP4 PUSH2 0x3ED JUMP JUMPDEST SWAP2 POP PUSH2 0x68D DUP3 PUSH2 0x626 JUMP JUMPDEST PUSH1 0x40 DUP3 ADD SWAP1 POP SWAP2 SWAP1 POP JUMP JUMPDEST PUSH1 0x0 PUSH1 0x20 DUP3 ADD SWAP1 POP DUP2 DUP2 SUB PUSH1 0x0 DUP4 ADD MSTORE PUSH2 0x6B1 DUP2 PUSH2 0x675 JUMP JUMPDEST SWAP1 POP SWAP2 SWAP1 POP JUMP JUMPDEST PUSH32 0x4E487B7100000000000000000000000000000000000000000000000000000000 PUSH1 0x0 MSTORE PUSH1 0x12 PUSH1 0x4 MSTORE PUSH1 0x24 PUSH1 0x0 REVERT JUMPDEST PUSH1 0x0 PUSH2 0x6F2 DUP3 PUSH2 0x490 JUMP JUMPDEST SWAP2 POP PUSH2 0x6FD DUP4 PUSH2 0x490 JUMP JUMPDEST SWAP3 POP DUP3 PUSH2 0x70D JUMPI PUSH2 0x70C PUSH2 0x6B8 JUMP JUMPDEST JUMPDEST DUP3 DUP3 MOD SWAP1 POP SWAP3 SWAP2 POP POP JUMP JUMPDEST PUSH1 0x0 DUP2 SWAP1 POP SWAP2 SWAP1 POP JUMP JUMPDEST PUSH2 0x733 PUSH2 0x72E DUP3 PUSH2 0x490 JUMP JUMPDEST PUSH2 0x718 JUMP JUMPDEST DUP3 MSTORE POP POP JUMP JUMPDEST PUSH1 0x0 PUSH2 0x745 DUP3 DUP7 PUSH2 0x722 JUMP JUMPDEST PUSH1 0x20 DUP3 ADD SWAP2 POP PUSH2 0x755 DUP3 DUP6 PUSH2 0x722 JUMP JUMPDEST PUSH1 0x20 DUP3 ADD SWAP2 POP PUSH2 0x765 DUP3 DUP5 PUSH2 0x722 JUMP JUMPDEST PUSH1 0x20 DUP3 ADD SWAP2 POP DUP2 SWAP1 POP SWAP5 SWAP4 POP POP POP POP JUMP INVALID LOG2 PUSH5 0x6970667358 0x22 SLT KECCAK256 0xAF 0x5F 0x4D PUSH22 0xDFA0281B180BFB7A4DD294468246DBAFE14F47F74409 CODECOPY SLT 0xD7 SWAP7 PUSH31 0x6564736F6C6343000812003300000000000000000000000000000000000000 "
				},
				"gasEstimates": {
					"creation": {
						"codeDepositCost": "392800",
						"executionCost": "24696",
						"totalCost": "417496"
					},
					"external": {
						"getBalance()": "2584",
						"getRandomAddress()": "infinite",
						"manager()": "2555",
						"participants(uint256)": "4978",
						"selectWinner()": "infinite"
					}
				},
				"methodIdentifiers": {
					"getBalance()": "12065fe0",
					"getRandomAddress()": "edd0eb06",
					"manager()": "481c6a75",
					"participants(uint256)": "35c1d349",
					"selectWinner()": "33a99e04"
				}
			},
			"storageLayout": {
				"storage": [
					{
						"astId": 4,
						"contract": "contracts/3_Ballot.sol:Lottery",
						"label": "manager",
						"offset": 0,
						"slot": "0",
						"type": "t_address"
					},
					{
						"astId": 7,
						"contract": "contracts/3_Ballot.sol:Lottery",
						"label": "participants",
						"offset": 0,
						"slot": "1",
						"type": "t_array(t_address_payable)dyn_storage"
					}
				],
				"types": {
					"t_address": {
						"encoding": "inplace",
						"label": "address",
						"numberOfBytes": "20"
					},
					"t_address_payable": {
						"encoding": "inplace",
						"label": "address payable",
						"numberOfBytes": "20"
					},
					"t_array(t_address_payable)dyn_storage": {
						"base": "t_address_payable",
						"encoding": "dynamic_array",
						"label": "address payable[]",
						"numberOfBytes": "32"
					}
				}
			},
			"userdoc": {
				"kind": "user",
				"methods": {},
				"version": 1
			}
		}
	}
}