{
	"contracts/Lottery.sol": {
		"Lottery": {
			"abi": [
				{
					"inputs": [],
					"stateMutability": "nonpayable",
					"type": "constructor"
				},
				{
					"inputs": [],
					"name": "getBalance",
					"outputs": [
						{
							"internalType": "uint256",
							"name": "",
							"type": "uint256"
						}
					],
					"stateMutability": "view",
					"type": "function"
				},
				{
					"inputs": [
						{
							"internalType": "address",
							"name": "account",
							"type": "address"
						}
					],
					"name": "getBalanceOfAddress",
					"outputs": [
						{
							"internalType": "uint256",
							"name": "",
							"type": "uint256"
						}
					],
					"stateMutability": "view",
					"type": "function"
				},
				{
					"inputs": [],
					"name": "getRandomAddress",
					"outputs": [
						{
							"internalType": "uint256",
							"name": "",
							"type": "uint256"
						}
					],
					"stateMutability": "view",
					"type": "function"
				},
				{
					"inputs": [],
					"name": "manager",
					"outputs": [
						{
							"internalType": "address",
							"name": "",
							"type": "address"
						}
					],
					"stateMutability": "view",
					"type": "function"
				},
				{
					"inputs": [
						{
							"internalType": "uint256",
							"name": "",
							"type": "uint256"
						}
					],
					"name": "participants",
					"outputs": [
						{
							"internalType": "address payable",
							"name": "",
							"type": "address"
						}
					],
					"stateMutability": "view",
					"type": "function"
				},
				{
					"inputs": [],
					"name": "selectWinner",
					"outputs": [],
					"stateMutability": "nonpayable",
					"type": "function"
				},
				{
					"stateMutability": "payable",
					"type": "receive"
				}
			],
			"devdoc": {
				"details": "Implements voting process along with vote delegation",
				"kind": "dev",
				"methods": {},
				"title": "Ballot",
				"version": 1
			},
			"evm": {
				"assembly": "    /* \"contracts/Lottery.sol\":160:1415  contract Lottery {... */\n  mstore(0x40, 0x80)\n    /* \"contracts/Lottery.sol\":261:336  constructor() ... */\n  callvalue\n  dup1\n  iszero\n  tag_1\n  jumpi\n  0x00\n  dup1\n  revert\ntag_1:\n  pop\n    /* \"contracts/Lottery.sol\":300:310  msg.sender */\n  caller\n    /* \"contracts/Lottery.sol\":290:297  manager */\n  0x00\n  dup1\n    /* \"contracts/Lottery.sol\":290:310  manager = msg.sender */\n  0x0100\n  exp\n  dup2\n  sload\n  dup2\n  0xffffffffffffffffffffffffffffffffffffffff\n  mul\n  not\n  and\n  swap1\n  dup4\n  0xffffffffffffffffffffffffffffffffffffffff\n  and\n  mul\n  or\n  swap1\n  sstore\n  pop\n    /* \"contracts/Lottery.sol\":160:1415  contract Lottery {... */\n  dataSize(sub_0)\n  dup1\n  dataOffset(sub_0)\n  0x00\n  codecopy\n  0x00\n  return\nstop\n\nsub_0: assembly {\n        /* \"contracts/Lottery.sol\":160:1415  contract Lottery {... */\n      mstore(0x40, 0x80)\n      jumpi(tag_1, lt(calldatasize, 0x04))\n      shr(0xe0, calldataload(0x00))\n      dup1\n      0x12065fe0\n      eq\n      tag_3\n      jumpi\n      dup1\n      0x33a99e04\n      eq\n      tag_4\n      jumpi\n      dup1\n      0x35c1d349\n      eq\n      tag_5\n      jumpi\n      dup1\n      0x481c6a75\n      eq\n      tag_6\n      jumpi\n      dup1\n      0xa665c4a4\n      eq\n      tag_7\n      jumpi\n      dup1\n      0xedd0eb06\n      eq\n      tag_8\n      jumpi\n      jump(tag_2)\n    tag_1:\n      jumpi(tag_2, calldatasize)\n        /* \"contracts/Lottery.sol\":406:413  2 ether */\n      0x1bc16d674ec80000\n        /* \"contracts/Lottery.sol\":393:402  msg.value */\n      callvalue\n        /* \"contracts/Lottery.sol\":393:413  msg.value == 2 ether */\n      eq\n        /* \"contracts/Lottery.sol\":385:453  require(msg.value == 2 ether, \"Minimum amount is less than 2 ether\") */\n      tag_11\n      jumpi\n      mload(0x40)\n      0x08c379a000000000000000000000000000000000000000000000000000000000\n      dup2\n      mstore\n      0x04\n      add\n      tag_12\n      swap1\n      tag_13\n      jump\t// in\n    tag_12:\n      mload(0x40)\n      dup1\n      swap2\n      sub\n      swap1\n      revert\n    tag_11:\n        /* \"contracts/Lottery.sol\":463:475  participants */\n      0x01\n        /* \"contracts/Lottery.sol\":490:500  msg.sender */\n      caller\n        /* \"contracts/Lottery.sol\":463:502  participants.push(payable (msg.sender)) */\n      swap1\n      dup1\n      0x01\n      dup2\n      sload\n      add\n      dup1\n      dup3\n      sstore\n      dup1\n      swap2\n      pop\n      pop\n      0x01\n      swap1\n      sub\n      swap1\n      0x00\n      mstore\n      keccak256(0x00, 0x20)\n      add\n      0x00\n      swap1\n      swap2\n      swap1\n      swap2\n      swap1\n      swap2\n      0x0100\n      exp\n      dup2\n      sload\n      dup2\n      0xffffffffffffffffffffffffffffffffffffffff\n      mul\n      not\n      and\n      swap1\n      dup4\n      0xffffffffffffffffffffffffffffffffffffffff\n      and\n      mul\n      or\n      swap1\n      sstore\n      stop\n        /* \"contracts/Lottery.sol\":160:1415  contract Lottery {... */\n    tag_2:\n      0x00\n      dup1\n      revert\n        /* \"contracts/Lottery.sol\":515:680  function getBalance() public view returns(uint) ... */\n    tag_3:\n      callvalue\n      dup1\n      iszero\n      tag_15\n      jumpi\n      0x00\n      dup1\n      revert\n    tag_15:\n      pop\n      tag_16\n      tag_17\n      jump\t// in\n    tag_16:\n      mload(0x40)\n      tag_18\n      swap2\n      swap1\n      tag_19\n      jump\t// in\n    tag_18:\n      mload(0x40)\n      dup1\n      swap2\n      sub\n      swap1\n      return\n        /* \"contracts/Lottery.sol\":864:1282  function selectWinner() public... */\n    tag_4:\n      callvalue\n      dup1\n      iszero\n      tag_20\n      jumpi\n      0x00\n      dup1\n      revert\n    tag_20:\n      pop\n      tag_21\n      tag_22\n      jump\t// in\n    tag_21:\n      stop\n        /* \"contracts/Lottery.sol\":212:250  address payable [] public participants */\n    tag_5:\n      callvalue\n      dup1\n      iszero\n      tag_23\n      jumpi\n      0x00\n      dup1\n      revert\n    tag_23:\n      pop\n      tag_24\n      0x04\n      dup1\n      calldatasize\n      sub\n      dup2\n      add\n      swap1\n      tag_25\n      swap2\n      swap1\n      tag_26\n      jump\t// in\n    tag_25:\n      tag_27\n      jump\t// in\n    tag_24:\n      mload(0x40)\n      tag_28\n      swap2\n      swap1\n      tag_29\n      jump\t// in\n    tag_28:\n      mload(0x40)\n      dup1\n      swap2\n      sub\n      swap1\n      return\n        /* \"contracts/Lottery.sol\":184:206  address public manager */\n    tag_6:\n      callvalue\n      dup1\n      iszero\n      tag_30\n      jumpi\n      0x00\n      dup1\n      revert\n    tag_30:\n      pop\n      tag_31\n      tag_32\n      jump\t// in\n    tag_31:\n      mload(0x40)\n      tag_33\n      swap2\n      swap1\n      tag_34\n      jump\t// in\n    tag_33:\n      mload(0x40)\n      dup1\n      swap2\n      sub\n      swap1\n      return\n        /* \"contracts/Lottery.sol\":1288:1413  function getBalanceOfAddress(address account) public view returns(uint) ... */\n    tag_7:\n      callvalue\n      dup1\n      iszero\n      tag_35\n      jumpi\n      0x00\n      dup1\n      revert\n    tag_35:\n      pop\n      tag_36\n      0x04\n      dup1\n      calldatasize\n      sub\n      dup2\n      add\n      swap1\n      tag_37\n      swap2\n      swap1\n      tag_38\n      jump\t// in\n    tag_37:\n      tag_39\n      jump\t// in\n    tag_36:\n      mload(0x40)\n      tag_40\n      swap2\n      swap1\n      tag_19\n      jump\t// in\n    tag_40:\n      mload(0x40)\n      dup1\n      swap2\n      sub\n      swap1\n      return\n        /* \"contracts/Lottery.sol\":686:858  function getRandomAddress() public view returns(uint) ... */\n    tag_8:\n      callvalue\n      dup1\n      iszero\n      tag_41\n      jumpi\n      0x00\n      dup1\n      revert\n    tag_41:\n      pop\n      tag_42\n      tag_43\n      jump\t// in\n    tag_42:\n      mload(0x40)\n      tag_44\n      swap2\n      swap1\n      tag_19\n      jump\t// in\n    tag_44:\n      mload(0x40)\n      dup1\n      swap2\n      sub\n      swap1\n      return\n        /* \"contracts/Lottery.sol\":515:680  function getBalance() public view returns(uint) ... */\n    tag_17:\n        /* \"contracts/Lottery.sol\":557:561  uint */\n      0x00\n        /* \"contracts/Lottery.sol\":600:607  manager */\n      dup1\n      0x00\n      swap1\n      sload\n      swap1\n      0x0100\n      exp\n      swap1\n      div\n      0xffffffffffffffffffffffffffffffffffffffff\n      and\n        /* \"contracts/Lottery.sol\":586:607  msg.sender == manager */\n      0xffffffffffffffffffffffffffffffffffffffff\n      and\n        /* \"contracts/Lottery.sol\":586:596  msg.sender */\n      caller\n        /* \"contracts/Lottery.sol\":586:607  msg.sender == manager */\n      0xffffffffffffffffffffffffffffffffffffffff\n      and\n      eq\n        /* \"contracts/Lottery.sol\":578:635  require(msg.sender == manager, \"You are not the manager\") */\n      tag_46\n      jumpi\n      mload(0x40)\n      0x08c379a000000000000000000000000000000000000000000000000000000000\n      dup2\n      mstore\n      0x04\n      add\n      tag_47\n      swap1\n      tag_48\n      jump\t// in\n    tag_47:\n      mload(0x40)\n      dup1\n      swap2\n      sub\n      swap1\n      revert\n    tag_46:\n        /* \"contracts/Lottery.sol\":652:673  address(this).balance */\n      selfbalance\n        /* \"contracts/Lottery.sol\":645:673  return address(this).balance */\n      swap1\n      pop\n        /* \"contracts/Lottery.sol\":515:680  function getBalance() public view returns(uint) ... */\n      swap1\n      jump\t// out\n        /* \"contracts/Lottery.sol\":864:1282  function selectWinner() public... */\n    tag_22:\n        /* \"contracts/Lottery.sol\":931:938  manager */\n      0x00\n      dup1\n      sload\n      swap1\n      0x0100\n      exp\n      swap1\n      div\n      0xffffffffffffffffffffffffffffffffffffffff\n      and\n        /* \"contracts/Lottery.sol\":917:938  msg.sender == manager */\n      0xffffffffffffffffffffffffffffffffffffffff\n      and\n        /* \"contracts/Lottery.sol\":917:927  msg.sender */\n      caller\n        /* \"contracts/Lottery.sol\":917:938  msg.sender == manager */\n      0xffffffffffffffffffffffffffffffffffffffff\n      and\n      eq\n        /* \"contracts/Lottery.sol\":909:980  require(msg.sender == manager, \"Only manager can select random winner\") */\n      tag_50\n      jumpi\n      mload(0x40)\n      0x08c379a000000000000000000000000000000000000000000000000000000000\n      dup2\n      mstore\n      0x04\n      add\n      tag_51\n      swap1\n      tag_52\n      jump\t// in\n    tag_51:\n      mload(0x40)\n      dup1\n      swap2\n      sub\n      swap1\n      revert\n    tag_50:\n        /* \"contracts/Lottery.sol\":1021:1022  3 */\n      0x03\n        /* \"contracts/Lottery.sol\":998:1010  participants */\n      0x01\n        /* \"contracts/Lottery.sol\":998:1017  participants.length */\n      dup1\n      sload\n      swap1\n      pop\n        /* \"contracts/Lottery.sol\":998:1022  participants.length >= 3 */\n      lt\n      iszero\n        /* \"contracts/Lottery.sol\":990:1023  require(participants.length >= 3) */\n      tag_53\n      jumpi\n      0x00\n      dup1\n      revert\n    tag_53:\n        /* \"contracts/Lottery.sol\":1033:1039  uint r */\n      0x00\n        /* \"contracts/Lottery.sol\":1042:1060  getRandomAddress() */\n      tag_54\n        /* \"contracts/Lottery.sol\":1042:1058  getRandomAddress */\n      tag_43\n        /* \"contracts/Lottery.sol\":1042:1060  getRandomAddress() */\n      jump\t// in\n    tag_54:\n        /* \"contracts/Lottery.sol\":1033:1060  uint r = getRandomAddress() */\n      swap1\n      pop\n        /* \"contracts/Lottery.sol\":1070:1092  address payable winner */\n      0x00\n        /* \"contracts/Lottery.sol\":1102:1112  uint index */\n      dup1\n        /* \"contracts/Lottery.sol\":1119:1131  participants */\n      0x01\n        /* \"contracts/Lottery.sol\":1119:1138  participants.length */\n      dup1\n      sload\n      swap1\n      pop\n        /* \"contracts/Lottery.sol\":1115:1116  r */\n      dup4\n        /* \"contracts/Lottery.sol\":1115:1138  r % participants.length */\n      tag_55\n      swap2\n      swap1\n      tag_56\n      jump\t// in\n    tag_55:\n        /* \"contracts/Lottery.sol\":1102:1138  uint index = r % participants.length */\n      swap1\n      pop\n        /* \"contracts/Lottery.sol\":1157:1169  participants */\n      0x01\n        /* \"contracts/Lottery.sol\":1170:1175  index */\n      dup2\n        /* \"contracts/Lottery.sol\":1157:1176  participants[index] */\n      dup2\n      sload\n      dup2\n      lt\n      tag_57\n      jumpi\n      tag_58\n      tag_59\n      jump\t// in\n    tag_58:\n    tag_57:\n      swap1\n      0x00\n      mstore\n      keccak256(0x00, 0x20)\n      add\n      0x00\n      swap1\n      sload\n      swap1\n      0x0100\n      exp\n      swap1\n      div\n      0xffffffffffffffffffffffffffffffffffffffff\n      and\n        /* \"contracts/Lottery.sol\":1148:1176  winner = participants[index] */\n      swap2\n      pop\n        /* \"contracts/Lottery.sol\":1195:1201  winner */\n      dup2\n        /* \"contracts/Lottery.sol\":1195:1210  winner.transfer */\n      0xffffffffffffffffffffffffffffffffffffffff\n      and\n        /* \"contracts/Lottery.sol\":1195:1224  winner.transfer(getBalance()) */\n      0x08fc\n        /* \"contracts/Lottery.sol\":1211:1223  getBalance() */\n      tag_61\n        /* \"contracts/Lottery.sol\":1211:1221  getBalance */\n      tag_17\n        /* \"contracts/Lottery.sol\":1211:1223  getBalance() */\n      jump\t// in\n    tag_61:\n        /* \"contracts/Lottery.sol\":1195:1224  winner.transfer(getBalance()) */\n      swap1\n      dup2\n      iszero\n      mul\n      swap1\n      mload(0x40)\n      0x00\n      mload(0x40)\n      dup1\n      dup4\n      sub\n      dup2\n      dup6\n      dup9\n      dup9\n      call\n      swap4\n      pop\n      pop\n      pop\n      pop\n      iszero\n      dup1\n      iszero\n      tag_63\n      jumpi\n      returndatasize\n      0x00\n      dup1\n      returndatacopy\n      revert(0x00, returndatasize)\n    tag_63:\n      pop\n        /* \"contracts/Lottery.sol\":1272:1273  0 */\n      0x00\n        /* \"contracts/Lottery.sol\":1249:1274  new address payable [](0) */\n      0xffffffffffffffff\n      dup2\n      gt\n      iszero\n      tag_64\n      jumpi\n      tag_65\n      tag_66\n      jump\t// in\n    tag_65:\n    tag_64:\n      mload(0x40)\n      swap1\n      dup1\n      dup3\n      mstore\n      dup1\n      0x20\n      mul\n      0x20\n      add\n      dup3\n      add\n      0x40\n      mstore\n      dup1\n      iszero\n      tag_67\n      jumpi\n      dup2\n      0x20\n      add\n      0x20\n      dup3\n      mul\n      dup1\n      calldatasize\n      dup4\n      calldatacopy\n      dup1\n      dup3\n      add\n      swap2\n      pop\n      pop\n      swap1\n      pop\n    tag_67:\n      pop\n        /* \"contracts/Lottery.sol\":1234:1246  participants */\n      0x01\n        /* \"contracts/Lottery.sol\":1234:1274  participants = new address payable [](0) */\n      swap1\n      dup1\n      mload\n      swap1\n      0x20\n      add\n      swap1\n      tag_68\n      swap3\n      swap2\n      swap1\n      tag_69\n      jump\t// in\n    tag_68:\n      pop\n        /* \"contracts/Lottery.sol\":899:1282  {... */\n      pop\n      pop\n      pop\n        /* \"contracts/Lottery.sol\":864:1282  function selectWinner() public... */\n      jump\t// out\n        /* \"contracts/Lottery.sol\":212:250  address payable [] public participants */\n    tag_27:\n      0x01\n      dup2\n      dup2\n      sload\n      dup2\n      lt\n      tag_70\n      jumpi\n      0x00\n      dup1\n      revert\n    tag_70:\n      swap1\n      0x00\n      mstore\n      keccak256(0x00, 0x20)\n      add\n      0x00\n      swap2\n      pop\n      sload\n      swap1\n      0x0100\n      exp\n      swap1\n      div\n      0xffffffffffffffffffffffffffffffffffffffff\n      and\n      dup2\n      jump\t// out\n        /* \"contracts/Lottery.sol\":184:206  address public manager */\n    tag_32:\n      0x00\n      dup1\n      sload\n      swap1\n      0x0100\n      exp\n      swap1\n      div\n      0xffffffffffffffffffffffffffffffffffffffff\n      and\n      dup2\n      jump\t// out\n        /* \"contracts/Lottery.sol\":1288:1413  function getBalanceOfAddress(address account) public view returns(uint) ... */\n    tag_39:\n        /* \"contracts/Lottery.sol\":1354:1358  uint */\n      0x00\n        /* \"contracts/Lottery.sol\":1390:1397  account */\n      dup2\n        /* \"contracts/Lottery.sol\":1382:1406  address(account).balance */\n      0xffffffffffffffffffffffffffffffffffffffff\n      and\n      balance\n        /* \"contracts/Lottery.sol\":1375:1406  return address(account).balance */\n      swap1\n      pop\n        /* \"contracts/Lottery.sol\":1288:1413  function getBalanceOfAddress(address account) public view returns(uint) ... */\n      swap2\n      swap1\n      pop\n      jump\t// out\n        /* \"contracts/Lottery.sol\":686:858  function getRandomAddress() public view returns(uint) ... */\n    tag_43:\n        /* \"contracts/Lottery.sol\":734:738  uint */\n      0x00\n        /* \"contracts/Lottery.sol\":794:810  block.difficulty */\n      prevrandao\n        /* \"contracts/Lottery.sol\":812:827  block.timestamp */\n      timestamp\n        /* \"contracts/Lottery.sol\":829:841  participants */\n      0x01\n        /* \"contracts/Lottery.sol\":829:848  participants.length */\n      dup1\n      sload\n      swap1\n      pop\n        /* \"contracts/Lottery.sol\":777:849  abi.encodePacked(block.difficulty, block.timestamp, participants.length) */\n      add(0x20, mload(0x40))\n      tag_74\n      swap4\n      swap3\n      swap2\n      swap1\n      tag_75\n      jump\t// in\n    tag_74:\n      mload(0x40)\n      0x20\n      dup2\n      dup4\n      sub\n      sub\n      dup2\n      mstore\n      swap1\n      0x40\n      mstore\n        /* \"contracts/Lottery.sol\":767:850  keccak256(abi.encodePacked(block.difficulty, block.timestamp, participants.length)) */\n      dup1\n      mload\n      swap1\n      0x20\n      add\n      keccak256\n        /* \"contracts/Lottery.sol\":762:851  uint(keccak256(abi.encodePacked(block.difficulty, block.timestamp, participants.length))) */\n      0x00\n      shr\n        /* \"contracts/Lottery.sol\":755:851  return uint(keccak256(abi.encodePacked(block.difficulty, block.timestamp, participants.length))) */\n      swap1\n      pop\n        /* \"contracts/Lottery.sol\":686:858  function getRandomAddress() public view returns(uint) ... */\n      swap1\n      jump\t// out\n    tag_69:\n      dup3\n      dup1\n      sload\n      dup3\n      dup3\n      sstore\n      swap1\n      0x00\n      mstore\n      keccak256(0x00, 0x20)\n      swap1\n      dup2\n      add\n      swap3\n      dup3\n      iszero\n      tag_76\n      jumpi\n      swap2\n      0x20\n      mul\n      dup3\n      add\n    tag_77:\n      dup3\n      dup2\n      gt\n      iszero\n      tag_78\n      jumpi\n      dup3\n      mload\n      dup3\n      exp(0x0100, 0x00)\n      dup2\n      sload\n      dup2\n      0xffffffffffffffffffffffffffffffffffffffff\n      mul\n      not\n      and\n      swap1\n      dup4\n      0xffffffffffffffffffffffffffffffffffffffff\n      and\n      mul\n      or\n      swap1\n      sstore\n      pop\n      swap2\n      0x20\n      add\n      swap2\n      swap1\n      0x01\n      add\n      swap1\n      jump(tag_77)\n    tag_78:\n    tag_76:\n      pop\n      swap1\n      pop\n      tag_79\n      swap2\n      swap1\n      tag_80\n      jump\t// in\n    tag_79:\n      pop\n      swap1\n      jump\t// out\n    tag_80:\n    tag_81:\n      dup1\n      dup3\n      gt\n      iszero\n      tag_82\n      jumpi\n      0x00\n      dup2\n      0x00\n      swap1\n      sstore\n      pop\n      0x01\n      add\n      jump(tag_81)\n    tag_82:\n      pop\n      swap1\n      jump\t// out\n        /* \"#utility.yul\":7:176   */\n    tag_83:\n        /* \"#utility.yul\":91:102   */\n      0x00\n        /* \"#utility.yul\":125:131   */\n      dup3\n        /* \"#utility.yul\":120:123   */\n      dup3\n        /* \"#utility.yul\":113:132   */\n      mstore\n        /* \"#utility.yul\":165:169   */\n      0x20\n        /* \"#utility.yul\":160:163   */\n      dup3\n        /* \"#utility.yul\":156:170   */\n      add\n        /* \"#utility.yul\":141:170   */\n      swap1\n      pop\n        /* \"#utility.yul\":7:176   */\n      swap3\n      swap2\n      pop\n      pop\n      jump\t// out\n        /* \"#utility.yul\":182:404   */\n    tag_84:\n        /* \"#utility.yul\":322:356   */\n      0x4d696e696d756d20616d6f756e74206973206c657373207468616e2032206574\n        /* \"#utility.yul\":318:319   */\n      0x00\n        /* \"#utility.yul\":310:316   */\n      dup3\n        /* \"#utility.yul\":306:320   */\n      add\n        /* \"#utility.yul\":299:357   */\n      mstore\n        /* \"#utility.yul\":391:396   */\n      0x6865720000000000000000000000000000000000000000000000000000000000\n        /* \"#utility.yul\":386:388   */\n      0x20\n        /* \"#utility.yul\":378:384   */\n      dup3\n        /* \"#utility.yul\":374:389   */\n      add\n        /* \"#utility.yul\":367:397   */\n      mstore\n        /* \"#utility.yul\":182:404   */\n      pop\n      jump\t// out\n        /* \"#utility.yul\":410:776   */\n    tag_85:\n        /* \"#utility.yul\":552:555   */\n      0x00\n        /* \"#utility.yul\":573:640   */\n      tag_111\n        /* \"#utility.yul\":637:639   */\n      0x23\n        /* \"#utility.yul\":632:635   */\n      dup4\n        /* \"#utility.yul\":573:640   */\n      tag_83\n      jump\t// in\n    tag_111:\n        /* \"#utility.yul\":566:640   */\n      swap2\n      pop\n        /* \"#utility.yul\":649:742   */\n      tag_112\n        /* \"#utility.yul\":738:741   */\n      dup3\n        /* \"#utility.yul\":649:742   */\n      tag_84\n      jump\t// in\n    tag_112:\n        /* \"#utility.yul\":767:769   */\n      0x40\n        /* \"#utility.yul\":762:765   */\n      dup3\n        /* \"#utility.yul\":758:770   */\n      add\n        /* \"#utility.yul\":751:770   */\n      swap1\n      pop\n        /* \"#utility.yul\":410:776   */\n      swap2\n      swap1\n      pop\n      jump\t// out\n        /* \"#utility.yul\":782:1201   */\n    tag_13:\n        /* \"#utility.yul\":948:952   */\n      0x00\n        /* \"#utility.yul\":986:988   */\n      0x20\n        /* \"#utility.yul\":975:984   */\n      dup3\n        /* \"#utility.yul\":971:989   */\n      add\n        /* \"#utility.yul\":963:989   */\n      swap1\n      pop\n        /* \"#utility.yul\":1035:1044   */\n      dup2\n        /* \"#utility.yul\":1029:1033   */\n      dup2\n        /* \"#utility.yul\":1025:1045   */\n      sub\n        /* \"#utility.yul\":1021:1022   */\n      0x00\n        /* \"#utility.yul\":1010:1019   */\n      dup4\n        /* \"#utility.yul\":1006:1023   */\n      add\n        /* \"#utility.yul\":999:1046   */\n      mstore\n        /* \"#utility.yul\":1063:1194   */\n      tag_114\n        /* \"#utility.yul\":1189:1193   */\n      dup2\n        /* \"#utility.yul\":1063:1194   */\n      tag_85\n      jump\t// in\n    tag_114:\n        /* \"#utility.yul\":1055:1194   */\n      swap1\n      pop\n        /* \"#utility.yul\":782:1201   */\n      swap2\n      swap1\n      pop\n      jump\t// out\n        /* \"#utility.yul\":1207:1284   */\n    tag_86:\n        /* \"#utility.yul\":1244:1251   */\n      0x00\n        /* \"#utility.yul\":1273:1278   */\n      dup2\n        /* \"#utility.yul\":1262:1278   */\n      swap1\n      pop\n        /* \"#utility.yul\":1207:1284   */\n      swap2\n      swap1\n      pop\n      jump\t// out\n        /* \"#utility.yul\":1290:1408   */\n    tag_87:\n        /* \"#utility.yul\":1377:1401   */\n      tag_117\n        /* \"#utility.yul\":1395:1400   */\n      dup2\n        /* \"#utility.yul\":1377:1401   */\n      tag_86\n      jump\t// in\n    tag_117:\n        /* \"#utility.yul\":1372:1375   */\n      dup3\n        /* \"#utility.yul\":1365:1402   */\n      mstore\n        /* \"#utility.yul\":1290:1408   */\n      pop\n      pop\n      jump\t// out\n        /* \"#utility.yul\":1414:1636   */\n    tag_19:\n        /* \"#utility.yul\":1507:1511   */\n      0x00\n        /* \"#utility.yul\":1545:1547   */\n      0x20\n        /* \"#utility.yul\":1534:1543   */\n      dup3\n        /* \"#utility.yul\":1530:1548   */\n      add\n        /* \"#utility.yul\":1522:1548   */\n      swap1\n      pop\n        /* \"#utility.yul\":1558:1629   */\n      tag_119\n        /* \"#utility.yul\":1626:1627   */\n      0x00\n        /* \"#utility.yul\":1615:1624   */\n      dup4\n        /* \"#utility.yul\":1611:1628   */\n      add\n        /* \"#utility.yul\":1602:1608   */\n      dup5\n        /* \"#utility.yul\":1558:1629   */\n      tag_87\n      jump\t// in\n    tag_119:\n        /* \"#utility.yul\":1414:1636   */\n      swap3\n      swap2\n      pop\n      pop\n      jump\t// out\n        /* \"#utility.yul\":1723:1840   */\n    tag_89:\n        /* \"#utility.yul\":1832:1833   */\n      0x00\n        /* \"#utility.yul\":1829:1830   */\n      dup1\n        /* \"#utility.yul\":1822:1834   */\n      revert\n        /* \"#utility.yul\":1969:2091   */\n    tag_91:\n        /* \"#utility.yul\":2042:2066   */\n      tag_124\n        /* \"#utility.yul\":2060:2065   */\n      dup2\n        /* \"#utility.yul\":2042:2066   */\n      tag_86\n      jump\t// in\n    tag_124:\n        /* \"#utility.yul\":2035:2040   */\n      dup2\n        /* \"#utility.yul\":2032:2067   */\n      eq\n        /* \"#utility.yul\":2022:2085   */\n      tag_125\n      jumpi\n        /* \"#utility.yul\":2081:2082   */\n      0x00\n        /* \"#utility.yul\":2078:2079   */\n      dup1\n        /* \"#utility.yul\":2071:2083   */\n      revert\n        /* \"#utility.yul\":2022:2085   */\n    tag_125:\n        /* \"#utility.yul\":1969:2091   */\n      pop\n      jump\t// out\n        /* \"#utility.yul\":2097:2236   */\n    tag_92:\n        /* \"#utility.yul\":2143:2148   */\n      0x00\n        /* \"#utility.yul\":2181:2187   */\n      dup2\n        /* \"#utility.yul\":2168:2188   */\n      calldataload\n        /* \"#utility.yul\":2159:2188   */\n      swap1\n      pop\n        /* \"#utility.yul\":2197:2230   */\n      tag_127\n        /* \"#utility.yul\":2224:2229   */\n      dup2\n        /* \"#utility.yul\":2197:2230   */\n      tag_91\n      jump\t// in\n    tag_127:\n        /* \"#utility.yul\":2097:2236   */\n      swap3\n      swap2\n      pop\n      pop\n      jump\t// out\n        /* \"#utility.yul\":2242:2571   */\n    tag_26:\n        /* \"#utility.yul\":2301:2307   */\n      0x00\n        /* \"#utility.yul\":2350:2352   */\n      0x20\n        /* \"#utility.yul\":2338:2347   */\n      dup3\n        /* \"#utility.yul\":2329:2336   */\n      dup5\n        /* \"#utility.yul\":2325:2348   */\n      sub\n        /* \"#utility.yul\":2321:2353   */\n      slt\n        /* \"#utility.yul\":2318:2437   */\n      iszero\n      tag_129\n      jumpi\n        /* \"#utility.yul\":2356:2435   */\n      tag_130\n      tag_89\n      jump\t// in\n    tag_130:\n        /* \"#utility.yul\":2318:2437   */\n    tag_129:\n        /* \"#utility.yul\":2476:2477   */\n      0x00\n        /* \"#utility.yul\":2501:2554   */\n      tag_131\n        /* \"#utility.yul\":2546:2553   */\n      dup5\n        /* \"#utility.yul\":2537:2543   */\n      dup3\n        /* \"#utility.yul\":2526:2535   */\n      dup6\n        /* \"#utility.yul\":2522:2544   */\n      add\n        /* \"#utility.yul\":2501:2554   */\n      tag_92\n      jump\t// in\n    tag_131:\n        /* \"#utility.yul\":2491:2554   */\n      swap2\n      pop\n        /* \"#utility.yul\":2447:2564   */\n      pop\n        /* \"#utility.yul\":2242:2571   */\n      swap3\n      swap2\n      pop\n      pop\n      jump\t// out\n        /* \"#utility.yul\":2577:2703   */\n    tag_93:\n        /* \"#utility.yul\":2614:2621   */\n      0x00\n        /* \"#utility.yul\":2654:2696   */\n      0xffffffffffffffffffffffffffffffffffffffff\n        /* \"#utility.yul\":2647:2652   */\n      dup3\n        /* \"#utility.yul\":2643:2697   */\n      and\n        /* \"#utility.yul\":2632:2697   */\n      swap1\n      pop\n        /* \"#utility.yul\":2577:2703   */\n      swap2\n      swap1\n      pop\n      jump\t// out\n        /* \"#utility.yul\":2709:2813   */\n    tag_94:\n        /* \"#utility.yul\":2754:2761   */\n      0x00\n        /* \"#utility.yul\":2783:2807   */\n      tag_134\n        /* \"#utility.yul\":2801:2806   */\n      dup3\n        /* \"#utility.yul\":2783:2807   */\n      tag_93\n      jump\t// in\n    tag_134:\n        /* \"#utility.yul\":2772:2807   */\n      swap1\n      pop\n        /* \"#utility.yul\":2709:2813   */\n      swap2\n      swap1\n      pop\n      jump\t// out\n        /* \"#utility.yul\":2819:2961   */\n    tag_95:\n        /* \"#utility.yul\":2922:2954   */\n      tag_136\n        /* \"#utility.yul\":2948:2953   */\n      dup2\n        /* \"#utility.yul\":2922:2954   */\n      tag_94\n      jump\t// in\n    tag_136:\n        /* \"#utility.yul\":2917:2920   */\n      dup3\n        /* \"#utility.yul\":2910:2955   */\n      mstore\n        /* \"#utility.yul\":2819:2961   */\n      pop\n      pop\n      jump\t// out\n        /* \"#utility.yul\":2967:3221   */\n    tag_29:\n        /* \"#utility.yul\":3076:3080   */\n      0x00\n        /* \"#utility.yul\":3114:3116   */\n      0x20\n        /* \"#utility.yul\":3103:3112   */\n      dup3\n        /* \"#utility.yul\":3099:3117   */\n      add\n        /* \"#utility.yul\":3091:3117   */\n      swap1\n      pop\n        /* \"#utility.yul\":3127:3214   */\n      tag_138\n        /* \"#utility.yul\":3211:3212   */\n      0x00\n        /* \"#utility.yul\":3200:3209   */\n      dup4\n        /* \"#utility.yul\":3196:3213   */\n      add\n        /* \"#utility.yul\":3187:3193   */\n      dup5\n        /* \"#utility.yul\":3127:3214   */\n      tag_95\n      jump\t// in\n    tag_138:\n        /* \"#utility.yul\":2967:3221   */\n      swap3\n      swap2\n      pop\n      pop\n      jump\t// out\n        /* \"#utility.yul\":3227:3323   */\n    tag_96:\n        /* \"#utility.yul\":3264:3271   */\n      0x00\n        /* \"#utility.yul\":3293:3317   */\n      tag_140\n        /* \"#utility.yul\":3311:3316   */\n      dup3\n        /* \"#utility.yul\":3293:3317   */\n      tag_93\n      jump\t// in\n    tag_140:\n        /* \"#utility.yul\":3282:3317   */\n      swap1\n      pop\n        /* \"#utility.yul\":3227:3323   */\n      swap2\n      swap1\n      pop\n      jump\t// out\n        /* \"#utility.yul\":3329:3447   */\n    tag_97:\n        /* \"#utility.yul\":3416:3440   */\n      tag_142\n        /* \"#utility.yul\":3434:3439   */\n      dup2\n        /* \"#utility.yul\":3416:3440   */\n      tag_96\n      jump\t// in\n    tag_142:\n        /* \"#utility.yul\":3411:3414   */\n      dup3\n        /* \"#utility.yul\":3404:3441   */\n      mstore\n        /* \"#utility.yul\":3329:3447   */\n      pop\n      pop\n      jump\t// out\n        /* \"#utility.yul\":3453:3675   */\n    tag_34:\n        /* \"#utility.yul\":3546:3550   */\n      0x00\n        /* \"#utility.yul\":3584:3586   */\n      0x20\n        /* \"#utility.yul\":3573:3582   */\n      dup3\n        /* \"#utility.yul\":3569:3587   */\n      add\n        /* \"#utility.yul\":3561:3587   */\n      swap1\n      pop\n        /* \"#utility.yul\":3597:3668   */\n      tag_144\n        /* \"#utility.yul\":3665:3666   */\n      0x00\n        /* \"#utility.yul\":3654:3663   */\n      dup4\n        /* \"#utility.yul\":3650:3667   */\n      add\n        /* \"#utility.yul\":3641:3647   */\n      dup5\n        /* \"#utility.yul\":3597:3668   */\n      tag_97\n      jump\t// in\n    tag_144:\n        /* \"#utility.yul\":3453:3675   */\n      swap3\n      swap2\n      pop\n      pop\n      jump\t// out\n        /* \"#utility.yul\":3681:3803   */\n    tag_98:\n        /* \"#utility.yul\":3754:3778   */\n      tag_146\n        /* \"#utility.yul\":3772:3777   */\n      dup2\n        /* \"#utility.yul\":3754:3778   */\n      tag_96\n      jump\t// in\n    tag_146:\n        /* \"#utility.yul\":3747:3752   */\n      dup2\n        /* \"#utility.yul\":3744:3779   */\n      eq\n        /* \"#utility.yul\":3734:3797   */\n      tag_147\n      jumpi\n        /* \"#utility.yul\":3793:3794   */\n      0x00\n        /* \"#utility.yul\":3790:3791   */\n      dup1\n        /* \"#utility.yul\":3783:3795   */\n      revert\n        /* \"#utility.yul\":3734:3797   */\n    tag_147:\n        /* \"#utility.yul\":3681:3803   */\n      pop\n      jump\t// out\n        /* \"#utility.yul\":3809:3948   */\n    tag_99:\n        /* \"#utility.yul\":3855:3860   */\n      0x00\n        /* \"#utility.yul\":3893:3899   */\n      dup2\n        /* \"#utility.yul\":3880:3900   */\n      calldataload\n        /* \"#utility.yul\":3871:3900   */\n      swap1\n      pop\n        /* \"#utility.yul\":3909:3942   */\n      tag_149\n        /* \"#utility.yul\":3936:3941   */\n      dup2\n        /* \"#utility.yul\":3909:3942   */\n      tag_98\n      jump\t// in\n    tag_149:\n        /* \"#utility.yul\":3809:3948   */\n      swap3\n      swap2\n      pop\n      pop\n      jump\t// out\n        /* \"#utility.yul\":3954:4283   */\n    tag_38:\n        /* \"#utility.yul\":4013:4019   */\n      0x00\n        /* \"#utility.yul\":4062:4064   */\n      0x20\n        /* \"#utility.yul\":4050:4059   */\n      dup3\n        /* \"#utility.yul\":4041:4048   */\n      dup5\n        /* \"#utility.yul\":4037:4060   */\n      sub\n        /* \"#utility.yul\":4033:4065   */\n      slt\n        /* \"#utility.yul\":4030:4149   */\n      iszero\n      tag_151\n      jumpi\n        /* \"#utility.yul\":4068:4147   */\n      tag_152\n      tag_89\n      jump\t// in\n    tag_152:\n        /* \"#utility.yul\":4030:4149   */\n    tag_151:\n        /* \"#utility.yul\":4188:4189   */\n      0x00\n        /* \"#utility.yul\":4213:4266   */\n      tag_153\n        /* \"#utility.yul\":4258:4265   */\n      dup5\n        /* \"#utility.yul\":4249:4255   */\n      dup3\n        /* \"#utility.yul\":4238:4247   */\n      dup6\n        /* \"#utility.yul\":4234:4256   */\n      add\n        /* \"#utility.yul\":4213:4266   */\n      tag_99\n      jump\t// in\n    tag_153:\n        /* \"#utility.yul\":4203:4266   */\n      swap2\n      pop\n        /* \"#utility.yul\":4159:4276   */\n      pop\n        /* \"#utility.yul\":3954:4283   */\n      swap3\n      swap2\n      pop\n      pop\n      jump\t// out\n        /* \"#utility.yul\":4289:4462   */\n    tag_100:\n        /* \"#utility.yul\":4429:4454   */\n      0x596f7520617265206e6f7420746865206d616e61676572000000000000000000\n        /* \"#utility.yul\":4425:4426   */\n      0x00\n        /* \"#utility.yul\":4417:4423   */\n      dup3\n        /* \"#utility.yul\":4413:4427   */\n      add\n        /* \"#utility.yul\":4406:4455   */\n      mstore\n        /* \"#utility.yul\":4289:4462   */\n      pop\n      jump\t// out\n        /* \"#utility.yul\":4468:4834   */\n    tag_101:\n        /* \"#utility.yul\":4610:4613   */\n      0x00\n        /* \"#utility.yul\":4631:4698   */\n      tag_156\n        /* \"#utility.yul\":4695:4697   */\n      0x17\n        /* \"#utility.yul\":4690:4693   */\n      dup4\n        /* \"#utility.yul\":4631:4698   */\n      tag_83\n      jump\t// in\n    tag_156:\n        /* \"#utility.yul\":4624:4698   */\n      swap2\n      pop\n        /* \"#utility.yul\":4707:4800   */\n      tag_157\n        /* \"#utility.yul\":4796:4799   */\n      dup3\n        /* \"#utility.yul\":4707:4800   */\n      tag_100\n      jump\t// in\n    tag_157:\n        /* \"#utility.yul\":4825:4827   */\n      0x20\n        /* \"#utility.yul\":4820:4823   */\n      dup3\n        /* \"#utility.yul\":4816:4828   */\n      add\n        /* \"#utility.yul\":4809:4828   */\n      swap1\n      pop\n        /* \"#utility.yul\":4468:4834   */\n      swap2\n      swap1\n      pop\n      jump\t// out\n        /* \"#utility.yul\":4840:5259   */\n    tag_48:\n        /* \"#utility.yul\":5006:5010   */\n      0x00\n        /* \"#utility.yul\":5044:5046   */\n      0x20\n        /* \"#utility.yul\":5033:5042   */\n      dup3\n        /* \"#utility.yul\":5029:5047   */\n      add\n        /* \"#utility.yul\":5021:5047   */\n      swap1\n      pop\n        /* \"#utility.yul\":5093:5102   */\n      dup2\n        /* \"#utility.yul\":5087:5091   */\n      dup2\n        /* \"#utility.yul\":5083:5103   */\n      sub\n        /* \"#utility.yul\":5079:5080   */\n      0x00\n        /* \"#utility.yul\":5068:5077   */\n      dup4\n        /* \"#utility.yul\":5064:5081   */\n      add\n        /* \"#utility.yul\":5057:5104   */\n      mstore\n        /* \"#utility.yul\":5121:5252   */\n      tag_159\n        /* \"#utility.yul\":5247:5251   */\n      dup2\n        /* \"#utility.yul\":5121:5252   */\n      tag_101\n      jump\t// in\n    tag_159:\n        /* \"#utility.yul\":5113:5252   */\n      swap1\n      pop\n        /* \"#utility.yul\":4840:5259   */\n      swap2\n      swap1\n      pop\n      jump\t// out\n        /* \"#utility.yul\":5265:5489   */\n    tag_102:\n        /* \"#utility.yul\":5405:5439   */\n      0x4f6e6c79206d616e616765722063616e2073656c6563742072616e646f6d2077\n        /* \"#utility.yul\":5401:5402   */\n      0x00\n        /* \"#utility.yul\":5393:5399   */\n      dup3\n        /* \"#utility.yul\":5389:5403   */\n      add\n        /* \"#utility.yul\":5382:5440   */\n      mstore\n        /* \"#utility.yul\":5474:5481   */\n      0x696e6e6572000000000000000000000000000000000000000000000000000000\n        /* \"#utility.yul\":5469:5471   */\n      0x20\n        /* \"#utility.yul\":5461:5467   */\n      dup3\n        /* \"#utility.yul\":5457:5472   */\n      add\n        /* \"#utility.yul\":5450:5482   */\n      mstore\n        /* \"#utility.yul\":5265:5489   */\n      pop\n      jump\t// out\n        /* \"#utility.yul\":5495:5861   */\n    tag_103:\n        /* \"#utility.yul\":5637:5640   */\n      0x00\n        /* \"#utility.yul\":5658:5725   */\n      tag_162\n        /* \"#utility.yul\":5722:5724   */\n      0x25\n        /* \"#utility.yul\":5717:5720   */\n      dup4\n        /* \"#utility.yul\":5658:5725   */\n      tag_83\n      jump\t// in\n    tag_162:\n        /* \"#utility.yul\":5651:5725   */\n      swap2\n      pop\n        /* \"#utility.yul\":5734:5827   */\n      tag_163\n        /* \"#utility.yul\":5823:5826   */\n      dup3\n        /* \"#utility.yul\":5734:5827   */\n      tag_102\n      jump\t// in\n    tag_163:\n        /* \"#utility.yul\":5852:5854   */\n      0x40\n        /* \"#utility.yul\":5847:5850   */\n      dup3\n        /* \"#utility.yul\":5843:5855   */\n      add\n        /* \"#utility.yul\":5836:5855   */\n      swap1\n      pop\n        /* \"#utility.yul\":5495:5861   */\n      swap2\n      swap1\n      pop\n      jump\t// out\n        /* \"#utility.yul\":5867:6286   */\n    tag_52:\n        /* \"#utility.yul\":6033:6037   */\n      0x00\n        /* \"#utility.yul\":6071:6073   */\n      0x20\n        /* \"#utility.yul\":6060:6069   */\n      dup3\n        /* \"#utility.yul\":6056:6074   */\n      add\n        /* \"#utility.yul\":6048:6074   */\n      swap1\n      pop\n        /* \"#utility.yul\":6120:6129   */\n      dup2\n        /* \"#utility.yul\":6114:6118   */\n      dup2\n        /* \"#utility.yul\":6110:6130   */\n      sub\n        /* \"#utility.yul\":6106:6107   */\n      0x00\n        /* \"#utility.yul\":6095:6104   */\n      dup4\n        /* \"#utility.yul\":6091:6108   */\n      add\n        /* \"#utility.yul\":6084:6131   */\n      mstore\n        /* \"#utility.yul\":6148:6279   */\n      tag_165\n        /* \"#utility.yul\":6274:6278   */\n      dup2\n        /* \"#utility.yul\":6148:6279   */\n      tag_103\n      jump\t// in\n    tag_165:\n        /* \"#utility.yul\":6140:6279   */\n      swap1\n      pop\n        /* \"#utility.yul\":5867:6286   */\n      swap2\n      swap1\n      pop\n      jump\t// out\n        /* \"#utility.yul\":6292:6472   */\n    tag_104:\n        /* \"#utility.yul\":6340:6417   */\n      0x4e487b7100000000000000000000000000000000000000000000000000000000\n        /* \"#utility.yul\":6337:6338   */\n      0x00\n        /* \"#utility.yul\":6330:6418   */\n      mstore\n        /* \"#utility.yul\":6437:6441   */\n      0x12\n        /* \"#utility.yul\":6434:6435   */\n      0x04\n        /* \"#utility.yul\":6427:6442   */\n      mstore\n        /* \"#utility.yul\":6461:6465   */\n      0x24\n        /* \"#utility.yul\":6458:6459   */\n      0x00\n        /* \"#utility.yul\":6451:6466   */\n      revert\n        /* \"#utility.yul\":6478:6654   */\n    tag_56:\n        /* \"#utility.yul\":6510:6511   */\n      0x00\n        /* \"#utility.yul\":6527:6547   */\n      tag_168\n        /* \"#utility.yul\":6545:6546   */\n      dup3\n        /* \"#utility.yul\":6527:6547   */\n      tag_86\n      jump\t// in\n    tag_168:\n        /* \"#utility.yul\":6522:6547   */\n      swap2\n      pop\n        /* \"#utility.yul\":6561:6581   */\n      tag_169\n        /* \"#utility.yul\":6579:6580   */\n      dup4\n        /* \"#utility.yul\":6561:6581   */\n      tag_86\n      jump\t// in\n    tag_169:\n        /* \"#utility.yul\":6556:6581   */\n      swap3\n      pop\n        /* \"#utility.yul\":6600:6601   */\n      dup3\n        /* \"#utility.yul\":6590:6625   */\n      tag_170\n      jumpi\n        /* \"#utility.yul\":6605:6623   */\n      tag_171\n      tag_104\n      jump\t// in\n    tag_171:\n        /* \"#utility.yul\":6590:6625   */\n    tag_170:\n        /* \"#utility.yul\":6646:6647   */\n      dup3\n        /* \"#utility.yul\":6643:6644   */\n      dup3\n        /* \"#utility.yul\":6639:6648   */\n      mod\n        /* \"#utility.yul\":6634:6648   */\n      swap1\n      pop\n        /* \"#utility.yul\":6478:6654   */\n      swap3\n      swap2\n      pop\n      pop\n      jump\t// out\n        /* \"#utility.yul\":6660:6840   */\n    tag_59:\n        /* \"#utility.yul\":6708:6785   */\n      0x4e487b7100000000000000000000000000000000000000000000000000000000\n        /* \"#utility.yul\":6705:6706   */\n      0x00\n        /* \"#utility.yul\":6698:6786   */\n      mstore\n        /* \"#utility.yul\":6805:6809   */\n      0x32\n        /* \"#utility.yul\":6802:6803   */\n      0x04\n        /* \"#utility.yul\":6795:6810   */\n      mstore\n        /* \"#utility.yul\":6829:6833   */\n      0x24\n        /* \"#utility.yul\":6826:6827   */\n      0x00\n        /* \"#utility.yul\":6819:6834   */\n      revert\n        /* \"#utility.yul\":6846:7026   */\n    tag_66:\n        /* \"#utility.yul\":6894:6971   */\n      0x4e487b7100000000000000000000000000000000000000000000000000000000\n        /* \"#utility.yul\":6891:6892   */\n      0x00\n        /* \"#utility.yul\":6884:6972   */\n      mstore\n        /* \"#utility.yul\":6991:6995   */\n      0x41\n        /* \"#utility.yul\":6988:6989   */\n      0x04\n        /* \"#utility.yul\":6981:6996   */\n      mstore\n        /* \"#utility.yul\":7015:7019   */\n      0x24\n        /* \"#utility.yul\":7012:7013   */\n      0x00\n        /* \"#utility.yul\":7005:7020   */\n      revert\n        /* \"#utility.yul\":7032:7111   */\n    tag_105:\n        /* \"#utility.yul\":7071:7078   */\n      0x00\n        /* \"#utility.yul\":7100:7105   */\n      dup2\n        /* \"#utility.yul\":7089:7105   */\n      swap1\n      pop\n        /* \"#utility.yul\":7032:7111   */\n      swap2\n      swap1\n      pop\n      jump\t// out\n        /* \"#utility.yul\":7117:7274   */\n    tag_106:\n        /* \"#utility.yul\":7222:7267   */\n      tag_176\n        /* \"#utility.yul\":7242:7266   */\n      tag_177\n        /* \"#utility.yul\":7260:7265   */\n      dup3\n        /* \"#utility.yul\":7242:7266   */\n      tag_86\n      jump\t// in\n    tag_177:\n        /* \"#utility.yul\":7222:7267   */\n      tag_105\n      jump\t// in\n    tag_176:\n        /* \"#utility.yul\":7217:7220   */\n      dup3\n        /* \"#utility.yul\":7210:7268   */\n      mstore\n        /* \"#utility.yul\":7117:7274   */\n      pop\n      pop\n      jump\t// out\n        /* \"#utility.yul\":7280:7818   */\n    tag_75:\n        /* \"#utility.yul\":7448:7451   */\n      0x00\n        /* \"#utility.yul\":7463:7538   */\n      tag_179\n        /* \"#utility.yul\":7534:7537   */\n      dup3\n        /* \"#utility.yul\":7525:7531   */\n      dup7\n        /* \"#utility.yul\":7463:7538   */\n      tag_106\n      jump\t// in\n    tag_179:\n        /* \"#utility.yul\":7563:7565   */\n      0x20\n        /* \"#utility.yul\":7558:7561   */\n      dup3\n        /* \"#utility.yul\":7554:7566   */\n      add\n        /* \"#utility.yul\":7547:7566   */\n      swap2\n      pop\n        /* \"#utility.yul\":7576:7651   */\n      tag_180\n        /* \"#utility.yul\":7647:7650   */\n      dup3\n        /* \"#utility.yul\":7638:7644   */\n      dup6\n        /* \"#utility.yul\":7576:7651   */\n      tag_106\n      jump\t// in\n    tag_180:\n        /* \"#utility.yul\":7676:7678   */\n      0x20\n        /* \"#utility.yul\":7671:7674   */\n      dup3\n        /* \"#utility.yul\":7667:7679   */\n      add\n        /* \"#utility.yul\":7660:7679   */\n      swap2\n      pop\n        /* \"#utility.yul\":7689:7764   */\n      tag_181\n        /* \"#utility.yul\":7760:7763   */\n      dup3\n        /* \"#utility.yul\":7751:7757   */\n      dup5\n        /* \"#utility.yul\":7689:7764   */\n      tag_106\n      jump\t// in\n    tag_181:\n        /* \"#utility.yul\":7789:7791   */\n      0x20\n        /* \"#utility.yul\":7784:7787   */\n      dup3\n        /* \"#utility.yul\":7780:7792   */\n      add\n        /* \"#utility.yul\":7773:7792   */\n      swap2\n      pop\n        /* \"#utility.yul\":7809:7812   */\n      dup2\n        /* \"#utility.yul\":7802:7812   */\n      swap1\n      pop\n        /* \"#utility.yul\":7280:7818   */\n      swap5\n      swap4\n      pop\n      pop\n      pop\n      pop\n      jump\t// out\n\n    auxdata: 0xa264697066735822122067360504d4b09ca5bb2a95827f247bf494c2a4723f0bb6c6f9467d66f7355c1a64736f6c63430008120033\n}\n",
				"bytecode": {
					"linkReferences": {},
					"object": "608060405234801561001057600080fd5b50336000806101000a81548173ffffffffffffffffffffffffffffffffffffffff021916908373ffffffffffffffffffffffffffffffffffffffff160217905550610a4c806100606000396000f3fe6080604052600436106100595760003560e01c806312065fe01461011157806333a99e041461013c57806335c1d34914610153578063481c6a7514610190578063a665c4a4146101bb578063edd0eb06146101f85761010c565b3661010c57671bc16d674ec8000034146100a8576040517f08c379a000000000000000000000000000000000000000000000000000000000815260040161009f90610659565b60405180910390fd5b6001339080600181540180825580915050600190039060005260206000200160009091909190916101000a81548173ffffffffffffffffffffffffffffffffffffffff021916908373ffffffffffffffffffffffffffffffffffffffff1602179055005b600080fd5b34801561011d57600080fd5b50610126610223565b6040516101339190610692565b60405180910390f35b34801561014857600080fd5b506101516102ba565b005b34801561015f57600080fd5b5061017a600480360381019061017591906106de565b610471565b604051610187919061074c565b60405180910390f35b34801561019c57600080fd5b506101a56104b0565b6040516101b29190610788565b60405180910390f35b3480156101c757600080fd5b506101e260048036038101906101dd91906107cf565b6104d4565b6040516101ef9190610692565b60405180910390f35b34801561020457600080fd5b5061020d6104f5565b60405161021a9190610692565b60405180910390f35b60008060009054906101000a900473ffffffffffffffffffffffffffffffffffffffff1673ffffffffffffffffffffffffffffffffffffffff163373ffffffffffffffffffffffffffffffffffffffff16146102b4576040517f08c379a00000000000000000000000000000000000000000000000000000000081526004016102ab90610848565b60405180910390fd5b47905090565b60008054906101000a900473ffffffffffffffffffffffffffffffffffffffff1673ffffffffffffffffffffffffffffffffffffffff163373ffffffffffffffffffffffffffffffffffffffff1614610348576040517f08c379a000000000000000000000000000000000000000000000000000000000815260040161033f906108da565b60405180910390fd5b6003600180549050101561035b57600080fd5b60006103656104f5565b90506000806001805490508361037b9190610929565b9050600181815481106103915761039061095a565b5b9060005260206000200160009054906101000a900473ffffffffffffffffffffffffffffffffffffffff1691508173ffffffffffffffffffffffffffffffffffffffff166108fc6103e0610223565b9081150290604051600060405180830381858888f1935050505015801561040b573d6000803e3d6000fd5b50600067ffffffffffffffff81111561042757610426610989565b5b6040519080825280602002602001820160405280156104555781602001602082028036833780820191505090505b506001908051906020019061046b92919061052f565b50505050565b6001818154811061048157600080fd5b906000526020600020016000915054906101000a900473ffffffffffffffffffffffffffffffffffffffff1681565b60008054906101000a900473ffffffffffffffffffffffffffffffffffffffff1681565b60008173ffffffffffffffffffffffffffffffffffffffff16319050919050565b60004442600180549050604051602001610511939291906109d9565b6040516020818303038152906040528051906020012060001c905090565b8280548282559060005260206000209081019282156105a8579160200282015b828111156105a75782518260006101000a81548173ffffffffffffffffffffffffffffffffffffffff021916908373ffffffffffffffffffffffffffffffffffffffff1602179055509160200191906001019061054f565b5b5090506105b591906105b9565b5090565b5b808211156105d25760008160009055506001016105ba565b5090565b600082825260208201905092915050565b7f4d696e696d756d20616d6f756e74206973206c657373207468616e203220657460008201527f6865720000000000000000000000000000000000000000000000000000000000602082015250565b60006106436023836105d6565b915061064e826105e7565b604082019050919050565b6000602082019050818103600083015261067281610636565b9050919050565b6000819050919050565b61068c81610679565b82525050565b60006020820190506106a76000830184610683565b92915050565b600080fd5b6106bb81610679565b81146106c657600080fd5b50565b6000813590506106d8816106b2565b92915050565b6000602082840312156106f4576106f36106ad565b5b6000610702848285016106c9565b91505092915050565b600073ffffffffffffffffffffffffffffffffffffffff82169050919050565b60006107368261070b565b9050919050565b6107468161072b565b82525050565b6000602082019050610761600083018461073d565b92915050565b60006107728261070b565b9050919050565b61078281610767565b82525050565b600060208201905061079d6000830184610779565b92915050565b6107ac81610767565b81146107b757600080fd5b50565b6000813590506107c9816107a3565b92915050565b6000602082840312156107e5576107e46106ad565b5b60006107f3848285016107ba565b91505092915050565b7f596f7520617265206e6f7420746865206d616e61676572000000000000000000600082015250565b60006108326017836105d6565b915061083d826107fc565b602082019050919050565b6000602082019050818103600083015261086181610825565b9050919050565b7f4f6e6c79206d616e616765722063616e2073656c6563742072616e646f6d207760008201527f696e6e6572000000000000000000000000000000000000000000000000000000602082015250565b60006108c46025836105d6565b91506108cf82610868565b604082019050919050565b600060208201905081810360008301526108f3816108b7565b9050919050565b7f4e487b7100000000000000000000000000000000000000000000000000000000600052601260045260246000fd5b600061093482610679565b915061093f83610679565b92508261094f5761094e6108fa565b5b828206905092915050565b7f4e487b7100000000000000000000000000000000000000000000000000000000600052603260045260246000fd5b7f4e487b7100000000000000000000000000000000000000000000000000000000600052604160045260246000fd5b6000819050919050565b6109d36109ce82610679565b6109b8565b82525050565b60006109e582866109c2565b6020820191506109f582856109c2565b602082019150610a0582846109c2565b60208201915081905094935050505056fea264697066735822122067360504d4b09ca5bb2a95827f247bf494c2a4723f0bb6c6f9467d66f7355c1a64736f6c63430008120033",
					"opcodes": "PUSH1 0x80 PUSH1 0x40 MSTORE CALLVALUE DUP1 ISZERO PUSH2 0x10 JUMPI PUSH1 0x0 DUP1 REVERT JUMPDEST POP CALLER PUSH1 0x0 DUP1 PUSH2 0x100 EXP DUP2 SLOAD DUP2 PUSH20 0xFFFFFFFFFFFFFFFFFFFFFFFFFFFFFFFFFFFFFFFF MUL NOT AND SWAP1 DUP4 PUSH20 0xFFFFFFFFFFFFFFFFFFFFFFFFFFFFFFFFFFFFFFFF AND MUL OR SWAP1 SSTORE POP PUSH2 0xA4C DUP1 PUSH2 0x60 PUSH1 0x0 CODECOPY PUSH1 0x0 RETURN INVALID PUSH1 0x80 PUSH1 0x40 MSTORE PUSH1 0x4 CALLDATASIZE LT PUSH2 0x59 JUMPI PUSH1 0x0 CALLDATALOAD PUSH1 0xE0 SHR DUP1 PUSH4 0x12065FE0 EQ PUSH2 0x111 JUMPI DUP1 PUSH4 0x33A99E04 EQ PUSH2 0x13C JUMPI DUP1 PUSH4 0x35C1D349 EQ PUSH2 0x153 JUMPI DUP1 PUSH4 0x481C6A75 EQ PUSH2 0x190 JUMPI DUP1 PUSH4 0xA665C4A4 EQ PUSH2 0x1BB JUMPI DUP1 PUSH4 0xEDD0EB06 EQ PUSH2 0x1F8 JUMPI PUSH2 0x10C JUMP JUMPDEST CALLDATASIZE PUSH2 0x10C JUMPI PUSH8 0x1BC16D674EC80000 CALLVALUE EQ PUSH2 0xA8 JUMPI PUSH1 0x40 MLOAD PUSH32 0x8C379A000000000000000000000000000000000000000000000000000000000 DUP2 MSTORE PUSH1 0x4 ADD PUSH2 0x9F SWAP1 PUSH2 0x659 JUMP JUMPDEST PUSH1 0x40 MLOAD DUP1 SWAP2 SUB SWAP1 REVERT JUMPDEST PUSH1 0x1 CALLER SWAP1 DUP1 PUSH1 0x1 DUP2 SLOAD ADD DUP1 DUP3 SSTORE DUP1 SWAP2 POP POP PUSH1 0x1 SWAP1 SUB SWAP1 PUSH1 0x0 MSTORE PUSH1 0x20 PUSH1 0x0 KECCAK256 ADD PUSH1 0x0 SWAP1 SWAP2 SWAP1 SWAP2 SWAP1 SWAP2 PUSH2 0x100 EXP DUP2 SLOAD DUP2 PUSH20 0xFFFFFFFFFFFFFFFFFFFFFFFFFFFFFFFFFFFFFFFF MUL NOT AND SWAP1 DUP4 PUSH20 0xFFFFFFFFFFFFFFFFFFFFFFFFFFFFFFFFFFFFFFFF AND MUL OR SWAP1 SSTORE STOP JUMPDEST PUSH1 0x0 DUP1 REVERT JUMPDEST CALLVALUE DUP1 ISZERO PUSH2 0x11D JUMPI PUSH1 0x0 DUP1 REVERT JUMPDEST POP PUSH2 0x126 PUSH2 0x223 JUMP JUMPDEST PUSH1 0x40 MLOAD PUSH2 0x133 SWAP2 SWAP1 PUSH2 0x692 JUMP JUMPDEST PUSH1 0x40 MLOAD DUP1 SWAP2 SUB SWAP1 RETURN JUMPDEST CALLVALUE DUP1 ISZERO PUSH2 0x148 JUMPI PUSH1 0x0 DUP1 REVERT JUMPDEST POP PUSH2 0x151 PUSH2 0x2BA JUMP JUMPDEST STOP JUMPDEST CALLVALUE DUP1 ISZERO PUSH2 0x15F JUMPI PUSH1 0x0 DUP1 REVERT JUMPDEST POP PUSH2 0x17A PUSH1 0x4 DUP1 CALLDATASIZE SUB DUP2 ADD SWAP1 PUSH2 0x175 SWAP2 SWAP1 PUSH2 0x6DE JUMP JUMPDEST PUSH2 0x471 JUMP JUMPDEST PUSH1 0x40 MLOAD PUSH2 0x187 SWAP2 SWAP1 PUSH2 0x74C JUMP JUMPDEST PUSH1 0x40 MLOAD DUP1 SWAP2 SUB SWAP1 RETURN JUMPDEST CALLVALUE DUP1 ISZERO PUSH2 0x19C JUMPI PUSH1 0x0 DUP1 REVERT JUMPDEST POP PUSH2 0x1A5 PUSH2 0x4B0 JUMP JUMPDEST PUSH1 0x40 MLOAD PUSH2 0x1B2 SWAP2 SWAP1 PUSH2 0x788 JUMP JUMPDEST PUSH1 0x40 MLOAD DUP1 SWAP2 SUB SWAP1 RETURN JUMPDEST CALLVALUE DUP1 ISZERO PUSH2 0x1C7 JUMPI PUSH1 0x0 DUP1 REVERT JUMPDEST POP PUSH2 0x1E2 PUSH1 0x4 DUP1 CALLDATASIZE SUB DUP2 ADD SWAP1 PUSH2 0x1DD SWAP2 SWAP1 PUSH2 0x7CF JUMP JUMPDEST PUSH2 0x4D4 JUMP JUMPDEST PUSH1 0x40 MLOAD PUSH2 0x1EF SWAP2 SWAP1 PUSH2 0x692 JUMP JUMPDEST PUSH1 0x40 MLOAD DUP1 SWAP2 SUB SWAP1 RETURN JUMPDEST CALLVALUE DUP1 ISZERO PUSH2 0x204 JUMPI PUSH1 0x0 DUP1 REVERT JUMPDEST POP PUSH2 0x20D PUSH2 0x4F5 JUMP JUMPDEST PUSH1 0x40 MLOAD PUSH2 0x21A SWAP2 SWAP1 PUSH2 0x692 JUMP JUMPDEST PUSH1 0x40 MLOAD DUP1 SWAP2 SUB SWAP1 RETURN JUMPDEST PUSH1 0x0 DUP1 PUSH1 0x0 SWAP1 SLOAD SWAP1 PUSH2 0x100 EXP SWAP1 DIV PUSH20 0xFFFFFFFFFFFFFFFFFFFFFFFFFFFFFFFFFFFFFFFF AND PUSH20 0xFFFFFFFFFFFFFFFFFFFFFFFFFFFFFFFFFFFFFFFF AND CALLER PUSH20 0xFFFFFFFFFFFFFFFFFFFFFFFFFFFFFFFFFFFFFFFF AND EQ PUSH2 0x2B4 JUMPI PUSH1 0x40 MLOAD PUSH32 0x8C379A000000000000000000000000000000000000000000000000000000000 DUP2 MSTORE PUSH1 0x4 ADD PUSH2 0x2AB SWAP1 PUSH2 0x848 JUMP JUMPDEST PUSH1 0x40 MLOAD DUP1 SWAP2 SUB SWAP1 REVERT JUMPDEST SELFBALANCE SWAP1 POP SWAP1 JUMP JUMPDEST PUSH1 0x0 DUP1 SLOAD SWAP1 PUSH2 0x100 EXP SWAP1 DIV PUSH20 0xFFFFFFFFFFFFFFFFFFFFFFFFFFFFFFFFFFFFFFFF AND PUSH20 0xFFFFFFFFFFFFFFFFFFFFFFFFFFFFFFFFFFFFFFFF AND CALLER PUSH20 0xFFFFFFFFFFFFFFFFFFFFFFFFFFFFFFFFFFFFFFFF AND EQ PUSH2 0x348 JUMPI PUSH1 0x40 MLOAD PUSH32 0x8C379A000000000000000000000000000000000000000000000000000000000 DUP2 MSTORE PUSH1 0x4 ADD PUSH2 0x33F SWAP1 PUSH2 0x8DA JUMP JUMPDEST PUSH1 0x40 MLOAD DUP1 SWAP2 SUB SWAP1 REVERT JUMPDEST PUSH1 0x3 PUSH1 0x1 DUP1 SLOAD SWAP1 POP LT ISZERO PUSH2 0x35B JUMPI PUSH1 0x0 DUP1 REVERT JUMPDEST PUSH1 0x0 PUSH2 0x365 PUSH2 0x4F5 JUMP JUMPDEST SWAP1 POP PUSH1 0x0 DUP1 PUSH1 0x1 DUP1 SLOAD SWAP1 POP DUP4 PUSH2 0x37B SWAP2 SWAP1 PUSH2 0x929 JUMP JUMPDEST SWAP1 POP PUSH1 0x1 DUP2 DUP2 SLOAD DUP2 LT PUSH2 0x391 JUMPI PUSH2 0x390 PUSH2 0x95A JUMP JUMPDEST JUMPDEST SWAP1 PUSH1 0x0 MSTORE PUSH1 0x20 PUSH1 0x0 KECCAK256 ADD PUSH1 0x0 SWAP1 SLOAD SWAP1 PUSH2 0x100 EXP SWAP1 DIV PUSH20 0xFFFFFFFFFFFFFFFFFFFFFFFFFFFFFFFFFFFFFFFF AND SWAP2 POP DUP2 PUSH20 0xFFFFFFFFFFFFFFFFFFFFFFFFFFFFFFFFFFFFFFFF AND PUSH2 0x8FC PUSH2 0x3E0 PUSH2 0x223 JUMP JUMPDEST SWAP1 DUP2 ISZERO MUL SWAP1 PUSH1 0x40 MLOAD PUSH1 0x0 PUSH1 0x40 MLOAD DUP1 DUP4 SUB DUP2 DUP6 DUP9 DUP9 CALL SWAP4 POP POP POP POP ISZERO DUP1 ISZERO PUSH2 0x40B JUMPI RETURNDATASIZE PUSH1 0x0 DUP1 RETURNDATACOPY RETURNDATASIZE PUSH1 0x0 REVERT JUMPDEST POP PUSH1 0x0 PUSH8 0xFFFFFFFFFFFFFFFF DUP2 GT ISZERO PUSH2 0x427 JUMPI PUSH2 0x426 PUSH2 0x989 JUMP JUMPDEST JUMPDEST PUSH1 0x40 MLOAD SWAP1 DUP1 DUP3 MSTORE DUP1 PUSH1 0x20 MUL PUSH1 0x20 ADD DUP3 ADD PUSH1 0x40 MSTORE DUP1 ISZERO PUSH2 0x455 JUMPI DUP2 PUSH1 0x20 ADD PUSH1 0x20 DUP3 MUL DUP1 CALLDATASIZE DUP4 CALLDATACOPY DUP1 DUP3 ADD SWAP2 POP POP SWAP1 POP JUMPDEST POP PUSH1 0x1 SWAP1 DUP1 MLOAD SWAP1 PUSH1 0x20 ADD SWAP1 PUSH2 0x46B SWAP3 SWAP2 SWAP1 PUSH2 0x52F JUMP JUMPDEST POP POP POP POP JUMP JUMPDEST PUSH1 0x1 DUP2 DUP2 SLOAD DUP2 LT PUSH2 0x481 JUMPI PUSH1 0x0 DUP1 REVERT JUMPDEST SWAP1 PUSH1 0x0 MSTORE PUSH1 0x20 PUSH1 0x0 KECCAK256 ADD PUSH1 0x0 SWAP2 POP SLOAD SWAP1 PUSH2 0x100 EXP SWAP1 DIV PUSH20 0xFFFFFFFFFFFFFFFFFFFFFFFFFFFFFFFFFFFFFFFF AND DUP2 JUMP JUMPDEST PUSH1 0x0 DUP1 SLOAD SWAP1 PUSH2 0x100 EXP SWAP1 DIV PUSH20 0xFFFFFFFFFFFFFFFFFFFFFFFFFFFFFFFFFFFFFFFF AND DUP2 JUMP JUMPDEST PUSH1 0x0 DUP2 PUSH20 0xFFFFFFFFFFFFFFFFFFFFFFFFFFFFFFFFFFFFFFFF AND BALANCE SWAP1 POP SWAP2 SWAP1 POP JUMP JUMPDEST PUSH1 0x0 PREVRANDAO TIMESTAMP PUSH1 0x1 DUP1 SLOAD SWAP1 POP PUSH1 0x40 MLOAD PUSH1 0x20 ADD PUSH2 0x511 SWAP4 SWAP3 SWAP2 SWAP1 PUSH2 0x9D9 JUMP JUMPDEST PUSH1 0x40 MLOAD PUSH1 0x20 DUP2 DUP4 SUB SUB DUP2 MSTORE SWAP1 PUSH1 0x40 MSTORE DUP1 MLOAD SWAP1 PUSH1 0x20 ADD KECCAK256 PUSH1 0x0 SHR SWAP1 POP SWAP1 JUMP JUMPDEST DUP3 DUP1 SLOAD DUP3 DUP3 SSTORE SWAP1 PUSH1 0x0 MSTORE PUSH1 0x20 PUSH1 0x0 KECCAK256 SWAP1 DUP2 ADD SWAP3 DUP3 ISZERO PUSH2 0x5A8 JUMPI SWAP2 PUSH1 0x20 MUL DUP3 ADD JUMPDEST DUP3 DUP2 GT ISZERO PUSH2 0x5A7 JUMPI DUP3 MLOAD DUP3 PUSH1 0x0 PUSH2 0x100 EXP DUP2 SLOAD DUP2 PUSH20 0xFFFFFFFFFFFFFFFFFFFFFFFFFFFFFFFFFFFFFFFF MUL NOT AND SWAP1 DUP4 PUSH20 0xFFFFFFFFFFFFFFFFFFFFFFFFFFFFFFFFFFFFFFFF AND MUL OR SWAP1 SSTORE POP SWAP2 PUSH1 0x20 ADD SWAP2 SWAP1 PUSH1 0x1 ADD SWAP1 PUSH2 0x54F JUMP JUMPDEST JUMPDEST POP SWAP1 POP PUSH2 0x5B5 SWAP2 SWAP1 PUSH2 0x5B9 JUMP JUMPDEST POP SWAP1 JUMP JUMPDEST JUMPDEST DUP1 DUP3 GT ISZERO PUSH2 0x5D2 JUMPI PUSH1 0x0 DUP2 PUSH1 0x0 SWAP1 SSTORE POP PUSH1 0x1 ADD PUSH2 0x5BA JUMP JUMPDEST POP SWAP1 JUMP JUMPDEST PUSH1 0x0 DUP3 DUP3 MSTORE PUSH1 0x20 DUP3 ADD SWAP1 POP SWAP3 SWAP2 POP POP JUMP JUMPDEST PUSH32 0x4D696E696D756D20616D6F756E74206973206C657373207468616E2032206574 PUSH1 0x0 DUP3 ADD MSTORE PUSH32 0x6865720000000000000000000000000000000000000000000000000000000000 PUSH1 0x20 DUP3 ADD MSTORE POP JUMP JUMPDEST PUSH1 0x0 PUSH2 0x643 PUSH1 0x23 DUP4 PUSH2 0x5D6 JUMP JUMPDEST SWAP2 POP PUSH2 0x64E DUP3 PUSH2 0x5E7 JUMP JUMPDEST PUSH1 0x40 DUP3 ADD SWAP1 POP SWAP2 SWAP1 POP JUMP JUMPDEST PUSH1 0x0 PUSH1 0x20 DUP3 ADD SWAP1 POP DUP2 DUP2 SUB PUSH1 0x0 DUP4 ADD MSTORE PUSH2 0x672 DUP2 PUSH2 0x636 JUMP JUMPDEST SWAP1 POP SWAP2 SWAP1 POP JUMP JUMPDEST PUSH1 0x0 DUP2 SWAP1 POP SWAP2 SWAP1 POP JUMP JUMPDEST PUSH2 0x68C DUP2 PUSH2 0x679 JUMP JUMPDEST DUP3 MSTORE POP POP JUMP JUMPDEST PUSH1 0x0 PUSH1 0x20 DUP3 ADD SWAP1 POP PUSH2 0x6A7 PUSH1 0x0 DUP4 ADD DUP5 PUSH2 0x683 JUMP JUMPDEST SWAP3 SWAP2 POP POP JUMP JUMPDEST PUSH1 0x0 DUP1 REVERT JUMPDEST PUSH2 0x6BB DUP2 PUSH2 0x679 JUMP JUMPDEST DUP2 EQ PUSH2 0x6C6 JUMPI PUSH1 0x0 DUP1 REVERT JUMPDEST POP JUMP JUMPDEST PUSH1 0x0 DUP2 CALLDATALOAD SWAP1 POP PUSH2 0x6D8 DUP2 PUSH2 0x6B2 JUMP JUMPDEST SWAP3 SWAP2 POP POP JUMP JUMPDEST PUSH1 0x0 PUSH1 0x20 DUP3 DUP5 SUB SLT ISZERO PUSH2 0x6F4 JUMPI PUSH2 0x6F3 PUSH2 0x6AD JUMP JUMPDEST JUMPDEST PUSH1 0x0 PUSH2 0x702 DUP5 DUP3 DUP6 ADD PUSH2 0x6C9 JUMP JUMPDEST SWAP2 POP POP SWAP3 SWAP2 POP POP JUMP JUMPDEST PUSH1 0x0 PUSH20 0xFFFFFFFFFFFFFFFFFFFFFFFFFFFFFFFFFFFFFFFF DUP3 AND SWAP1 POP SWAP2 SWAP1 POP JUMP JUMPDEST PUSH1 0x0 PUSH2 0x736 DUP3 PUSH2 0x70B JUMP JUMPDEST SWAP1 POP SWAP2 SWAP1 POP JUMP JUMPDEST PUSH2 0x746 DUP2 PUSH2 0x72B JUMP JUMPDEST DUP3 MSTORE POP POP JUMP JUMPDEST PUSH1 0x0 PUSH1 0x20 DUP3 ADD SWAP1 POP PUSH2 0x761 PUSH1 0x0 DUP4 ADD DUP5 PUSH2 0x73D JUMP JUMPDEST SWAP3 SWAP2 POP POP JUMP JUMPDEST PUSH1 0x0 PUSH2 0x772 DUP3 PUSH2 0x70B JUMP JUMPDEST SWAP1 POP SWAP2 SWAP1 POP JUMP JUMPDEST PUSH2 0x782 DUP2 PUSH2 0x767 JUMP JUMPDEST DUP3 MSTORE POP POP JUMP JUMPDEST PUSH1 0x0 PUSH1 0x20 DUP3 ADD SWAP1 POP PUSH2 0x79D PUSH1 0x0 DUP4 ADD DUP5 PUSH2 0x779 JUMP JUMPDEST SWAP3 SWAP2 POP POP JUMP JUMPDEST PUSH2 0x7AC DUP2 PUSH2 0x767 JUMP JUMPDEST DUP2 EQ PUSH2 0x7B7 JUMPI PUSH1 0x0 DUP1 REVERT JUMPDEST POP JUMP JUMPDEST PUSH1 0x0 DUP2 CALLDATALOAD SWAP1 POP PUSH2 0x7C9 DUP2 PUSH2 0x7A3 JUMP JUMPDEST SWAP3 SWAP2 POP POP JUMP JUMPDEST PUSH1 0x0 PUSH1 0x20 DUP3 DUP5 SUB SLT ISZERO PUSH2 0x7E5 JUMPI PUSH2 0x7E4 PUSH2 0x6AD JUMP JUMPDEST JUMPDEST PUSH1 0x0 PUSH2 0x7F3 DUP5 DUP3 DUP6 ADD PUSH2 0x7BA JUMP JUMPDEST SWAP2 POP POP SWAP3 SWAP2 POP POP JUMP JUMPDEST PUSH32 0x596F7520617265206E6F7420746865206D616E61676572000000000000000000 PUSH1 0x0 DUP3 ADD MSTORE POP JUMP JUMPDEST PUSH1 0x0 PUSH2 0x832 PUSH1 0x17 DUP4 PUSH2 0x5D6 JUMP JUMPDEST SWAP2 POP PUSH2 0x83D DUP3 PUSH2 0x7FC JUMP JUMPDEST PUSH1 0x20 DUP3 ADD SWAP1 POP SWAP2 SWAP1 POP JUMP JUMPDEST PUSH1 0x0 PUSH1 0x20 DUP3 ADD SWAP1 POP DUP2 DUP2 SUB PUSH1 0x0 DUP4 ADD MSTORE PUSH2 0x861 DUP2 PUSH2 0x825 JUMP JUMPDEST SWAP1 POP SWAP2 SWAP1 POP JUMP JUMPDEST PUSH32 0x4F6E6C79206D616E616765722063616E2073656C6563742072616E646F6D2077 PUSH1 0x0 DUP3 ADD MSTORE PUSH32 0x696E6E6572000000000000000000000000000000000000000000000000000000 PUSH1 0x20 DUP3 ADD MSTORE POP JUMP JUMPDEST PUSH1 0x0 PUSH2 0x8C4 PUSH1 0x25 DUP4 PUSH2 0x5D6 JUMP JUMPDEST SWAP2 POP PUSH2 0x8CF DUP3 PUSH2 0x868 JUMP JUMPDEST PUSH1 0x40 DUP3 ADD SWAP1 POP SWAP2 SWAP1 POP JUMP JUMPDEST PUSH1 0x0 PUSH1 0x20 DUP3 ADD SWAP1 POP DUP2 DUP2 SUB PUSH1 0x0 DUP4 ADD MSTORE PUSH2 0x8F3 DUP2 PUSH2 0x8B7 JUMP JUMPDEST SWAP1 POP SWAP2 SWAP1 POP JUMP JUMPDEST PUSH32 0x4E487B7100000000000000000000000000000000000000000000000000000000 PUSH1 0x0 MSTORE PUSH1 0x12 PUSH1 0x4 MSTORE PUSH1 0x24 PUSH1 0x0 REVERT JUMPDEST PUSH1 0x0 PUSH2 0x934 DUP3 PUSH2 0x679 JUMP JUMPDEST SWAP2 POP PUSH2 0x93F DUP4 PUSH2 0x679 JUMP JUMPDEST SWAP3 POP DUP3 PUSH2 0x94F JUMPI PUSH2 0x94E PUSH2 0x8FA JUMP JUMPDEST JUMPDEST DUP3 DUP3 MOD SWAP1 POP SWAP3 SWAP2 POP POP JUMP JUMPDEST PUSH32 0x4E487B7100000000000000000000000000000000000000000000000000000000 PUSH1 0x0 MSTORE PUSH1 0x32 PUSH1 0x4 MSTORE PUSH1 0x24 PUSH1 0x0 REVERT JUMPDEST PUSH32 0x4E487B7100000000000000000000000000000000000000000000000000000000 PUSH1 0x0 MSTORE PUSH1 0x41 PUSH1 0x4 MSTORE PUSH1 0x24 PUSH1 0x0 REVERT JUMPDEST PUSH1 0x0 DUP2 SWAP1 POP SWAP2 SWAP1 POP JUMP JUMPDEST PUSH2 0x9D3 PUSH2 0x9CE DUP3 PUSH2 0x679 JUMP JUMPDEST PUSH2 0x9B8 JUMP JUMPDEST DUP3 MSTORE POP POP JUMP JUMPDEST PUSH1 0x0 PUSH2 0x9E5 DUP3 DUP7 PUSH2 0x9C2 JUMP JUMPDEST PUSH1 0x20 DUP3 ADD SWAP2 POP PUSH2 0x9F5 DUP3 DUP6 PUSH2 0x9C2 JUMP JUMPDEST PUSH1 0x20 DUP3 ADD SWAP2 POP PUSH2 0xA05 DUP3 DUP5 PUSH2 0x9C2 JUMP JUMPDEST PUSH1 0x20 DUP3 ADD SWAP2 POP DUP2 SWAP1 POP SWAP5 SWAP4 POP POP POP POP JUMP INVALID LOG2 PUSH5 0x6970667358 0x22 SLT KECCAK256 PUSH8 0x360504D4B09CA5BB 0x2A SWAP6 DUP3 PUSH32 0x247BF494C2A4723F0BB6C6F9467D66F7355C1A64736F6C634300081200330000 "
				},
				"gasEstimates": {
					"creation": {
						"codeDepositCost": "527200",
						"executionCost": "24828",
						"totalCost": "552028"
					},
					"external": {
						"getBalance()": "2584",
						"getBalanceOfAddress(address)": "3323",
						"getRandomAddress()": "infinite",
						"manager()": "2555",
						"participants(uint256)": "4978",
						"selectWinner()": "infinite"
					}
				},
				"methodIdentifiers": {
					"getBalance()": "12065fe0",
					"getBalanceOfAddress(address)": "a665c4a4",
					"getRandomAddress()": "edd0eb06",
					"manager()": "481c6a75",
					"participants(uint256)": "35c1d349",
					"selectWinner()": "33a99e04"
				}
			},
			"storageLayout": {
				"storage": [
					{
						"astId": 4,
						"contract": "contracts/Lottery.sol:Lottery",
						"label": "manager",
						"offset": 0,
						"slot": "0",
						"type": "t_address"
					},
					{
						"astId": 7,
						"contract": "contracts/Lottery.sol:Lottery",
						"label": "participants",
						"offset": 0,
						"slot": "1",
						"type": "t_array(t_address_payable)dyn_storage"
					}
				],
				"types": {
					"t_address": {
						"encoding": "inplace",
						"label": "address",
						"numberOfBytes": "20"
					},
					"t_address_payable": {
						"encoding": "inplace",
						"label": "address payable",
						"numberOfBytes": "20"
					},
					"t_array(t_address_payable)dyn_storage": {
						"base": "t_address_payable",
						"encoding": "dynamic_array",
						"label": "address payable[]",
						"numberOfBytes": "32"
					}
				}
			},
			"userdoc": {
				"kind": "user",
				"methods": {},
				"version": 1
			}
		}
	}
}