{
	"contracts/Structs.sol": {
		"Todos": {
			"abi": [
				{
					"inputs": [
						{
							"internalType": "string",
							"name": "_text",
							"type": "string"
						}
					],
					"name": "create",
					"outputs": [],
					"stateMutability": "nonpayable",
					"type": "function"
				},
				{
					"inputs": [
						{
							"internalType": "uint256",
							"name": "_index",
							"type": "uint256"
						}
					],
					"name": "get",
					"outputs": [
						{
							"internalType": "string",
							"name": "text",
							"type": "string"
						},
						{
							"internalType": "bool",
							"name": "completed",
							"type": "bool"
						}
					],
					"stateMutability": "view",
					"type": "function"
				},
				{
					"inputs": [
						{
							"internalType": "uint256",
							"name": "",
							"type": "uint256"
						}
					],
					"name": "todos",
					"outputs": [
						{
							"internalType": "string",
							"name": "text",
							"type": "string"
						},
						{
							"internalType": "bool",
							"name": "completed",
							"type": "bool"
						}
					],
					"stateMutability": "view",
					"type": "function"
				}
			],
			"devdoc": {
				"kind": "dev",
				"methods": {},
				"version": 1
			},
			"evm": {
				"assembly": "    /* \"contracts/Structs.sol\":61:910  contract Todos {... */\n  mstore(0x40, 0x80)\n  callvalue\n  dup1\n  iszero\n  tag_1\n  jumpi\n  0x00\n  dup1\n  revert\ntag_1:\n  pop\n  dataSize(sub_0)\n  dup1\n  dataOffset(sub_0)\n  0x00\n  codecopy\n  0x00\n  return\nstop\n\nsub_0: assembly {\n        /* \"contracts/Structs.sol\":61:910  contract Todos {... */\n      mstore(0x40, 0x80)\n      callvalue\n      dup1\n      iszero\n      tag_1\n      jumpi\n      0x00\n      dup1\n      revert\n    tag_1:\n      pop\n      jumpi(tag_2, lt(calldatasize, 0x04))\n      shr(0xe0, calldataload(0x00))\n      dup1\n      0x9507d39a\n      eq\n      tag_3\n      jumpi\n      dup1\n      0xb6a46b3b\n      eq\n      tag_4\n      jumpi\n      dup1\n      0xbc8bc2b4\n      eq\n      tag_5\n      jumpi\n    tag_2:\n      0x00\n      dup1\n      revert\n        /* \"contracts/Structs.sol\":727:907  function get(uint _index) public view returns(string memory text, bool completed)  {... */\n    tag_3:\n      tag_6\n      0x04\n      dup1\n      calldatasize\n      sub\n      dup2\n      add\n      swap1\n      tag_7\n      swap2\n      swap1\n      tag_8\n      jump\t// in\n    tag_7:\n      tag_9\n      jump\t// in\n    tag_6:\n      mload(0x40)\n      tag_10\n      swap3\n      swap2\n      swap1\n      tag_11\n      jump\t// in\n    tag_10:\n      mload(0x40)\n      dup1\n      swap2\n      sub\n      swap1\n      return\n        /* \"contracts/Structs.sol\":243:719  function create(string calldata _text) public {... */\n    tag_4:\n      tag_12\n      0x04\n      dup1\n      calldatasize\n      sub\n      dup2\n      add\n      swap1\n      tag_13\n      swap2\n      swap1\n      tag_14\n      jump\t// in\n    tag_13:\n      tag_15\n      jump\t// in\n    tag_12:\n      stop\n        /* \"contracts/Structs.sol\":215:234  Todo[] public todos */\n    tag_5:\n      tag_16\n      0x04\n      dup1\n      calldatasize\n      sub\n      dup2\n      add\n      swap1\n      tag_17\n      swap2\n      swap1\n      tag_8\n      jump\t// in\n    tag_17:\n      tag_18\n      jump\t// in\n    tag_16:\n      mload(0x40)\n      tag_19\n      swap3\n      swap2\n      swap1\n      tag_11\n      jump\t// in\n    tag_19:\n      mload(0x40)\n      dup1\n      swap2\n      sub\n      swap1\n      return\n        /* \"contracts/Structs.sol\":727:907  function get(uint _index) public view returns(string memory text, bool completed)  {... */\n    tag_9:\n        /* \"contracts/Structs.sol\":773:791  string memory text */\n      0x60\n        /* \"contracts/Structs.sol\":793:807  bool completed */\n      0x00\n        /* \"contracts/Structs.sol\":821:838  Todo storage todo */\n      dup1\n        /* \"contracts/Structs.sol\":841:846  todos */\n      0x00\n        /* \"contracts/Structs.sol\":847:853  _index */\n      dup5\n        /* \"contracts/Structs.sol\":841:854  todos[_index] */\n      dup2\n      sload\n      dup2\n      lt\n      tag_21\n      jumpi\n      tag_22\n      tag_23\n      jump\t// in\n    tag_22:\n    tag_21:\n      swap1\n      0x00\n      mstore\n      keccak256(0x00, 0x20)\n      swap1\n      0x02\n      mul\n      add\n        /* \"contracts/Structs.sol\":821:854  Todo storage todo = todos[_index] */\n      swap1\n      pop\n        /* \"contracts/Structs.sol\":873:877  todo */\n      dup1\n        /* \"contracts/Structs.sol\":873:882  todo.text */\n      0x00\n      add\n        /* \"contracts/Structs.sol\":884:888  todo */\n      dup2\n        /* \"contracts/Structs.sol\":884:898  todo.completed */\n      0x01\n      add\n      0x00\n      swap1\n      sload\n      swap1\n      0x0100\n      exp\n      swap1\n      div\n      0xff\n      and\n        /* \"contracts/Structs.sol\":865:899  return (todo.text, todo.completed) */\n      dup2\n      dup1\n      sload\n      tag_25\n      swap1\n      tag_26\n      jump\t// in\n    tag_25:\n      dup1\n      0x1f\n      add\n      0x20\n      dup1\n      swap2\n      div\n      mul\n      0x20\n      add\n      mload(0x40)\n      swap1\n      dup2\n      add\n      0x40\n      mstore\n      dup1\n      swap3\n      swap2\n      swap1\n      dup2\n      dup2\n      mstore\n      0x20\n      add\n      dup3\n      dup1\n      sload\n      tag_27\n      swap1\n      tag_26\n      jump\t// in\n    tag_27:\n      dup1\n      iszero\n      tag_28\n      jumpi\n      dup1\n      0x1f\n      lt\n      tag_29\n      jumpi\n      0x0100\n      dup1\n      dup4\n      sload\n      div\n      mul\n      dup4\n      mstore\n      swap2\n      0x20\n      add\n      swap2\n      jump(tag_28)\n    tag_29:\n      dup3\n      add\n      swap2\n      swap1\n      0x00\n      mstore\n      keccak256(0x00, 0x20)\n      swap1\n    tag_30:\n      dup2\n      sload\n      dup2\n      mstore\n      swap1\n      0x01\n      add\n      swap1\n      0x20\n      add\n      dup1\n      dup4\n      gt\n      tag_30\n      jumpi\n      dup3\n      swap1\n      sub\n      0x1f\n      and\n      dup3\n      add\n      swap2\n    tag_28:\n      pop\n      pop\n      pop\n      pop\n      pop\n      swap2\n      pop\n      swap3\n      pop\n      swap3\n      pop\n      pop\n        /* \"contracts/Structs.sol\":727:907  function get(uint _index) public view returns(string memory text, bool completed)  {... */\n      swap2\n      pop\n      swap2\n      jump\t// out\n        /* \"contracts/Structs.sol\":243:719  function create(string calldata _text) public {... */\n    tag_15:\n        /* \"contracts/Structs.sol\":389:394  todos */\n      0x00\n        /* \"contracts/Structs.sol\":400:418  Todo(_text, false) */\n      mload(0x40)\n      dup1\n      0x40\n      add\n      0x40\n      mstore\n      dup1\n        /* \"contracts/Structs.sol\":405:410  _text */\n      dup5\n      dup5\n        /* \"contracts/Structs.sol\":400:418  Todo(_text, false) */\n      dup1\n      dup1\n      0x1f\n      add\n      0x20\n      dup1\n      swap2\n      div\n      mul\n      0x20\n      add\n      mload(0x40)\n      swap1\n      dup2\n      add\n      0x40\n      mstore\n      dup1\n      swap4\n      swap3\n      swap2\n      swap1\n      dup2\n      dup2\n      mstore\n      0x20\n      add\n      dup4\n      dup4\n      dup1\n      dup3\n      dup5\n      calldatacopy\n      0x00\n      dup2\n      dup5\n      add\n      mstore\n      not(0x1f)\n      0x1f\n      dup3\n      add\n      and\n      swap1\n      pop\n      dup1\n      dup4\n      add\n      swap3\n      pop\n      pop\n      pop\n      pop\n      pop\n      pop\n      pop\n      dup2\n      mstore\n      0x20\n      add\n        /* \"contracts/Structs.sol\":412:417  false */\n      0x00\n        /* \"contracts/Structs.sol\":400:418  Todo(_text, false) */\n      iszero\n      iszero\n      dup2\n      mstore\n      pop\n        /* \"contracts/Structs.sol\":389:419  todos.push(Todo(_text, false)) */\n      swap1\n      dup1\n      0x01\n      dup2\n      sload\n      add\n      dup1\n      dup3\n      sstore\n      dup1\n      swap2\n      pop\n      pop\n      0x01\n      swap1\n      sub\n      swap1\n      0x00\n      mstore\n      keccak256(0x00, 0x20)\n      swap1\n      0x02\n      mul\n      add\n      0x00\n      swap1\n      swap2\n      swap1\n      swap2\n      swap1\n      swap2\n      pop\n      0x00\n      dup3\n      add\n      mload\n      dup2\n      0x00\n      add\n      swap1\n      dup2\n      tag_33\n      swap2\n      swap1\n      tag_34\n      jump\t// in\n    tag_33:\n      pop\n      0x20\n      dup3\n      add\n      mload\n      dup2\n      0x01\n      add\n      exp(0x0100, 0x00)\n      dup2\n      sload\n      dup2\n      0xff\n      mul\n      not\n      and\n      swap1\n      dup4\n      iszero\n      iszero\n      mul\n      or\n      swap1\n      sstore\n      pop\n      pop\n      pop\n        /* \"contracts/Structs.sol\":465:470  todos */\n      0x00\n        /* \"contracts/Structs.sol\":476:513  Todo({text: _text, completed: false}) */\n      mload(0x40)\n      dup1\n      0x40\n      add\n      0x40\n      mstore\n      dup1\n        /* \"contracts/Structs.sol\":488:493  _text */\n      dup5\n      dup5\n        /* \"contracts/Structs.sol\":476:513  Todo({text: _text, completed: false}) */\n      dup1\n      dup1\n      0x1f\n      add\n      0x20\n      dup1\n      swap2\n      div\n      mul\n      0x20\n      add\n      mload(0x40)\n      swap1\n      dup2\n      add\n      0x40\n      mstore\n      dup1\n      swap4\n      swap3\n      swap2\n      swap1\n      dup2\n      dup2\n      mstore\n      0x20\n      add\n      dup4\n      dup4\n      dup1\n      dup3\n      dup5\n      calldatacopy\n      0x00\n      dup2\n      dup5\n      add\n      mstore\n      not(0x1f)\n      0x1f\n      dup3\n      add\n      and\n      swap1\n      pop\n      dup1\n      dup4\n      add\n      swap3\n      pop\n      pop\n      pop\n      pop\n      pop\n      pop\n      pop\n      dup2\n      mstore\n      0x20\n      add\n        /* \"contracts/Structs.sol\":506:511  false */\n      0x00\n        /* \"contracts/Structs.sol\":476:513  Todo({text: _text, completed: false}) */\n      iszero\n      iszero\n      dup2\n      mstore\n      pop\n        /* \"contracts/Structs.sol\":465:514  todos.push(Todo({text: _text, completed: false})) */\n      swap1\n      dup1\n      0x01\n      dup2\n      sload\n      add\n      dup1\n      dup3\n      sstore\n      dup1\n      swap2\n      pop\n      pop\n      0x01\n      swap1\n      sub\n      swap1\n      0x00\n      mstore\n      keccak256(0x00, 0x20)\n      swap1\n      0x02\n      mul\n      add\n      0x00\n      swap1\n      swap2\n      swap1\n      swap2\n      swap1\n      swap2\n      pop\n      0x00\n      dup3\n      add\n      mload\n      dup2\n      0x00\n      add\n      swap1\n      dup2\n      tag_36\n      swap2\n      swap1\n      tag_34\n      jump\t// in\n    tag_36:\n      pop\n      0x20\n      dup3\n      add\n      mload\n      dup2\n      0x01\n      add\n      exp(0x0100, 0x00)\n      dup2\n      sload\n      dup2\n      0xff\n      mul\n      not\n      and\n      swap1\n      dup4\n      iszero\n      iszero\n      mul\n      or\n      swap1\n      sstore\n      pop\n      pop\n      pop\n        /* \"contracts/Structs.sol\":585:601  Todo memory todo */\n      tag_37\n      tag_38\n      jump\t// in\n    tag_37:\n        /* \"contracts/Structs.sol\":624:629  _text */\n      dup3\n      dup3\n        /* \"contracts/Structs.sol\":612:629  todo.text = _text */\n      dup1\n      dup1\n      0x1f\n      add\n      0x20\n      dup1\n      swap2\n      div\n      mul\n      0x20\n      add\n      mload(0x40)\n      swap1\n      dup2\n      add\n      0x40\n      mstore\n      dup1\n      swap4\n      swap3\n      swap2\n      swap1\n      dup2\n      dup2\n      mstore\n      0x20\n      add\n      dup4\n      dup4\n      dup1\n      dup3\n      dup5\n      calldatacopy\n      0x00\n      dup2\n      dup5\n      add\n      mstore\n      not(0x1f)\n      0x1f\n      dup3\n      add\n      and\n      swap1\n      pop\n      dup1\n      dup4\n      add\n      swap3\n      pop\n      pop\n      pop\n      pop\n      pop\n      pop\n      pop\n        /* \"contracts/Structs.sol\":612:616  todo */\n      dup2\n        /* \"contracts/Structs.sol\":612:621  todo.text */\n      0x00\n      add\n        /* \"contracts/Structs.sol\":612:629  todo.text = _text */\n      dup2\n      swap1\n      mstore\n      pop\n        /* \"contracts/Structs.sol\":693:698  todos */\n      0x00\n        /* \"contracts/Structs.sol\":704:708  todo */\n      dup2\n        /* \"contracts/Structs.sol\":693:709  todos.push(todo) */\n      swap1\n      dup1\n      0x01\n      dup2\n      sload\n      add\n      dup1\n      dup3\n      sstore\n      dup1\n      swap2\n      pop\n      pop\n      0x01\n      swap1\n      sub\n      swap1\n      0x00\n      mstore\n      keccak256(0x00, 0x20)\n      swap1\n      0x02\n      mul\n      add\n      0x00\n      swap1\n      swap2\n      swap1\n      swap2\n      swap1\n      swap2\n      pop\n      0x00\n      dup3\n      add\n      mload\n      dup2\n      0x00\n      add\n      swap1\n      dup2\n      tag_40\n      swap2\n      swap1\n      tag_34\n      jump\t// in\n    tag_40:\n      pop\n      0x20\n      dup3\n      add\n      mload\n      dup2\n      0x01\n      add\n      exp(0x0100, 0x00)\n      dup2\n      sload\n      dup2\n      0xff\n      mul\n      not\n      and\n      swap1\n      dup4\n      iszero\n      iszero\n      mul\n      or\n      swap1\n      sstore\n      pop\n      pop\n      pop\n        /* \"contracts/Structs.sol\":289:719  {... */\n      pop\n        /* \"contracts/Structs.sol\":243:719  function create(string calldata _text) public {... */\n      pop\n      pop\n      jump\t// out\n        /* \"contracts/Structs.sol\":215:234  Todo[] public todos */\n    tag_18:\n      0x00\n      dup2\n      dup2\n      sload\n      dup2\n      lt\n      tag_41\n      jumpi\n      0x00\n      dup1\n      revert\n    tag_41:\n      swap1\n      0x00\n      mstore\n      keccak256(0x00, 0x20)\n      swap1\n      0x02\n      mul\n      add\n      0x00\n      swap2\n      pop\n      swap1\n      pop\n      dup1\n      0x00\n      add\n      dup1\n      sload\n      tag_43\n      swap1\n      tag_26\n      jump\t// in\n    tag_43:\n      dup1\n      0x1f\n      add\n      0x20\n      dup1\n      swap2\n      div\n      mul\n      0x20\n      add\n      mload(0x40)\n      swap1\n      dup2\n      add\n      0x40\n      mstore\n      dup1\n      swap3\n      swap2\n      swap1\n      dup2\n      dup2\n      mstore\n      0x20\n      add\n      dup3\n      dup1\n      sload\n      tag_44\n      swap1\n      tag_26\n      jump\t// in\n    tag_44:\n      dup1\n      iszero\n      tag_45\n      jumpi\n      dup1\n      0x1f\n      lt\n      tag_46\n      jumpi\n      0x0100\n      dup1\n      dup4\n      sload\n      div\n      mul\n      dup4\n      mstore\n      swap2\n      0x20\n      add\n      swap2\n      jump(tag_45)\n    tag_46:\n      dup3\n      add\n      swap2\n      swap1\n      0x00\n      mstore\n      keccak256(0x00, 0x20)\n      swap1\n    tag_47:\n      dup2\n      sload\n      dup2\n      mstore\n      swap1\n      0x01\n      add\n      swap1\n      0x20\n      add\n      dup1\n      dup4\n      gt\n      tag_47\n      jumpi\n      dup3\n      swap1\n      sub\n      0x1f\n      and\n      dup3\n      add\n      swap2\n    tag_45:\n      pop\n      pop\n      pop\n      pop\n      pop\n      swap1\n      dup1\n      0x01\n      add\n      0x00\n      swap1\n      sload\n      swap1\n      0x0100\n      exp\n      swap1\n      div\n      0xff\n      and\n      swap1\n      pop\n      dup3\n      jump\t// out\n    tag_38:\n      mload(0x40)\n      dup1\n      0x40\n      add\n      0x40\n      mstore\n      dup1\n      0x60\n      dup2\n      mstore\n      0x20\n      add\n      iszero(iszero(0x00))\n      dup2\n      mstore\n      pop\n      swap1\n      jump\t// out\n        /* \"#utility.yul\":88:205   */\n    tag_49:\n        /* \"#utility.yul\":197:198   */\n      0x00\n        /* \"#utility.yul\":194:195   */\n      dup1\n        /* \"#utility.yul\":187:199   */\n      revert\n        /* \"#utility.yul\":211:328   */\n    tag_50:\n        /* \"#utility.yul\":320:321   */\n      0x00\n        /* \"#utility.yul\":317:318   */\n      dup1\n        /* \"#utility.yul\":310:322   */\n      revert\n        /* \"#utility.yul\":334:411   */\n    tag_51:\n        /* \"#utility.yul\":371:378   */\n      0x00\n        /* \"#utility.yul\":400:405   */\n      dup2\n        /* \"#utility.yul\":389:405   */\n      swap1\n      pop\n        /* \"#utility.yul\":334:411   */\n      swap2\n      swap1\n      pop\n      jump\t// out\n        /* \"#utility.yul\":417:539   */\n    tag_52:\n        /* \"#utility.yul\":490:514   */\n      tag_88\n        /* \"#utility.yul\":508:513   */\n      dup2\n        /* \"#utility.yul\":490:514   */\n      tag_51\n      jump\t// in\n    tag_88:\n        /* \"#utility.yul\":483:488   */\n      dup2\n        /* \"#utility.yul\":480:515   */\n      eq\n        /* \"#utility.yul\":470:533   */\n      tag_89\n      jumpi\n        /* \"#utility.yul\":529:530   */\n      0x00\n        /* \"#utility.yul\":526:527   */\n      dup1\n        /* \"#utility.yul\":519:531   */\n      revert\n        /* \"#utility.yul\":470:533   */\n    tag_89:\n        /* \"#utility.yul\":417:539   */\n      pop\n      jump\t// out\n        /* \"#utility.yul\":545:684   */\n    tag_53:\n        /* \"#utility.yul\":591:596   */\n      0x00\n        /* \"#utility.yul\":629:635   */\n      dup2\n        /* \"#utility.yul\":616:636   */\n      calldataload\n        /* \"#utility.yul\":607:636   */\n      swap1\n      pop\n        /* \"#utility.yul\":645:678   */\n      tag_91\n        /* \"#utility.yul\":672:677   */\n      dup2\n        /* \"#utility.yul\":645:678   */\n      tag_52\n      jump\t// in\n    tag_91:\n        /* \"#utility.yul\":545:684   */\n      swap3\n      swap2\n      pop\n      pop\n      jump\t// out\n        /* \"#utility.yul\":690:1019   */\n    tag_8:\n        /* \"#utility.yul\":749:755   */\n      0x00\n        /* \"#utility.yul\":798:800   */\n      0x20\n        /* \"#utility.yul\":786:795   */\n      dup3\n        /* \"#utility.yul\":777:784   */\n      dup5\n        /* \"#utility.yul\":773:796   */\n      sub\n        /* \"#utility.yul\":769:801   */\n      slt\n        /* \"#utility.yul\":766:885   */\n      iszero\n      tag_93\n      jumpi\n        /* \"#utility.yul\":804:883   */\n      tag_94\n      tag_49\n      jump\t// in\n    tag_94:\n        /* \"#utility.yul\":766:885   */\n    tag_93:\n        /* \"#utility.yul\":924:925   */\n      0x00\n        /* \"#utility.yul\":949:1002   */\n      tag_95\n        /* \"#utility.yul\":994:1001   */\n      dup5\n        /* \"#utility.yul\":985:991   */\n      dup3\n        /* \"#utility.yul\":974:983   */\n      dup6\n        /* \"#utility.yul\":970:992   */\n      add\n        /* \"#utility.yul\":949:1002   */\n      tag_53\n      jump\t// in\n    tag_95:\n        /* \"#utility.yul\":939:1002   */\n      swap2\n      pop\n        /* \"#utility.yul\":895:1012   */\n      pop\n        /* \"#utility.yul\":690:1019   */\n      swap3\n      swap2\n      pop\n      pop\n      jump\t// out\n        /* \"#utility.yul\":1025:1124   */\n    tag_54:\n        /* \"#utility.yul\":1077:1083   */\n      0x00\n        /* \"#utility.yul\":1111:1116   */\n      dup2\n        /* \"#utility.yul\":1105:1117   */\n      mload\n        /* \"#utility.yul\":1095:1117   */\n      swap1\n      pop\n        /* \"#utility.yul\":1025:1124   */\n      swap2\n      swap1\n      pop\n      jump\t// out\n        /* \"#utility.yul\":1130:1299   */\n    tag_55:\n        /* \"#utility.yul\":1214:1225   */\n      0x00\n        /* \"#utility.yul\":1248:1254   */\n      dup3\n        /* \"#utility.yul\":1243:1246   */\n      dup3\n        /* \"#utility.yul\":1236:1255   */\n      mstore\n        /* \"#utility.yul\":1288:1292   */\n      0x20\n        /* \"#utility.yul\":1283:1286   */\n      dup3\n        /* \"#utility.yul\":1279:1293   */\n      add\n        /* \"#utility.yul\":1264:1293   */\n      swap1\n      pop\n        /* \"#utility.yul\":1130:1299   */\n      swap3\n      swap2\n      pop\n      pop\n      jump\t// out\n        /* \"#utility.yul\":1305:1551   */\n    tag_56:\n        /* \"#utility.yul\":1386:1387   */\n      0x00\n        /* \"#utility.yul\":1396:1509   */\n    tag_99:\n        /* \"#utility.yul\":1410:1416   */\n      dup4\n        /* \"#utility.yul\":1407:1408   */\n      dup2\n        /* \"#utility.yul\":1404:1417   */\n      lt\n        /* \"#utility.yul\":1396:1509   */\n      iszero\n      tag_101\n      jumpi\n        /* \"#utility.yul\":1495:1496   */\n      dup1\n        /* \"#utility.yul\":1490:1493   */\n      dup3\n        /* \"#utility.yul\":1486:1497   */\n      add\n        /* \"#utility.yul\":1480:1498   */\n      mload\n        /* \"#utility.yul\":1476:1477   */\n      dup2\n        /* \"#utility.yul\":1471:1474   */\n      dup5\n        /* \"#utility.yul\":1467:1478   */\n      add\n        /* \"#utility.yul\":1460:1499   */\n      mstore\n        /* \"#utility.yul\":1432:1434   */\n      0x20\n        /* \"#utility.yul\":1429:1430   */\n      dup2\n        /* \"#utility.yul\":1425:1435   */\n      add\n        /* \"#utility.yul\":1420:1435   */\n      swap1\n      pop\n        /* \"#utility.yul\":1396:1509   */\n      jump(tag_99)\n    tag_101:\n        /* \"#utility.yul\":1543:1544   */\n      0x00\n        /* \"#utility.yul\":1534:1540   */\n      dup5\n        /* \"#utility.yul\":1529:1532   */\n      dup5\n        /* \"#utility.yul\":1525:1541   */\n      add\n        /* \"#utility.yul\":1518:1545   */\n      mstore\n        /* \"#utility.yul\":1367:1551   */\n      pop\n        /* \"#utility.yul\":1305:1551   */\n      pop\n      pop\n      pop\n      jump\t// out\n        /* \"#utility.yul\":1557:1659   */\n    tag_57:\n        /* \"#utility.yul\":1598:1604   */\n      0x00\n        /* \"#utility.yul\":1649:1651   */\n      0x1f\n        /* \"#utility.yul\":1645:1652   */\n      not\n        /* \"#utility.yul\":1640:1642   */\n      0x1f\n        /* \"#utility.yul\":1633:1638   */\n      dup4\n        /* \"#utility.yul\":1629:1643   */\n      add\n        /* \"#utility.yul\":1625:1653   */\n      and\n        /* \"#utility.yul\":1615:1653   */\n      swap1\n      pop\n        /* \"#utility.yul\":1557:1659   */\n      swap2\n      swap1\n      pop\n      jump\t// out\n        /* \"#utility.yul\":1665:2042   */\n    tag_58:\n        /* \"#utility.yul\":1753:1756   */\n      0x00\n        /* \"#utility.yul\":1781:1820   */\n      tag_104\n        /* \"#utility.yul\":1814:1819   */\n      dup3\n        /* \"#utility.yul\":1781:1820   */\n      tag_54\n      jump\t// in\n    tag_104:\n        /* \"#utility.yul\":1836:1907   */\n      tag_105\n        /* \"#utility.yul\":1900:1906   */\n      dup2\n        /* \"#utility.yul\":1895:1898   */\n      dup6\n        /* \"#utility.yul\":1836:1907   */\n      tag_55\n      jump\t// in\n    tag_105:\n        /* \"#utility.yul\":1829:1907   */\n      swap4\n      pop\n        /* \"#utility.yul\":1916:1981   */\n      tag_106\n        /* \"#utility.yul\":1974:1980   */\n      dup2\n        /* \"#utility.yul\":1969:1972   */\n      dup6\n        /* \"#utility.yul\":1962:1966   */\n      0x20\n        /* \"#utility.yul\":1955:1960   */\n      dup7\n        /* \"#utility.yul\":1951:1967   */\n      add\n        /* \"#utility.yul\":1916:1981   */\n      tag_56\n      jump\t// in\n    tag_106:\n        /* \"#utility.yul\":2006:2035   */\n      tag_107\n        /* \"#utility.yul\":2028:2034   */\n      dup2\n        /* \"#utility.yul\":2006:2035   */\n      tag_57\n      jump\t// in\n    tag_107:\n        /* \"#utility.yul\":2001:2004   */\n      dup5\n        /* \"#utility.yul\":1997:2036   */\n      add\n        /* \"#utility.yul\":1990:2036   */\n      swap2\n      pop\n        /* \"#utility.yul\":1757:2042   */\n      pop\n        /* \"#utility.yul\":1665:2042   */\n      swap3\n      swap2\n      pop\n      pop\n      jump\t// out\n        /* \"#utility.yul\":2048:2138   */\n    tag_59:\n        /* \"#utility.yul\":2082:2089   */\n      0x00\n        /* \"#utility.yul\":2125:2130   */\n      dup2\n        /* \"#utility.yul\":2118:2131   */\n      iszero\n        /* \"#utility.yul\":2111:2132   */\n      iszero\n        /* \"#utility.yul\":2100:2132   */\n      swap1\n      pop\n        /* \"#utility.yul\":2048:2138   */\n      swap2\n      swap1\n      pop\n      jump\t// out\n        /* \"#utility.yul\":2144:2253   */\n    tag_60:\n        /* \"#utility.yul\":2225:2246   */\n      tag_110\n        /* \"#utility.yul\":2240:2245   */\n      dup2\n        /* \"#utility.yul\":2225:2246   */\n      tag_59\n      jump\t// in\n    tag_110:\n        /* \"#utility.yul\":2220:2223   */\n      dup3\n        /* \"#utility.yul\":2213:2247   */\n      mstore\n        /* \"#utility.yul\":2144:2253   */\n      pop\n      pop\n      jump\t// out\n        /* \"#utility.yul\":2259:2670   */\n    tag_11:\n        /* \"#utility.yul\":2394:2398   */\n      0x00\n        /* \"#utility.yul\":2432:2434   */\n      0x40\n        /* \"#utility.yul\":2421:2430   */\n      dup3\n        /* \"#utility.yul\":2417:2435   */\n      add\n        /* \"#utility.yul\":2409:2435   */\n      swap1\n      pop\n        /* \"#utility.yul\":2481:2490   */\n      dup2\n        /* \"#utility.yul\":2475:2479   */\n      dup2\n        /* \"#utility.yul\":2471:2491   */\n      sub\n        /* \"#utility.yul\":2467:2468   */\n      0x00\n        /* \"#utility.yul\":2456:2465   */\n      dup4\n        /* \"#utility.yul\":2452:2469   */\n      add\n        /* \"#utility.yul\":2445:2492   */\n      mstore\n        /* \"#utility.yul\":2509:2587   */\n      tag_112\n        /* \"#utility.yul\":2582:2586   */\n      dup2\n        /* \"#utility.yul\":2573:2579   */\n      dup6\n        /* \"#utility.yul\":2509:2587   */\n      tag_58\n      jump\t// in\n    tag_112:\n        /* \"#utility.yul\":2501:2587   */\n      swap1\n      pop\n        /* \"#utility.yul\":2597:2663   */\n      tag_113\n        /* \"#utility.yul\":2659:2661   */\n      0x20\n        /* \"#utility.yul\":2648:2657   */\n      dup4\n        /* \"#utility.yul\":2644:2662   */\n      add\n        /* \"#utility.yul\":2635:2641   */\n      dup5\n        /* \"#utility.yul\":2597:2663   */\n      tag_60\n      jump\t// in\n    tag_113:\n        /* \"#utility.yul\":2259:2670   */\n      swap4\n      swap3\n      pop\n      pop\n      pop\n      jump\t// out\n        /* \"#utility.yul\":2676:2793   */\n    tag_61:\n        /* \"#utility.yul\":2785:2786   */\n      0x00\n        /* \"#utility.yul\":2782:2783   */\n      dup1\n        /* \"#utility.yul\":2775:2787   */\n      revert\n        /* \"#utility.yul\":2799:2916   */\n    tag_62:\n        /* \"#utility.yul\":2908:2909   */\n      0x00\n        /* \"#utility.yul\":2905:2906   */\n      dup1\n        /* \"#utility.yul\":2898:2910   */\n      revert\n        /* \"#utility.yul\":2922:3039   */\n    tag_63:\n        /* \"#utility.yul\":3031:3032   */\n      0x00\n        /* \"#utility.yul\":3028:3029   */\n      dup1\n        /* \"#utility.yul\":3021:3033   */\n      revert\n        /* \"#utility.yul\":3059:3612   */\n    tag_64:\n        /* \"#utility.yul\":3117:3125   */\n      0x00\n        /* \"#utility.yul\":3127:3133   */\n      dup1\n        /* \"#utility.yul\":3177:3180   */\n      dup4\n        /* \"#utility.yul\":3170:3174   */\n      0x1f\n        /* \"#utility.yul\":3162:3168   */\n      dup5\n        /* \"#utility.yul\":3158:3175   */\n      add\n        /* \"#utility.yul\":3154:3181   */\n      slt\n        /* \"#utility.yul\":3144:3266   */\n      tag_118\n      jumpi\n        /* \"#utility.yul\":3185:3264   */\n      tag_119\n      tag_61\n      jump\t// in\n    tag_119:\n        /* \"#utility.yul\":3144:3266   */\n    tag_118:\n        /* \"#utility.yul\":3298:3304   */\n      dup3\n        /* \"#utility.yul\":3285:3305   */\n      calldataload\n        /* \"#utility.yul\":3275:3305   */\n      swap1\n      pop\n        /* \"#utility.yul\":3328:3346   */\n      0xffffffffffffffff\n        /* \"#utility.yul\":3320:3326   */\n      dup2\n        /* \"#utility.yul\":3317:3347   */\n      gt\n        /* \"#utility.yul\":3314:3431   */\n      iszero\n      tag_120\n      jumpi\n        /* \"#utility.yul\":3350:3429   */\n      tag_121\n      tag_62\n      jump\t// in\n    tag_121:\n        /* \"#utility.yul\":3314:3431   */\n    tag_120:\n        /* \"#utility.yul\":3464:3468   */\n      0x20\n        /* \"#utility.yul\":3456:3462   */\n      dup4\n        /* \"#utility.yul\":3452:3469   */\n      add\n        /* \"#utility.yul\":3440:3469   */\n      swap2\n      pop\n        /* \"#utility.yul\":3518:3521   */\n      dup4\n        /* \"#utility.yul\":3510:3514   */\n      0x01\n        /* \"#utility.yul\":3502:3508   */\n      dup3\n        /* \"#utility.yul\":3498:3515   */\n      mul\n        /* \"#utility.yul\":3488:3496   */\n      dup4\n        /* \"#utility.yul\":3484:3516   */\n      add\n        /* \"#utility.yul\":3481:3522   */\n      gt\n        /* \"#utility.yul\":3478:3606   */\n      iszero\n      tag_122\n      jumpi\n        /* \"#utility.yul\":3525:3604   */\n      tag_123\n      tag_63\n      jump\t// in\n    tag_123:\n        /* \"#utility.yul\":3478:3606   */\n    tag_122:\n        /* \"#utility.yul\":3059:3612   */\n      swap3\n      pop\n      swap3\n      swap1\n      pop\n      jump\t// out\n        /* \"#utility.yul\":3618:4147   */\n    tag_14:\n        /* \"#utility.yul\":3689:3695   */\n      0x00\n        /* \"#utility.yul\":3697:3703   */\n      dup1\n        /* \"#utility.yul\":3746:3748   */\n      0x20\n        /* \"#utility.yul\":3734:3743   */\n      dup4\n        /* \"#utility.yul\":3725:3732   */\n      dup6\n        /* \"#utility.yul\":3721:3744   */\n      sub\n        /* \"#utility.yul\":3717:3749   */\n      slt\n        /* \"#utility.yul\":3714:3833   */\n      iszero\n      tag_125\n      jumpi\n        /* \"#utility.yul\":3752:3831   */\n      tag_126\n      tag_49\n      jump\t// in\n    tag_126:\n        /* \"#utility.yul\":3714:3833   */\n    tag_125:\n        /* \"#utility.yul\":3900:3901   */\n      0x00\n        /* \"#utility.yul\":3889:3898   */\n      dup4\n        /* \"#utility.yul\":3885:3902   */\n      add\n        /* \"#utility.yul\":3872:3903   */\n      calldataload\n        /* \"#utility.yul\":3930:3948   */\n      0xffffffffffffffff\n        /* \"#utility.yul\":3922:3928   */\n      dup2\n        /* \"#utility.yul\":3919:3949   */\n      gt\n        /* \"#utility.yul\":3916:4033   */\n      iszero\n      tag_127\n      jumpi\n        /* \"#utility.yul\":3952:4031   */\n      tag_128\n      tag_50\n      jump\t// in\n    tag_128:\n        /* \"#utility.yul\":3916:4033   */\n    tag_127:\n        /* \"#utility.yul\":4065:4130   */\n      tag_129\n        /* \"#utility.yul\":4122:4129   */\n      dup6\n        /* \"#utility.yul\":4113:4119   */\n      dup3\n        /* \"#utility.yul\":4102:4111   */\n      dup7\n        /* \"#utility.yul\":4098:4120   */\n      add\n        /* \"#utility.yul\":4065:4130   */\n      tag_64\n      jump\t// in\n    tag_129:\n        /* \"#utility.yul\":4047:4130   */\n      swap3\n      pop\n      swap3\n      pop\n        /* \"#utility.yul\":3843:4140   */\n      pop\n        /* \"#utility.yul\":3618:4147   */\n      swap3\n      pop\n      swap3\n      swap1\n      pop\n      jump\t// out\n        /* \"#utility.yul\":4153:4333   */\n    tag_23:\n        /* \"#utility.yul\":4201:4278   */\n      0x4e487b7100000000000000000000000000000000000000000000000000000000\n        /* \"#utility.yul\":4198:4199   */\n      0x00\n        /* \"#utility.yul\":4191:4279   */\n      mstore\n        /* \"#utility.yul\":4298:4302   */\n      0x32\n        /* \"#utility.yul\":4295:4296   */\n      0x04\n        /* \"#utility.yul\":4288:4303   */\n      mstore\n        /* \"#utility.yul\":4322:4326   */\n      0x24\n        /* \"#utility.yul\":4319:4320   */\n      0x00\n        /* \"#utility.yul\":4312:4327   */\n      revert\n        /* \"#utility.yul\":4339:4519   */\n    tag_65:\n        /* \"#utility.yul\":4387:4464   */\n      0x4e487b7100000000000000000000000000000000000000000000000000000000\n        /* \"#utility.yul\":4384:4385   */\n      0x00\n        /* \"#utility.yul\":4377:4465   */\n      mstore\n        /* \"#utility.yul\":4484:4488   */\n      0x22\n        /* \"#utility.yul\":4481:4482   */\n      0x04\n        /* \"#utility.yul\":4474:4489   */\n      mstore\n        /* \"#utility.yul\":4508:4512   */\n      0x24\n        /* \"#utility.yul\":4505:4506   */\n      0x00\n        /* \"#utility.yul\":4498:4513   */\n      revert\n        /* \"#utility.yul\":4525:4845   */\n    tag_26:\n        /* \"#utility.yul\":4569:4575   */\n      0x00\n        /* \"#utility.yul\":4606:4607   */\n      0x02\n        /* \"#utility.yul\":4600:4604   */\n      dup3\n        /* \"#utility.yul\":4596:4608   */\n      div\n        /* \"#utility.yul\":4586:4608   */\n      swap1\n      pop\n        /* \"#utility.yul\":4653:4654   */\n      0x01\n        /* \"#utility.yul\":4647:4651   */\n      dup3\n        /* \"#utility.yul\":4643:4655   */\n      and\n        /* \"#utility.yul\":4674:4692   */\n      dup1\n        /* \"#utility.yul\":4664:4745   */\n      tag_133\n      jumpi\n        /* \"#utility.yul\":4730:4734   */\n      0x7f\n        /* \"#utility.yul\":4722:4728   */\n      dup3\n        /* \"#utility.yul\":4718:4735   */\n      and\n        /* \"#utility.yul\":4708:4735   */\n      swap2\n      pop\n        /* \"#utility.yul\":4664:4745   */\n    tag_133:\n        /* \"#utility.yul\":4792:4794   */\n      0x20\n        /* \"#utility.yul\":4784:4790   */\n      dup3\n        /* \"#utility.yul\":4781:4795   */\n      lt\n        /* \"#utility.yul\":4761:4779   */\n      dup2\n        /* \"#utility.yul\":4758:4796   */\n      sub\n        /* \"#utility.yul\":4755:4839   */\n      tag_134\n      jumpi\n        /* \"#utility.yul\":4811:4829   */\n      tag_135\n      tag_65\n      jump\t// in\n    tag_135:\n        /* \"#utility.yul\":4755:4839   */\n    tag_134:\n        /* \"#utility.yul\":4576:4845   */\n      pop\n        /* \"#utility.yul\":4525:4845   */\n      swap2\n      swap1\n      pop\n      jump\t// out\n        /* \"#utility.yul\":4851:5031   */\n    tag_66:\n        /* \"#utility.yul\":4899:4976   */\n      0x4e487b7100000000000000000000000000000000000000000000000000000000\n        /* \"#utility.yul\":4896:4897   */\n      0x00\n        /* \"#utility.yul\":4889:4977   */\n      mstore\n        /* \"#utility.yul\":4996:5000   */\n      0x41\n        /* \"#utility.yul\":4993:4994   */\n      0x04\n        /* \"#utility.yul\":4986:5001   */\n      mstore\n        /* \"#utility.yul\":5020:5024   */\n      0x24\n        /* \"#utility.yul\":5017:5018   */\n      0x00\n        /* \"#utility.yul\":5010:5025   */\n      revert\n        /* \"#utility.yul\":5037:5178   */\n    tag_67:\n        /* \"#utility.yul\":5086:5090   */\n      0x00\n        /* \"#utility.yul\":5109:5112   */\n      dup2\n        /* \"#utility.yul\":5101:5112   */\n      swap1\n      pop\n        /* \"#utility.yul\":5132:5135   */\n      dup2\n        /* \"#utility.yul\":5129:5130   */\n      0x00\n        /* \"#utility.yul\":5122:5136   */\n      mstore\n        /* \"#utility.yul\":5166:5170   */\n      0x20\n        /* \"#utility.yul\":5163:5164   */\n      0x00\n        /* \"#utility.yul\":5153:5171   */\n      keccak256\n        /* \"#utility.yul\":5145:5171   */\n      swap1\n      pop\n        /* \"#utility.yul\":5037:5178   */\n      swap2\n      swap1\n      pop\n      jump\t// out\n        /* \"#utility.yul\":5184:5277   */\n    tag_68:\n        /* \"#utility.yul\":5221:5227   */\n      0x00\n        /* \"#utility.yul\":5268:5270   */\n      0x20\n        /* \"#utility.yul\":5263:5265   */\n      0x1f\n        /* \"#utility.yul\":5256:5261   */\n      dup4\n        /* \"#utility.yul\":5252:5266   */\n      add\n        /* \"#utility.yul\":5248:5271   */\n      div\n        /* \"#utility.yul\":5238:5271   */\n      swap1\n      pop\n        /* \"#utility.yul\":5184:5277   */\n      swap2\n      swap1\n      pop\n      jump\t// out\n        /* \"#utility.yul\":5283:5390   */\n    tag_69:\n        /* \"#utility.yul\":5327:5335   */\n      0x00\n        /* \"#utility.yul\":5377:5382   */\n      dup3\n        /* \"#utility.yul\":5371:5375   */\n      dup3\n        /* \"#utility.yul\":5367:5383   */\n      shl\n        /* \"#utility.yul\":5346:5383   */\n      swap1\n      pop\n        /* \"#utility.yul\":5283:5390   */\n      swap3\n      swap2\n      pop\n      pop\n      jump\t// out\n        /* \"#utility.yul\":5396:5789   */\n    tag_70:\n        /* \"#utility.yul\":5465:5471   */\n      0x00\n        /* \"#utility.yul\":5515:5516   */\n      0x08\n        /* \"#utility.yul\":5503:5513   */\n      dup4\n        /* \"#utility.yul\":5499:5517   */\n      mul\n        /* \"#utility.yul\":5538:5635   */\n      tag_141\n        /* \"#utility.yul\":5568:5634   */\n      0xffffffffffffffffffffffffffffffffffffffffffffffffffffffffffffffff\n        /* \"#utility.yul\":5557:5566   */\n      dup3\n        /* \"#utility.yul\":5538:5635   */\n      tag_69\n      jump\t// in\n    tag_141:\n        /* \"#utility.yul\":5656:5695   */\n      tag_142\n        /* \"#utility.yul\":5686:5694   */\n      dup7\n        /* \"#utility.yul\":5675:5684   */\n      dup4\n        /* \"#utility.yul\":5656:5695   */\n      tag_69\n      jump\t// in\n    tag_142:\n        /* \"#utility.yul\":5644:5695   */\n      swap6\n      pop\n        /* \"#utility.yul\":5728:5732   */\n      dup1\n        /* \"#utility.yul\":5724:5733   */\n      not\n        /* \"#utility.yul\":5717:5722   */\n      dup5\n        /* \"#utility.yul\":5713:5734   */\n      and\n        /* \"#utility.yul\":5704:5734   */\n      swap4\n      pop\n        /* \"#utility.yul\":5777:5781   */\n      dup1\n        /* \"#utility.yul\":5767:5775   */\n      dup7\n        /* \"#utility.yul\":5763:5782   */\n      and\n        /* \"#utility.yul\":5756:5761   */\n      dup5\n        /* \"#utility.yul\":5753:5783   */\n      or\n        /* \"#utility.yul\":5743:5783   */\n      swap3\n      pop\n        /* \"#utility.yul\":5472:5789   */\n      pop\n      pop\n        /* \"#utility.yul\":5396:5789   */\n      swap4\n      swap3\n      pop\n      pop\n      pop\n      jump\t// out\n        /* \"#utility.yul\":5795:5855   */\n    tag_71:\n        /* \"#utility.yul\":5823:5826   */\n      0x00\n        /* \"#utility.yul\":5844:5849   */\n      dup2\n        /* \"#utility.yul\":5837:5849   */\n      swap1\n      pop\n        /* \"#utility.yul\":5795:5855   */\n      swap2\n      swap1\n      pop\n      jump\t// out\n        /* \"#utility.yul\":5861:6003   */\n    tag_72:\n        /* \"#utility.yul\":5911:5920   */\n      0x00\n        /* \"#utility.yul\":5944:5997   */\n      tag_145\n        /* \"#utility.yul\":5962:5996   */\n      tag_146\n        /* \"#utility.yul\":5971:5995   */\n      tag_147\n        /* \"#utility.yul\":5989:5994   */\n      dup5\n        /* \"#utility.yul\":5971:5995   */\n      tag_51\n      jump\t// in\n    tag_147:\n        /* \"#utility.yul\":5962:5996   */\n      tag_71\n      jump\t// in\n    tag_146:\n        /* \"#utility.yul\":5944:5997   */\n      tag_51\n      jump\t// in\n    tag_145:\n        /* \"#utility.yul\":5931:5997   */\n      swap1\n      pop\n        /* \"#utility.yul\":5861:6003   */\n      swap2\n      swap1\n      pop\n      jump\t// out\n        /* \"#utility.yul\":6009:6084   */\n    tag_73:\n        /* \"#utility.yul\":6052:6055   */\n      0x00\n        /* \"#utility.yul\":6073:6078   */\n      dup2\n        /* \"#utility.yul\":6066:6078   */\n      swap1\n      pop\n        /* \"#utility.yul\":6009:6084   */\n      swap2\n      swap1\n      pop\n      jump\t// out\n        /* \"#utility.yul\":6090:6359   */\n    tag_74:\n        /* \"#utility.yul\":6200:6239   */\n      tag_150\n        /* \"#utility.yul\":6231:6238   */\n      dup4\n        /* \"#utility.yul\":6200:6239   */\n      tag_72\n      jump\t// in\n    tag_150:\n        /* \"#utility.yul\":6261:6352   */\n      tag_151\n        /* \"#utility.yul\":6310:6351   */\n      tag_152\n        /* \"#utility.yul\":6334:6350   */\n      dup3\n        /* \"#utility.yul\":6310:6351   */\n      tag_73\n      jump\t// in\n    tag_152:\n        /* \"#utility.yul\":6302:6308   */\n      dup5\n        /* \"#utility.yul\":6295:6299   */\n      dup5\n        /* \"#utility.yul\":6289:6300   */\n      sload\n        /* \"#utility.yul\":6261:6352   */\n      tag_70\n      jump\t// in\n    tag_151:\n        /* \"#utility.yul\":6255:6259   */\n      dup3\n        /* \"#utility.yul\":6248:6353   */\n      sstore\n        /* \"#utility.yul\":6166:6359   */\n      pop\n        /* \"#utility.yul\":6090:6359   */\n      pop\n      pop\n      pop\n      jump\t// out\n        /* \"#utility.yul\":6365:6438   */\n    tag_75:\n        /* \"#utility.yul\":6410:6413   */\n      0x00\n        /* \"#utility.yul\":6365:6438   */\n      swap1\n      jump\t// out\n        /* \"#utility.yul\":6444:6633   */\n    tag_76:\n        /* \"#utility.yul\":6521:6553   */\n      tag_155\n      tag_75\n      jump\t// in\n    tag_155:\n        /* \"#utility.yul\":6562:6627   */\n      tag_156\n        /* \"#utility.yul\":6620:6626   */\n      dup2\n        /* \"#utility.yul\":6612:6618   */\n      dup5\n        /* \"#utility.yul\":6606:6610   */\n      dup5\n        /* \"#utility.yul\":6562:6627   */\n      tag_74\n      jump\t// in\n    tag_156:\n        /* \"#utility.yul\":6497:6633   */\n      pop\n        /* \"#utility.yul\":6444:6633   */\n      pop\n      pop\n      jump\t// out\n        /* \"#utility.yul\":6639:6825   */\n    tag_77:\n        /* \"#utility.yul\":6699:6819   */\n    tag_158:\n        /* \"#utility.yul\":6716:6719   */\n      dup2\n        /* \"#utility.yul\":6709:6714   */\n      dup2\n        /* \"#utility.yul\":6706:6720   */\n      lt\n        /* \"#utility.yul\":6699:6819   */\n      iszero\n      tag_160\n      jumpi\n        /* \"#utility.yul\":6770:6809   */\n      tag_161\n        /* \"#utility.yul\":6807:6808   */\n      0x00\n        /* \"#utility.yul\":6800:6805   */\n      dup3\n        /* \"#utility.yul\":6770:6809   */\n      tag_76\n      jump\t// in\n    tag_161:\n        /* \"#utility.yul\":6743:6744   */\n      0x01\n        /* \"#utility.yul\":6736:6741   */\n      dup2\n        /* \"#utility.yul\":6732:6745   */\n      add\n        /* \"#utility.yul\":6723:6745   */\n      swap1\n      pop\n        /* \"#utility.yul\":6699:6819   */\n      jump(tag_158)\n    tag_160:\n        /* \"#utility.yul\":6639:6825   */\n      pop\n      pop\n      jump\t// out\n        /* \"#utility.yul\":6831:7374   */\n    tag_78:\n        /* \"#utility.yul\":6932:6934   */\n      0x1f\n        /* \"#utility.yul\":6927:6930   */\n      dup3\n        /* \"#utility.yul\":6924:6935   */\n      gt\n        /* \"#utility.yul\":6921:7367   */\n      iszero\n      tag_163\n      jumpi\n        /* \"#utility.yul\":6966:7004   */\n      tag_164\n        /* \"#utility.yul\":6998:7003   */\n      dup2\n        /* \"#utility.yul\":6966:7004   */\n      tag_67\n      jump\t// in\n    tag_164:\n        /* \"#utility.yul\":7050:7079   */\n      tag_165\n        /* \"#utility.yul\":7068:7078   */\n      dup5\n        /* \"#utility.yul\":7050:7079   */\n      tag_68\n      jump\t// in\n    tag_165:\n        /* \"#utility.yul\":7040:7048   */\n      dup2\n        /* \"#utility.yul\":7036:7080   */\n      add\n        /* \"#utility.yul\":7233:7235   */\n      0x20\n        /* \"#utility.yul\":7221:7231   */\n      dup6\n        /* \"#utility.yul\":7218:7236   */\n      lt\n        /* \"#utility.yul\":7215:7264   */\n      iszero\n      tag_166\n      jumpi\n        /* \"#utility.yul\":7254:7262   */\n      dup2\n        /* \"#utility.yul\":7239:7262   */\n      swap1\n      pop\n        /* \"#utility.yul\":7215:7264   */\n    tag_166:\n        /* \"#utility.yul\":7277:7357   */\n      tag_167\n        /* \"#utility.yul\":7333:7355   */\n      tag_168\n        /* \"#utility.yul\":7351:7354   */\n      dup6\n        /* \"#utility.yul\":7333:7355   */\n      tag_68\n      jump\t// in\n    tag_168:\n        /* \"#utility.yul\":7323:7331   */\n      dup4\n        /* \"#utility.yul\":7319:7356   */\n      add\n        /* \"#utility.yul\":7306:7317   */\n      dup3\n        /* \"#utility.yul\":7277:7357   */\n      tag_77\n      jump\t// in\n    tag_167:\n        /* \"#utility.yul\":6936:7367   */\n      pop\n      pop\n        /* \"#utility.yul\":6921:7367   */\n    tag_163:\n        /* \"#utility.yul\":6831:7374   */\n      pop\n      pop\n      pop\n      jump\t// out\n        /* \"#utility.yul\":7380:7497   */\n    tag_79:\n        /* \"#utility.yul\":7434:7442   */\n      0x00\n        /* \"#utility.yul\":7484:7489   */\n      dup3\n        /* \"#utility.yul\":7478:7482   */\n      dup3\n        /* \"#utility.yul\":7474:7490   */\n      shr\n        /* \"#utility.yul\":7453:7490   */\n      swap1\n      pop\n        /* \"#utility.yul\":7380:7497   */\n      swap3\n      swap2\n      pop\n      pop\n      jump\t// out\n        /* \"#utility.yul\":7503:7672   */\n    tag_80:\n        /* \"#utility.yul\":7547:7553   */\n      0x00\n        /* \"#utility.yul\":7580:7631   */\n      tag_171\n        /* \"#utility.yul\":7628:7629   */\n      0x00\n        /* \"#utility.yul\":7624:7630   */\n      not\n        /* \"#utility.yul\":7616:7621   */\n      dup5\n        /* \"#utility.yul\":7613:7614   */\n      0x08\n        /* \"#utility.yul\":7609:7622   */\n      mul\n        /* \"#utility.yul\":7580:7631   */\n      tag_79\n      jump\t// in\n    tag_171:\n        /* \"#utility.yul\":7576:7632   */\n      not\n        /* \"#utility.yul\":7661:7665   */\n      dup1\n        /* \"#utility.yul\":7655:7659   */\n      dup4\n        /* \"#utility.yul\":7651:7666   */\n      and\n        /* \"#utility.yul\":7641:7666   */\n      swap2\n      pop\n        /* \"#utility.yul\":7554:7672   */\n      pop\n        /* \"#utility.yul\":7503:7672   */\n      swap3\n      swap2\n      pop\n      pop\n      jump\t// out\n        /* \"#utility.yul\":7677:7972   */\n    tag_81:\n        /* \"#utility.yul\":7753:7757   */\n      0x00\n        /* \"#utility.yul\":7899:7928   */\n      tag_173\n        /* \"#utility.yul\":7924:7927   */\n      dup4\n        /* \"#utility.yul\":7918:7922   */\n      dup4\n        /* \"#utility.yul\":7899:7928   */\n      tag_80\n      jump\t// in\n    tag_173:\n        /* \"#utility.yul\":7891:7928   */\n      swap2\n      pop\n        /* \"#utility.yul\":7961:7964   */\n      dup3\n        /* \"#utility.yul\":7958:7959   */\n      0x02\n        /* \"#utility.yul\":7954:7965   */\n      mul\n        /* \"#utility.yul\":7948:7952   */\n      dup3\n        /* \"#utility.yul\":7945:7966   */\n      or\n        /* \"#utility.yul\":7937:7966   */\n      swap1\n      pop\n        /* \"#utility.yul\":7677:7972   */\n      swap3\n      swap2\n      pop\n      pop\n      jump\t// out\n        /* \"#utility.yul\":7977:9372   */\n    tag_34:\n        /* \"#utility.yul\":8094:8131   */\n      tag_175\n        /* \"#utility.yul\":8127:8130   */\n      dup3\n        /* \"#utility.yul\":8094:8131   */\n      tag_54\n      jump\t// in\n    tag_175:\n        /* \"#utility.yul\":8196:8214   */\n      0xffffffffffffffff\n        /* \"#utility.yul\":8188:8194   */\n      dup2\n        /* \"#utility.yul\":8185:8215   */\n      gt\n        /* \"#utility.yul\":8182:8238   */\n      iszero\n      tag_176\n      jumpi\n        /* \"#utility.yul\":8218:8236   */\n      tag_177\n      tag_66\n      jump\t// in\n    tag_177:\n        /* \"#utility.yul\":8182:8238   */\n    tag_176:\n        /* \"#utility.yul\":8262:8300   */\n      tag_178\n        /* \"#utility.yul\":8294:8298   */\n      dup3\n        /* \"#utility.yul\":8288:8299   */\n      sload\n        /* \"#utility.yul\":8262:8300   */\n      tag_26\n      jump\t// in\n    tag_178:\n        /* \"#utility.yul\":8347:8414   */\n      tag_179\n        /* \"#utility.yul\":8407:8413   */\n      dup3\n        /* \"#utility.yul\":8399:8405   */\n      dup3\n        /* \"#utility.yul\":8393:8397   */\n      dup6\n        /* \"#utility.yul\":8347:8414   */\n      tag_78\n      jump\t// in\n    tag_179:\n        /* \"#utility.yul\":8441:8442   */\n      0x00\n        /* \"#utility.yul\":8465:8469   */\n      0x20\n        /* \"#utility.yul\":8452:8469   */\n      swap1\n      pop\n        /* \"#utility.yul\":8497:8499   */\n      0x1f\n        /* \"#utility.yul\":8489:8495   */\n      dup4\n        /* \"#utility.yul\":8486:8500   */\n      gt\n        /* \"#utility.yul\":8514:8515   */\n      0x01\n        /* \"#utility.yul\":8509:9127   */\n      dup2\n      eq\n      tag_181\n      jumpi\n        /* \"#utility.yul\":9171:9172   */\n      0x00\n        /* \"#utility.yul\":9188:9194   */\n      dup5\n        /* \"#utility.yul\":9185:9262   */\n      iszero\n      tag_182\n      jumpi\n        /* \"#utility.yul\":9237:9246   */\n      dup3\n        /* \"#utility.yul\":9232:9235   */\n      dup8\n        /* \"#utility.yul\":9228:9247   */\n      add\n        /* \"#utility.yul\":9222:9248   */\n      mload\n        /* \"#utility.yul\":9213:9248   */\n      swap1\n      pop\n        /* \"#utility.yul\":9185:9262   */\n    tag_182:\n        /* \"#utility.yul\":9288:9355   */\n      tag_183\n        /* \"#utility.yul\":9348:9354   */\n      dup6\n        /* \"#utility.yul\":9341:9346   */\n      dup3\n        /* \"#utility.yul\":9288:9355   */\n      tag_81\n      jump\t// in\n    tag_183:\n        /* \"#utility.yul\":9282:9286   */\n      dup7\n        /* \"#utility.yul\":9275:9356   */\n      sstore\n        /* \"#utility.yul\":9144:9366   */\n      pop\n        /* \"#utility.yul\":8479:9366   */\n      jump(tag_180)\n        /* \"#utility.yul\":8509:9127   */\n    tag_181:\n        /* \"#utility.yul\":8561:8565   */\n      0x1f\n        /* \"#utility.yul\":8557:8566   */\n      not\n        /* \"#utility.yul\":8549:8555   */\n      dup5\n        /* \"#utility.yul\":8545:8567   */\n      and\n        /* \"#utility.yul\":8595:8632   */\n      tag_184\n        /* \"#utility.yul\":8627:8631   */\n      dup7\n        /* \"#utility.yul\":8595:8632   */\n      tag_67\n      jump\t// in\n    tag_184:\n        /* \"#utility.yul\":8654:8655   */\n      0x00\n        /* \"#utility.yul\":8668:8876   */\n    tag_185:\n        /* \"#utility.yul\":8682:8689   */\n      dup3\n        /* \"#utility.yul\":8679:8680   */\n      dup2\n        /* \"#utility.yul\":8676:8690   */\n      lt\n        /* \"#utility.yul\":8668:8876   */\n      iszero\n      tag_187\n      jumpi\n        /* \"#utility.yul\":8761:8770   */\n      dup5\n        /* \"#utility.yul\":8756:8759   */\n      dup10\n        /* \"#utility.yul\":8752:8771   */\n      add\n        /* \"#utility.yul\":8746:8772   */\n      mload\n        /* \"#utility.yul\":8738:8744   */\n      dup3\n        /* \"#utility.yul\":8731:8773   */\n      sstore\n        /* \"#utility.yul\":8812:8813   */\n      0x01\n        /* \"#utility.yul\":8804:8810   */\n      dup3\n        /* \"#utility.yul\":8800:8814   */\n      add\n        /* \"#utility.yul\":8790:8814   */\n      swap2\n      pop\n        /* \"#utility.yul\":8859:8861   */\n      0x20\n        /* \"#utility.yul\":8848:8857   */\n      dup6\n        /* \"#utility.yul\":8844:8862   */\n      add\n        /* \"#utility.yul\":8831:8862   */\n      swap5\n      pop\n        /* \"#utility.yul\":8705:8709   */\n      0x20\n        /* \"#utility.yul\":8702:8703   */\n      dup2\n        /* \"#utility.yul\":8698:8710   */\n      add\n        /* \"#utility.yul\":8693:8710   */\n      swap1\n      pop\n        /* \"#utility.yul\":8668:8876   */\n      jump(tag_185)\n    tag_187:\n        /* \"#utility.yul\":8904:8910   */\n      dup7\n        /* \"#utility.yul\":8895:8902   */\n      dup4\n        /* \"#utility.yul\":8892:8911   */\n      lt\n        /* \"#utility.yul\":8889:9068   */\n      iszero\n      tag_188\n      jumpi\n        /* \"#utility.yul\":8962:8971   */\n      dup5\n        /* \"#utility.yul\":8957:8960   */\n      dup10\n        /* \"#utility.yul\":8953:8972   */\n      add\n        /* \"#utility.yul\":8947:8973   */\n      mload\n        /* \"#utility.yul\":9005:9053   */\n      tag_189\n        /* \"#utility.yul\":9047:9051   */\n      0x1f\n        /* \"#utility.yul\":9039:9045   */\n      dup10\n        /* \"#utility.yul\":9035:9052   */\n      and\n        /* \"#utility.yul\":9024:9033   */\n      dup3\n        /* \"#utility.yul\":9005:9053   */\n      tag_80\n      jump\t// in\n    tag_189:\n        /* \"#utility.yul\":8997:9003   */\n      dup4\n        /* \"#utility.yul\":8990:9054   */\n      sstore\n        /* \"#utility.yul\":8912:9068   */\n      pop\n        /* \"#utility.yul\":8889:9068   */\n    tag_188:\n        /* \"#utility.yul\":9114:9115   */\n      0x01\n        /* \"#utility.yul\":9110:9111   */\n      0x02\n        /* \"#utility.yul\":9102:9108   */\n      dup9\n        /* \"#utility.yul\":9098:9112   */\n      mul\n        /* \"#utility.yul\":9094:9116   */\n      add\n        /* \"#utility.yul\":9088:9092   */\n      dup9\n        /* \"#utility.yul\":9081:9117   */\n      sstore\n        /* \"#utility.yul\":8516:9127   */\n      pop\n      pop\n      pop\n        /* \"#utility.yul\":8479:9366   */\n    tag_180:\n      pop\n        /* \"#utility.yul\":8069:9372   */\n      pop\n      pop\n      pop\n        /* \"#utility.yul\":7977:9372   */\n      pop\n      pop\n      jump\t// out\n\n    auxdata: 0xa2646970667358221220e2e953f0fa42c56020b07741265a7252ea34c5bdc58dce0c88779c6f4b391c7f64736f6c63430008120033\n}\n",
				"bytecode": {
					"linkReferences": {},
					"object": "608060405234801561001057600080fd5b50610a26806100206000396000f3fe608060405234801561001057600080fd5b50600436106100415760003560e01c80639507d39a14610046578063b6a46b3b14610077578063bc8bc2b414610093575b600080fd5b610060600480360381019061005b91906104fa565b6100c4565b60405161006e9291906105d2565b60405180910390f35b610091600480360381019061008c9190610667565b610199565b005b6100ad60048036038101906100a891906104fa565b6103d5565b6040516100bb9291906105d2565b60405180910390f35b6060600080600084815481106100dd576100dc6106b4565b5b90600052602060002090600202019050806000018160010160009054906101000a900460ff1681805461010f90610712565b80601f016020809104026020016040519081016040528092919081815260200182805461013b90610712565b80156101885780601f1061015d57610100808354040283529160200191610188565b820191906000526020600020905b81548152906001019060200180831161016b57829003601f168201915b505050505091509250925050915091565b6000604051806040016040528084848080601f016020809104026020016040519081016040528093929190818152602001838380828437600081840152601f19601f8201169050808301925050505050505081526020016000151581525090806001815401808255809150506001900390600052602060002090600202016000909190919091506000820151816000019081610235919061091e565b5060208201518160010160006101000a81548160ff02191690831515021790555050506000604051806040016040528084848080601f016020809104026020016040519081016040528093929190818152602001838380828437600081840152601f19601f82011690508083019250505050505050815260200160001515815250908060018154018082558091505060019003906000526020600020906002020160009091909190915060008201518160000190816102f4919061091e565b5060208201518160010160006101000a81548160ff021916908315150217905550505061031f61049e565b82828080601f016020809104026020016040519081016040528093929190818152602001838380828437600081840152601f19601f820116905080830192505050505050508160000181905250600081908060018154018082558091505060019003906000526020600020906002020160009091909190915060008201518160000190816103ad919061091e565b5060208201518160010160006101000a81548160ff0219169083151502179055505050505050565b600081815481106103e557600080fd5b906000526020600020906002020160009150905080600001805461040890610712565b80601f016020809104026020016040519081016040528092919081815260200182805461043490610712565b80156104815780601f1061045657610100808354040283529160200191610481565b820191906000526020600020905b81548152906001019060200180831161046457829003601f168201915b5050505050908060010160009054906101000a900460ff16905082565b6040518060400160405280606081526020016000151581525090565b600080fd5b600080fd5b6000819050919050565b6104d7816104c4565b81146104e257600080fd5b50565b6000813590506104f4816104ce565b92915050565b6000602082840312156105105761050f6104ba565b5b600061051e848285016104e5565b91505092915050565b600081519050919050565b600082825260208201905092915050565b60005b83811015610561578082015181840152602081019050610546565b60008484015250505050565b6000601f19601f8301169050919050565b600061058982610527565b6105938185610532565b93506105a3818560208601610543565b6105ac8161056d565b840191505092915050565b60008115159050919050565b6105cc816105b7565b82525050565b600060408201905081810360008301526105ec818561057e565b90506105fb60208301846105c3565b9392505050565b600080fd5b600080fd5b600080fd5b60008083601f84011261062757610626610602565b5b8235905067ffffffffffffffff81111561064457610643610607565b5b6020830191508360018202830111156106605761065f61060c565b5b9250929050565b6000806020838503121561067e5761067d6104ba565b5b600083013567ffffffffffffffff81111561069c5761069b6104bf565b5b6106a885828601610611565b92509250509250929050565b7f4e487b7100000000000000000000000000000000000000000000000000000000600052603260045260246000fd5b7f4e487b7100000000000000000000000000000000000000000000000000000000600052602260045260246000fd5b6000600282049050600182168061072a57607f821691505b60208210810361073d5761073c6106e3565b5b50919050565b7f4e487b7100000000000000000000000000000000000000000000000000000000600052604160045260246000fd5b60008190508160005260206000209050919050565b60006020601f8301049050919050565b600082821b905092915050565b6000600883026107d47fffffffffffffffffffffffffffffffffffffffffffffffffffffffffffffffff82610797565b6107de8683610797565b95508019841693508086168417925050509392505050565b6000819050919050565b600061081b610816610811846104c4565b6107f6565b6104c4565b9050919050565b6000819050919050565b61083583610800565b61084961084182610822565b8484546107a4565b825550505050565b600090565b61085e610851565b61086981848461082c565b505050565b5b8181101561088d57610882600082610856565b60018101905061086f565b5050565b601f8211156108d2576108a381610772565b6108ac84610787565b810160208510156108bb578190505b6108cf6108c785610787565b83018261086e565b50505b505050565b600082821c905092915050565b60006108f5600019846008026108d7565b1980831691505092915050565b600061090e83836108e4565b9150826002028217905092915050565b61092782610527565b67ffffffffffffffff8111156109405761093f610743565b5b61094a8254610712565b610955828285610891565b600060209050601f8311600181146109885760008415610976578287015190505b6109808582610902565b8655506109e8565b601f19841661099686610772565b60005b828110156109be57848901518255600182019150602085019450602081019050610999565b868310156109db57848901516109d7601f8916826108e4565b8355505b6001600288020188555050505b50505050505056fea2646970667358221220e2e953f0fa42c56020b07741265a7252ea34c5bdc58dce0c88779c6f4b391c7f64736f6c63430008120033",
					"opcodes": "PUSH1 0x80 PUSH1 0x40 MSTORE CALLVALUE DUP1 ISZERO PUSH2 0x10 JUMPI PUSH1 0x0 DUP1 REVERT JUMPDEST POP PUSH2 0xA26 DUP1 PUSH2 0x20 PUSH1 0x0 CODECOPY PUSH1 0x0 RETURN INVALID PUSH1 0x80 PUSH1 0x40 MSTORE CALLVALUE DUP1 ISZERO PUSH2 0x10 JUMPI PUSH1 0x0 DUP1 REVERT JUMPDEST POP PUSH1 0x4 CALLDATASIZE LT PUSH2 0x41 JUMPI PUSH1 0x0 CALLDATALOAD PUSH1 0xE0 SHR DUP1 PUSH4 0x9507D39A EQ PUSH2 0x46 JUMPI DUP1 PUSH4 0xB6A46B3B EQ PUSH2 0x77 JUMPI DUP1 PUSH4 0xBC8BC2B4 EQ PUSH2 0x93 JUMPI JUMPDEST PUSH1 0x0 DUP1 REVERT JUMPDEST PUSH2 0x60 PUSH1 0x4 DUP1 CALLDATASIZE SUB DUP2 ADD SWAP1 PUSH2 0x5B SWAP2 SWAP1 PUSH2 0x4FA JUMP JUMPDEST PUSH2 0xC4 JUMP JUMPDEST PUSH1 0x40 MLOAD PUSH2 0x6E SWAP3 SWAP2 SWAP1 PUSH2 0x5D2 JUMP JUMPDEST PUSH1 0x40 MLOAD DUP1 SWAP2 SUB SWAP1 RETURN JUMPDEST PUSH2 0x91 PUSH1 0x4 DUP1 CALLDATASIZE SUB DUP2 ADD SWAP1 PUSH2 0x8C SWAP2 SWAP1 PUSH2 0x667 JUMP JUMPDEST PUSH2 0x199 JUMP JUMPDEST STOP JUMPDEST PUSH2 0xAD PUSH1 0x4 DUP1 CALLDATASIZE SUB DUP2 ADD SWAP1 PUSH2 0xA8 SWAP2 SWAP1 PUSH2 0x4FA JUMP JUMPDEST PUSH2 0x3D5 JUMP JUMPDEST PUSH1 0x40 MLOAD PUSH2 0xBB SWAP3 SWAP2 SWAP1 PUSH2 0x5D2 JUMP JUMPDEST PUSH1 0x40 MLOAD DUP1 SWAP2 SUB SWAP1 RETURN JUMPDEST PUSH1 0x60 PUSH1 0x0 DUP1 PUSH1 0x0 DUP5 DUP2 SLOAD DUP2 LT PUSH2 0xDD JUMPI PUSH2 0xDC PUSH2 0x6B4 JUMP JUMPDEST JUMPDEST SWAP1 PUSH1 0x0 MSTORE PUSH1 0x20 PUSH1 0x0 KECCAK256 SWAP1 PUSH1 0x2 MUL ADD SWAP1 POP DUP1 PUSH1 0x0 ADD DUP2 PUSH1 0x1 ADD PUSH1 0x0 SWAP1 SLOAD SWAP1 PUSH2 0x100 EXP SWAP1 DIV PUSH1 0xFF AND DUP2 DUP1 SLOAD PUSH2 0x10F SWAP1 PUSH2 0x712 JUMP JUMPDEST DUP1 PUSH1 0x1F ADD PUSH1 0x20 DUP1 SWAP2 DIV MUL PUSH1 0x20 ADD PUSH1 0x40 MLOAD SWAP1 DUP2 ADD PUSH1 0x40 MSTORE DUP1 SWAP3 SWAP2 SWAP1 DUP2 DUP2 MSTORE PUSH1 0x20 ADD DUP3 DUP1 SLOAD PUSH2 0x13B SWAP1 PUSH2 0x712 JUMP JUMPDEST DUP1 ISZERO PUSH2 0x188 JUMPI DUP1 PUSH1 0x1F LT PUSH2 0x15D JUMPI PUSH2 0x100 DUP1 DUP4 SLOAD DIV MUL DUP4 MSTORE SWAP2 PUSH1 0x20 ADD SWAP2 PUSH2 0x188 JUMP JUMPDEST DUP3 ADD SWAP2 SWAP1 PUSH1 0x0 MSTORE PUSH1 0x20 PUSH1 0x0 KECCAK256 SWAP1 JUMPDEST DUP2 SLOAD DUP2 MSTORE SWAP1 PUSH1 0x1 ADD SWAP1 PUSH1 0x20 ADD DUP1 DUP4 GT PUSH2 0x16B JUMPI DUP3 SWAP1 SUB PUSH1 0x1F AND DUP3 ADD SWAP2 JUMPDEST POP POP POP POP POP SWAP2 POP SWAP3 POP SWAP3 POP POP SWAP2 POP SWAP2 JUMP JUMPDEST PUSH1 0x0 PUSH1 0x40 MLOAD DUP1 PUSH1 0x40 ADD PUSH1 0x40 MSTORE DUP1 DUP5 DUP5 DUP1 DUP1 PUSH1 0x1F ADD PUSH1 0x20 DUP1 SWAP2 DIV MUL PUSH1 0x20 ADD PUSH1 0x40 MLOAD SWAP1 DUP2 ADD PUSH1 0x40 MSTORE DUP1 SWAP4 SWAP3 SWAP2 SWAP1 DUP2 DUP2 MSTORE PUSH1 0x20 ADD DUP4 DUP4 DUP1 DUP3 DUP5 CALLDATACOPY PUSH1 0x0 DUP2 DUP5 ADD MSTORE PUSH1 0x1F NOT PUSH1 0x1F DUP3 ADD AND SWAP1 POP DUP1 DUP4 ADD SWAP3 POP POP POP POP POP POP POP DUP2 MSTORE PUSH1 0x20 ADD PUSH1 0x0 ISZERO ISZERO DUP2 MSTORE POP SWAP1 DUP1 PUSH1 0x1 DUP2 SLOAD ADD DUP1 DUP3 SSTORE DUP1 SWAP2 POP POP PUSH1 0x1 SWAP1 SUB SWAP1 PUSH1 0x0 MSTORE PUSH1 0x20 PUSH1 0x0 KECCAK256 SWAP1 PUSH1 0x2 MUL ADD PUSH1 0x0 SWAP1 SWAP2 SWAP1 SWAP2 SWAP1 SWAP2 POP PUSH1 0x0 DUP3 ADD MLOAD DUP2 PUSH1 0x0 ADD SWAP1 DUP2 PUSH2 0x235 SWAP2 SWAP1 PUSH2 0x91E JUMP JUMPDEST POP PUSH1 0x20 DUP3 ADD MLOAD DUP2 PUSH1 0x1 ADD PUSH1 0x0 PUSH2 0x100 EXP DUP2 SLOAD DUP2 PUSH1 0xFF MUL NOT AND SWAP1 DUP4 ISZERO ISZERO MUL OR SWAP1 SSTORE POP POP POP PUSH1 0x0 PUSH1 0x40 MLOAD DUP1 PUSH1 0x40 ADD PUSH1 0x40 MSTORE DUP1 DUP5 DUP5 DUP1 DUP1 PUSH1 0x1F ADD PUSH1 0x20 DUP1 SWAP2 DIV MUL PUSH1 0x20 ADD PUSH1 0x40 MLOAD SWAP1 DUP2 ADD PUSH1 0x40 MSTORE DUP1 SWAP4 SWAP3 SWAP2 SWAP1 DUP2 DUP2 MSTORE PUSH1 0x20 ADD DUP4 DUP4 DUP1 DUP3 DUP5 CALLDATACOPY PUSH1 0x0 DUP2 DUP5 ADD MSTORE PUSH1 0x1F NOT PUSH1 0x1F DUP3 ADD AND SWAP1 POP DUP1 DUP4 ADD SWAP3 POP POP POP POP POP POP POP DUP2 MSTORE PUSH1 0x20 ADD PUSH1 0x0 ISZERO ISZERO DUP2 MSTORE POP SWAP1 DUP1 PUSH1 0x1 DUP2 SLOAD ADD DUP1 DUP3 SSTORE DUP1 SWAP2 POP POP PUSH1 0x1 SWAP1 SUB SWAP1 PUSH1 0x0 MSTORE PUSH1 0x20 PUSH1 0x0 KECCAK256 SWAP1 PUSH1 0x2 MUL ADD PUSH1 0x0 SWAP1 SWAP2 SWAP1 SWAP2 SWAP1 SWAP2 POP PUSH1 0x0 DUP3 ADD MLOAD DUP2 PUSH1 0x0 ADD SWAP1 DUP2 PUSH2 0x2F4 SWAP2 SWAP1 PUSH2 0x91E JUMP JUMPDEST POP PUSH1 0x20 DUP3 ADD MLOAD DUP2 PUSH1 0x1 ADD PUSH1 0x0 PUSH2 0x100 EXP DUP2 SLOAD DUP2 PUSH1 0xFF MUL NOT AND SWAP1 DUP4 ISZERO ISZERO MUL OR SWAP1 SSTORE POP POP POP PUSH2 0x31F PUSH2 0x49E JUMP JUMPDEST DUP3 DUP3 DUP1 DUP1 PUSH1 0x1F ADD PUSH1 0x20 DUP1 SWAP2 DIV MUL PUSH1 0x20 ADD PUSH1 0x40 MLOAD SWAP1 DUP2 ADD PUSH1 0x40 MSTORE DUP1 SWAP4 SWAP3 SWAP2 SWAP1 DUP2 DUP2 MSTORE PUSH1 0x20 ADD DUP4 DUP4 DUP1 DUP3 DUP5 CALLDATACOPY PUSH1 0x0 DUP2 DUP5 ADD MSTORE PUSH1 0x1F NOT PUSH1 0x1F DUP3 ADD AND SWAP1 POP DUP1 DUP4 ADD SWAP3 POP POP POP POP POP POP POP DUP2 PUSH1 0x0 ADD DUP2 SWAP1 MSTORE POP PUSH1 0x0 DUP2 SWAP1 DUP1 PUSH1 0x1 DUP2 SLOAD ADD DUP1 DUP3 SSTORE DUP1 SWAP2 POP POP PUSH1 0x1 SWAP1 SUB SWAP1 PUSH1 0x0 MSTORE PUSH1 0x20 PUSH1 0x0 KECCAK256 SWAP1 PUSH1 0x2 MUL ADD PUSH1 0x0 SWAP1 SWAP2 SWAP1 SWAP2 SWAP1 SWAP2 POP PUSH1 0x0 DUP3 ADD MLOAD DUP2 PUSH1 0x0 ADD SWAP1 DUP2 PUSH2 0x3AD SWAP2 SWAP1 PUSH2 0x91E JUMP JUMPDEST POP PUSH1 0x20 DUP3 ADD MLOAD DUP2 PUSH1 0x1 ADD PUSH1 0x0 PUSH2 0x100 EXP DUP2 SLOAD DUP2 PUSH1 0xFF MUL NOT AND SWAP1 DUP4 ISZERO ISZERO MUL OR SWAP1 SSTORE POP POP POP POP POP POP JUMP JUMPDEST PUSH1 0x0 DUP2 DUP2 SLOAD DUP2 LT PUSH2 0x3E5 JUMPI PUSH1 0x0 DUP1 REVERT JUMPDEST SWAP1 PUSH1 0x0 MSTORE PUSH1 0x20 PUSH1 0x0 KECCAK256 SWAP1 PUSH1 0x2 MUL ADD PUSH1 0x0 SWAP2 POP SWAP1 POP DUP1 PUSH1 0x0 ADD DUP1 SLOAD PUSH2 0x408 SWAP1 PUSH2 0x712 JUMP JUMPDEST DUP1 PUSH1 0x1F ADD PUSH1 0x20 DUP1 SWAP2 DIV MUL PUSH1 0x20 ADD PUSH1 0x40 MLOAD SWAP1 DUP2 ADD PUSH1 0x40 MSTORE DUP1 SWAP3 SWAP2 SWAP1 DUP2 DUP2 MSTORE PUSH1 0x20 ADD DUP3 DUP1 SLOAD PUSH2 0x434 SWAP1 PUSH2 0x712 JUMP JUMPDEST DUP1 ISZERO PUSH2 0x481 JUMPI DUP1 PUSH1 0x1F LT PUSH2 0x456 JUMPI PUSH2 0x100 DUP1 DUP4 SLOAD DIV MUL DUP4 MSTORE SWAP2 PUSH1 0x20 ADD SWAP2 PUSH2 0x481 JUMP JUMPDEST DUP3 ADD SWAP2 SWAP1 PUSH1 0x0 MSTORE PUSH1 0x20 PUSH1 0x0 KECCAK256 SWAP1 JUMPDEST DUP2 SLOAD DUP2 MSTORE SWAP1 PUSH1 0x1 ADD SWAP1 PUSH1 0x20 ADD DUP1 DUP4 GT PUSH2 0x464 JUMPI DUP3 SWAP1 SUB PUSH1 0x1F AND DUP3 ADD SWAP2 JUMPDEST POP POP POP POP POP SWAP1 DUP1 PUSH1 0x1 ADD PUSH1 0x0 SWAP1 SLOAD SWAP1 PUSH2 0x100 EXP SWAP1 DIV PUSH1 0xFF AND SWAP1 POP DUP3 JUMP JUMPDEST PUSH1 0x40 MLOAD DUP1 PUSH1 0x40 ADD PUSH1 0x40 MSTORE DUP1 PUSH1 0x60 DUP2 MSTORE PUSH1 0x20 ADD PUSH1 0x0 ISZERO ISZERO DUP2 MSTORE POP SWAP1 JUMP JUMPDEST PUSH1 0x0 DUP1 REVERT JUMPDEST PUSH1 0x0 DUP1 REVERT JUMPDEST PUSH1 0x0 DUP2 SWAP1 POP SWAP2 SWAP1 POP JUMP JUMPDEST PUSH2 0x4D7 DUP2 PUSH2 0x4C4 JUMP JUMPDEST DUP2 EQ PUSH2 0x4E2 JUMPI PUSH1 0x0 DUP1 REVERT JUMPDEST POP JUMP JUMPDEST PUSH1 0x0 DUP2 CALLDATALOAD SWAP1 POP PUSH2 0x4F4 DUP2 PUSH2 0x4CE JUMP JUMPDEST SWAP3 SWAP2 POP POP JUMP JUMPDEST PUSH1 0x0 PUSH1 0x20 DUP3 DUP5 SUB SLT ISZERO PUSH2 0x510 JUMPI PUSH2 0x50F PUSH2 0x4BA JUMP JUMPDEST JUMPDEST PUSH1 0x0 PUSH2 0x51E DUP5 DUP3 DUP6 ADD PUSH2 0x4E5 JUMP JUMPDEST SWAP2 POP POP SWAP3 SWAP2 POP POP JUMP JUMPDEST PUSH1 0x0 DUP2 MLOAD SWAP1 POP SWAP2 SWAP1 POP JUMP JUMPDEST PUSH1 0x0 DUP3 DUP3 MSTORE PUSH1 0x20 DUP3 ADD SWAP1 POP SWAP3 SWAP2 POP POP JUMP JUMPDEST PUSH1 0x0 JUMPDEST DUP4 DUP2 LT ISZERO PUSH2 0x561 JUMPI DUP1 DUP3 ADD MLOAD DUP2 DUP5 ADD MSTORE PUSH1 0x20 DUP2 ADD SWAP1 POP PUSH2 0x546 JUMP JUMPDEST PUSH1 0x0 DUP5 DUP5 ADD MSTORE POP POP POP POP JUMP JUMPDEST PUSH1 0x0 PUSH1 0x1F NOT PUSH1 0x1F DUP4 ADD AND SWAP1 POP SWAP2 SWAP1 POP JUMP JUMPDEST PUSH1 0x0 PUSH2 0x589 DUP3 PUSH2 0x527 JUMP JUMPDEST PUSH2 0x593 DUP2 DUP6 PUSH2 0x532 JUMP JUMPDEST SWAP4 POP PUSH2 0x5A3 DUP2 DUP6 PUSH1 0x20 DUP7 ADD PUSH2 0x543 JUMP JUMPDEST PUSH2 0x5AC DUP2 PUSH2 0x56D JUMP JUMPDEST DUP5 ADD SWAP2 POP POP SWAP3 SWAP2 POP POP JUMP JUMPDEST PUSH1 0x0 DUP2 ISZERO ISZERO SWAP1 POP SWAP2 SWAP1 POP JUMP JUMPDEST PUSH2 0x5CC DUP2 PUSH2 0x5B7 JUMP JUMPDEST DUP3 MSTORE POP POP JUMP JUMPDEST PUSH1 0x0 PUSH1 0x40 DUP3 ADD SWAP1 POP DUP2 DUP2 SUB PUSH1 0x0 DUP4 ADD MSTORE PUSH2 0x5EC DUP2 DUP6 PUSH2 0x57E JUMP JUMPDEST SWAP1 POP PUSH2 0x5FB PUSH1 0x20 DUP4 ADD DUP5 PUSH2 0x5C3 JUMP JUMPDEST SWAP4 SWAP3 POP POP POP JUMP JUMPDEST PUSH1 0x0 DUP1 REVERT JUMPDEST PUSH1 0x0 DUP1 REVERT JUMPDEST PUSH1 0x0 DUP1 REVERT JUMPDEST PUSH1 0x0 DUP1 DUP4 PUSH1 0x1F DUP5 ADD SLT PUSH2 0x627 JUMPI PUSH2 0x626 PUSH2 0x602 JUMP JUMPDEST JUMPDEST DUP3 CALLDATALOAD SWAP1 POP PUSH8 0xFFFFFFFFFFFFFFFF DUP2 GT ISZERO PUSH2 0x644 JUMPI PUSH2 0x643 PUSH2 0x607 JUMP JUMPDEST JUMPDEST PUSH1 0x20 DUP4 ADD SWAP2 POP DUP4 PUSH1 0x1 DUP3 MUL DUP4 ADD GT ISZERO PUSH2 0x660 JUMPI PUSH2 0x65F PUSH2 0x60C JUMP JUMPDEST JUMPDEST SWAP3 POP SWAP3 SWAP1 POP JUMP JUMPDEST PUSH1 0x0 DUP1 PUSH1 0x20 DUP4 DUP6 SUB SLT ISZERO PUSH2 0x67E JUMPI PUSH2 0x67D PUSH2 0x4BA JUMP JUMPDEST JUMPDEST PUSH1 0x0 DUP4 ADD CALLDATALOAD PUSH8 0xFFFFFFFFFFFFFFFF DUP2 GT ISZERO PUSH2 0x69C JUMPI PUSH2 0x69B PUSH2 0x4BF JUMP JUMPDEST JUMPDEST PUSH2 0x6A8 DUP6 DUP3 DUP7 ADD PUSH2 0x611 JUMP JUMPDEST SWAP3 POP SWAP3 POP POP SWAP3 POP SWAP3 SWAP1 POP JUMP JUMPDEST PUSH32 0x4E487B7100000000000000000000000000000000000000000000000000000000 PUSH1 0x0 MSTORE PUSH1 0x32 PUSH1 0x4 MSTORE PUSH1 0x24 PUSH1 0x0 REVERT JUMPDEST PUSH32 0x4E487B7100000000000000000000000000000000000000000000000000000000 PUSH1 0x0 MSTORE PUSH1 0x22 PUSH1 0x4 MSTORE PUSH1 0x24 PUSH1 0x0 REVERT JUMPDEST PUSH1 0x0 PUSH1 0x2 DUP3 DIV SWAP1 POP PUSH1 0x1 DUP3 AND DUP1 PUSH2 0x72A JUMPI PUSH1 0x7F DUP3 AND SWAP2 POP JUMPDEST PUSH1 0x20 DUP3 LT DUP2 SUB PUSH2 0x73D JUMPI PUSH2 0x73C PUSH2 0x6E3 JUMP JUMPDEST JUMPDEST POP SWAP2 SWAP1 POP JUMP JUMPDEST PUSH32 0x4E487B7100000000000000000000000000000000000000000000000000000000 PUSH1 0x0 MSTORE PUSH1 0x41 PUSH1 0x4 MSTORE PUSH1 0x24 PUSH1 0x0 REVERT JUMPDEST PUSH1 0x0 DUP2 SWAP1 POP DUP2 PUSH1 0x0 MSTORE PUSH1 0x20 PUSH1 0x0 KECCAK256 SWAP1 POP SWAP2 SWAP1 POP JUMP JUMPDEST PUSH1 0x0 PUSH1 0x20 PUSH1 0x1F DUP4 ADD DIV SWAP1 POP SWAP2 SWAP1 POP JUMP JUMPDEST PUSH1 0x0 DUP3 DUP3 SHL SWAP1 POP SWAP3 SWAP2 POP POP JUMP JUMPDEST PUSH1 0x0 PUSH1 0x8 DUP4 MUL PUSH2 0x7D4 PUSH32 0xFFFFFFFFFFFFFFFFFFFFFFFFFFFFFFFFFFFFFFFFFFFFFFFFFFFFFFFFFFFFFFFF DUP3 PUSH2 0x797 JUMP JUMPDEST PUSH2 0x7DE DUP7 DUP4 PUSH2 0x797 JUMP JUMPDEST SWAP6 POP DUP1 NOT DUP5 AND SWAP4 POP DUP1 DUP7 AND DUP5 OR SWAP3 POP POP POP SWAP4 SWAP3 POP POP POP JUMP JUMPDEST PUSH1 0x0 DUP2 SWAP1 POP SWAP2 SWAP1 POP JUMP JUMPDEST PUSH1 0x0 PUSH2 0x81B PUSH2 0x816 PUSH2 0x811 DUP5 PUSH2 0x4C4 JUMP JUMPDEST PUSH2 0x7F6 JUMP JUMPDEST PUSH2 0x4C4 JUMP JUMPDEST SWAP1 POP SWAP2 SWAP1 POP JUMP JUMPDEST PUSH1 0x0 DUP2 SWAP1 POP SWAP2 SWAP1 POP JUMP JUMPDEST PUSH2 0x835 DUP4 PUSH2 0x800 JUMP JUMPDEST PUSH2 0x849 PUSH2 0x841 DUP3 PUSH2 0x822 JUMP JUMPDEST DUP5 DUP5 SLOAD PUSH2 0x7A4 JUMP JUMPDEST DUP3 SSTORE POP POP POP POP JUMP JUMPDEST PUSH1 0x0 SWAP1 JUMP JUMPDEST PUSH2 0x85E PUSH2 0x851 JUMP JUMPDEST PUSH2 0x869 DUP2 DUP5 DUP5 PUSH2 0x82C JUMP JUMPDEST POP POP POP JUMP JUMPDEST JUMPDEST DUP2 DUP2 LT ISZERO PUSH2 0x88D JUMPI PUSH2 0x882 PUSH1 0x0 DUP3 PUSH2 0x856 JUMP JUMPDEST PUSH1 0x1 DUP2 ADD SWAP1 POP PUSH2 0x86F JUMP JUMPDEST POP POP JUMP JUMPDEST PUSH1 0x1F DUP3 GT ISZERO PUSH2 0x8D2 JUMPI PUSH2 0x8A3 DUP2 PUSH2 0x772 JUMP JUMPDEST PUSH2 0x8AC DUP5 PUSH2 0x787 JUMP JUMPDEST DUP2 ADD PUSH1 0x20 DUP6 LT ISZERO PUSH2 0x8BB JUMPI DUP2 SWAP1 POP JUMPDEST PUSH2 0x8CF PUSH2 0x8C7 DUP6 PUSH2 0x787 JUMP JUMPDEST DUP4 ADD DUP3 PUSH2 0x86E JUMP JUMPDEST POP POP JUMPDEST POP POP POP JUMP JUMPDEST PUSH1 0x0 DUP3 DUP3 SHR SWAP1 POP SWAP3 SWAP2 POP POP JUMP JUMPDEST PUSH1 0x0 PUSH2 0x8F5 PUSH1 0x0 NOT DUP5 PUSH1 0x8 MUL PUSH2 0x8D7 JUMP JUMPDEST NOT DUP1 DUP4 AND SWAP2 POP POP SWAP3 SWAP2 POP POP JUMP JUMPDEST PUSH1 0x0 PUSH2 0x90E DUP4 DUP4 PUSH2 0x8E4 JUMP JUMPDEST SWAP2 POP DUP3 PUSH1 0x2 MUL DUP3 OR SWAP1 POP SWAP3 SWAP2 POP POP JUMP JUMPDEST PUSH2 0x927 DUP3 PUSH2 0x527 JUMP JUMPDEST PUSH8 0xFFFFFFFFFFFFFFFF DUP2 GT ISZERO PUSH2 0x940 JUMPI PUSH2 0x93F PUSH2 0x743 JUMP JUMPDEST JUMPDEST PUSH2 0x94A DUP3 SLOAD PUSH2 0x712 JUMP JUMPDEST PUSH2 0x955 DUP3 DUP3 DUP6 PUSH2 0x891 JUMP JUMPDEST PUSH1 0x0 PUSH1 0x20 SWAP1 POP PUSH1 0x1F DUP4 GT PUSH1 0x1 DUP2 EQ PUSH2 0x988 JUMPI PUSH1 0x0 DUP5 ISZERO PUSH2 0x976 JUMPI DUP3 DUP8 ADD MLOAD SWAP1 POP JUMPDEST PUSH2 0x980 DUP6 DUP3 PUSH2 0x902 JUMP JUMPDEST DUP7 SSTORE POP PUSH2 0x9E8 JUMP JUMPDEST PUSH1 0x1F NOT DUP5 AND PUSH2 0x996 DUP7 PUSH2 0x772 JUMP JUMPDEST PUSH1 0x0 JUMPDEST DUP3 DUP2 LT ISZERO PUSH2 0x9BE JUMPI DUP5 DUP10 ADD MLOAD DUP3 SSTORE PUSH1 0x1 DUP3 ADD SWAP2 POP PUSH1 0x20 DUP6 ADD SWAP5 POP PUSH1 0x20 DUP2 ADD SWAP1 POP PUSH2 0x999 JUMP JUMPDEST DUP7 DUP4 LT ISZERO PUSH2 0x9DB JUMPI DUP5 DUP10 ADD MLOAD PUSH2 0x9D7 PUSH1 0x1F DUP10 AND DUP3 PUSH2 0x8E4 JUMP JUMPDEST DUP4 SSTORE POP JUMPDEST PUSH1 0x1 PUSH1 0x2 DUP9 MUL ADD DUP9 SSTORE POP POP POP JUMPDEST POP POP POP POP POP POP JUMP INVALID LOG2 PUSH5 0x6970667358 0x22 SLT KECCAK256 0xE2 0xE9 MSTORE8 CREATE STATICCALL TIMESTAMP 0xC5 PUSH1 0x20 0xB0 PUSH24 0x41265A7252EA34C5BDC58DCE0C88779C6F4B391C7F64736F PUSH13 0x63430008120033000000000000 "
				},
				"gasEstimates": {
					"creation": {
						"codeDepositCost": "519600",
						"executionCost": "556",
						"totalCost": "520156"
					},
					"external": {
						"create(string)": "infinite",
						"get(uint256)": "infinite",
						"todos(uint256)": "infinite"
					}
				},
				"methodIdentifiers": {
					"create(string)": "b6a46b3b",
					"get(uint256)": "9507d39a",
					"todos(uint256)": "bc8bc2b4"
				}
			},
			"storageLayout": {
				"storage": [
					{
						"astId": 10,
						"contract": "contracts/Structs.sol:Todos",
						"label": "todos",
						"offset": 0,
						"slot": "0",
						"type": "t_array(t_struct(Todo)6_storage)dyn_storage"
					}
				],
				"types": {
					"t_array(t_struct(Todo)6_storage)dyn_storage": {
						"base": "t_struct(Todo)6_storage",
						"encoding": "dynamic_array",
						"label": "struct Todos.Todo[]",
						"numberOfBytes": "32"
					},
					"t_bool": {
						"encoding": "inplace",
						"label": "bool",
						"numberOfBytes": "1"
					},
					"t_string_storage": {
						"encoding": "bytes",
						"label": "string",
						"numberOfBytes": "32"
					},
					"t_struct(Todo)6_storage": {
						"encoding": "inplace",
						"label": "struct Todos.Todo",
						"members": [
							{
								"astId": 3,
								"contract": "contracts/Structs.sol:Todos",
								"label": "text",
								"offset": 0,
								"slot": "0",
								"type": "t_string_storage"
							},
							{
								"astId": 5,
								"contract": "contracts/Structs.sol:Todos",
								"label": "completed",
								"offset": 0,
								"slot": "1",
								"type": "t_bool"
							}
						],
						"numberOfBytes": "64"
					}
				}
			},
			"userdoc": {
				"kind": "user",
				"methods": {},
				"version": 1
			}
		}
	}
}